S01100007068797369637333632E737265637A
S11300000C9434000C943E000C943E000C943E007E
S11300100C943E000C943E000C943E000C94C800DA
S11300200C943E000C943E000C943E000C94BE00D4
S11300300C943E000C943E000C9499000C943E00E9
S11300400C943E000C943E000C943E000C943E0034
S11300500C943E000C943E000C943E000C943E0024
S11300600C943E000C943E0011241FBECFEFD8E048
S1130070DEBFCDBF0E94DA000C94E2000C940000B5
S11300801092C50087E68093C400E0ECF0E0808124
S11300908D7F808386E08093C20088E18093C100D5
S11300A00895E0ECF0E0908195FFFDCF8093C600C9
S11300B0089582E484BD94E095BD16BC9FEF97BD7E
S11300C018BC90E49093800099E090938100109282
S11300D0850010928400109287001092860010927E
S11300E089009EE69093880010928B0010928A00FB
S11300F01092B6008093B00081E08093B10010921A
S1130100B20088E78093B3001092B40082E0809339
S11301106E0080936F008093700080E880BF089524
S113012015B88AE184B918B817B81BB880E48AB93D
S113013008951F920F920FB60F9211242F933F939D
S11301404F935F936F937F938F939F93AF93BF93DB
S1130150EF93FF9380E30E945100FF91EF91BF91D1
S1130160AF919F918F917F916F915F914F913F914B
S11301702F910F900FBE0F901F9018951F920F9202
S11301800FB60F9211240F900FBE0F901F90189569
S11301901F920F920FB60F9211248F939F9395B1D4
S11301A080E1892785B99F918F910F900FBE0F90A1
S11301B01F9018950E9459000E9490000E944000D0
S10B01C07894FFCFF894FFCFFF
S9030000FC
