:100000000C9434000C9451000C9451000C94510049
:100010000C9451000C9451000C9451000C947A03F0
:100020000C9451000C9451000C9451000C947003EA
:100030000C9451000C9451000C94A8020C945100A3
:100040000C9451000C9451000C9451000C945100EC
:100050000C9451000C9451000C9451000C945100DC
:100060000C9451000C94510011241FBECFEFD8E026
:10007000DEBFCDBF11E0A0E0B1E0EAE0FCE002C0ED
:1000800005900D92A830B107D9F721E0A8E0B1E0C2
:1000900001C01D92A931B207E1F70E949E020C94A3
:1000A00003060C9400001092C50080E18093C40008
:1000B000E0ECF0E080818260808386E08093C20083
:1000C00088E18093C1000895E0ECF0E0908195FF15
:1000D000FDCF8093C60008958091C000881F8827B7
:1000E000881F08958091C60008958F929F92AF92C5
:1000F000BF92CF92DF92EF92FF926B017C01992326
:100100005CF48DE20E946400F094E094D094C0947A
:10011000C11CD11CE11CF11C80E1C81687E2D80685
:10012000E104F10464F0C701B60120E137E240E0E8
:1001300050E00E94C20580E3820F0E94640088EEB6
:10014000C81683E0D806E104F104A4F0C701B601A3
:1001500028EE33E040E050E00E94C205CA01B90138
:100160002AE030E040E050E00E94C20580E3860FC4
:100170000E94640084E6C816D104E104F104A4F0EE
:10018000C701B60124E630E040E050E00E94C2051D
:10019000CA01B9012AE030E040E050E00E94C20507
:1001A00080E3860F0E9464008AE0C816D104E1044F
:1001B000F104BCF00F2EFAE08F2E912CA12CB12C63
:1001C000F02DC701B601A50194010E94C205CA0124
:1001D000B901A50194010E94C20580E3860F0E9427
:1001E0006400C701B6012AE030E040E050E00E9420
:1001F000C20580E3860F0E946400FF90EF90DF90BD
:10020000CF90BF90AF909F908F900895811103C0C1
:1002100065BD47BD0895813041F46093810050E091
:1002200050938900409388000895833021F46093AF
:10023000B1004093B3000895CF92DF92EF92FF9206
:10024000CF93C82F6A017B0120E030E040E055E405
:10025000C701B6010E94F1038823B4F420E030E026
:1002600040E853E4C701B6010E94550520E030E0A4
:1002700040E05AE30E9455050E946F04462F63E058
:100280008C2F0E9406013FC020E030E040E056E4A1
:10029000C701B6010E94F1038823B4F420E030E0E6
:1002A00040E853E4C701B6010E94550520E030E064
:1002B00040E059E30E9455050E946F04462F64E018
:1002C0008C2F0E9406011FC020E030E040E057E480
:1002D000C701B6010E94F1038823ACF420E030E0AE
:1002E00040E853E4C701B6010E94550520E030E024
:1002F00040E058E30E9455050E946F04462F65E0D8
:100300008C2F0E940601CF91FF90EF90DF90CF904D
:10031000089582E484BD95E095BD16BC9FEF97BD1E
:1003200018BC90E49093800099E090938100109223
:10033000850010928400109287001092860010921F
:1003400089009EE69093880010928B0010928A009C
:100350001092B6008093B00081E08093B1001092BB
:10036000B20088E78093B3001092B40082E08093DB
:100370006E0080936F008093700080E880BF0895C6
:1003800015B88AE184B918B817B81BB880E48AB9DF
:100390000895CF92DF92EF92FF92C0900001D0902B
:1003A0000101E0900201F0900301A7019601609124
:1003B00004017091050180910601909107010E944E
:1003C000F103882344F4C0920401D0920501E09225
:1003D0000601F0920701FF90EF90DF90CF90089513
:1003E0000F931F930E946C00882309F4A4C00E94FD
:1003F0007200482F8A3009F04CC080910801882390
:10040000E1F08091090190910A01A0910B01B09156
:100410000C019C01AD0166277727CB01621B730B92
:10042000840B950B0E94A004609315017093160134
:10043000809317019093180112C060910901709187
:100440000A0180910B0190910C010E94A00460931D
:100450001501709316018093170190931801609114
:1004600015017091160180911701909118010E9459
:1004700068040E9475008AE00E94640010920901DD
:1004800010920A0110920B0110920C0110920801B7
:1004900052C08D3261F41092090110920A0110923B
:1004A0000B0110920C0181E08093080144C08091FF
:1004B000090190910A01A0910B01B0910C010097E4
:1004C000A105B10589F4842F440F990BC097092E1B
:1004D000000CAA0BBB0B8093090190930A01A09317
:1004E0000B01B0930C0127C0880F991FAA1FBB1FD7
:1004F0008C019D01000F111F221F331F000F111FC0
:10050000221F331F800F911FA21FB31F042E000C48
:10051000550B40535109052E000C660B770B840FC9
:10052000951FA61FB71F8093090190930A01A093FE
:100530000B01B0930C011F910F9108950E94890146
:100540000E94C0010E94530078940E94F001FDCFE8
:100550001F920F920FB60F921124CF92DF92EF925B
:10056000FF922F933F934F935F936F937F938F935C
:100570009F93AF93BF93EF93FF934E9B4EC02091F9
:1005800011013091120140911301509114016091B9
:1005900015017091160180911701909118010E9428
:1005A00084039B01AC0160930D0170930E01809355
:1005B0000F019093100160E070E48CE996E40E94D2
:1005C000F6036B017C0120E030E0A9010E94F103F9
:1005D00088234CF0C0920401D0920501E0920601FC
:1005E000F09207010CC0F7FAF094F7F8F094C0927B
:1005F0000401D0920501E0920601F09207010E94E9
:10060000C90140910401509105016091060170916A
:10061000070180E00E941C014EC0C0900D01D090E7
:100620000E01E0900F01F090100120E030E0A901F0
:10063000C701B6010E9450051816ECF520E030E025
:1006400040E85FE360911101709112018091130104
:10065000909114010E94850360931101709312011F
:100660008093130190931401C701B6010E9468049E
:100670000E94750089E00E946400609104017091FD
:10068000050180910601909107010E9468040E9473
:10069000750089E00E94640060911101709112015F
:1006A00080911301909114010E9468040E947500CA
:1006B0008AE00E946400FF91EF91BF91AF919F91FA
:1006C0008F917F916F915F914F913F912F91FF900B
:1006D000EF90DF90CF900F900FBE0F901F90189566
:1006E0001F920F920FB60F9211240F900FBE0F9012
:1006F0001F9018951F920F920FB60F9211240F9012
:100700000FBE0F901F9018955058BB27AA270E9424
:100710009C030C9416050E94080538F00E940F05F2
:1007200020F039F49F3F19F426F40C9405050EF4DB
:10073000E095E7FB0C94FF04E92F0E94270558F38E
:10074000BA17620773078407950720F079F4A6F5B6
:100750000C9449050EF4E0950B2EBA2FA02D0B0139
:10076000B90190010C01CA01A0011124FF27591BF6
:1007700099F0593F50F4503E68F11A16F040A22FFC
:10078000232F342F4427585FF3CF4695379527956D
:10079000A795F0405395C9F77EF41F16BA0B620B6C
:1007A000730B840BBAF09150A1F0FF0FBB1F661FB3
:1007B000771F881FC2F70EC0BA0F621F731F841FF6
:1007C00048F4879577956795B795F7959E3F08F01C
:1007D000B0CF9395880F08F09927EE0F97958795DE
:1007E00008950E94DB0408F481E008950E940A0441
:1007F0000C9416050E940F0558F00E94080540F061
:1008000029F45F3F29F00C94FF0451110C944A0520
:100810000C9405050E94270568F39923B1F355232D
:1008200091F3951B550BBB27AA2762177307840703
:1008300038F09F5F5F4F220F331F441FAA1FA9F399
:1008400035D00E2E3AF0E0E832D091505040E69587
:10085000001CCAF72BD0FE2F29D0660F771F881FE8
:10086000BB1F261737074807AB07B0E809F0BB0BDB
:10087000802DBF01FF2793585F4F3AF09E3F5105EF
:1008800078F00C94FF040C944A055F3FE4F3983E23
:10089000D4F3869577956795B795F7959F5FC9F7D8
:1008A000880F911D9695879597F90895E1E0660F59
:1008B000771F881FBB1F621773078407BA0720F0D2
:1008C000621B730B840BBA0BEE1F88F7E09508953B
:1008D0000E946F046894B1110C944A0508950E9417
:1008E0002F0588F09F5798F0B92F9927B751B0F08E
:1008F000E1F0660F771F881F991F1AF0BA95C9F7A4
:1009000014C0B13091F00E944905B1E008950C94F3
:100910004905672F782F8827B85F39F0B93FCCF3A6
:10092000869577956795B395D9F73EF49095809520
:10093000709561957F4F8F4F9F4F0895E89409C040
:1009400097FB3EF490958095709561957F4F8F4F02
:100950009F4F9923A9F0F92F96E9BB279395F69518
:10096000879577956795B795F111F8CFFAF4BB0F96
:1009700011F460FF1BC06F5F7F4F8F4F9F4F16C0FA
:10098000882311F096E911C0772321F09EE8872F84
:10099000762F05C0662371F096E8862F70E060E040
:1009A0002AF09A95660F771F881FDAF7880F9695B9
:1009B000879597F90895990F0008550FAA0BE0E85D
:1009C000FEEF16161706E807F907C0F01216130611
:1009D000E407F50798F0621B730B840B950B39F451
:1009E0000A2661F0232B242B252B21F408950A26B7
:1009F00009F4A140A6958FEF811D811D089597F9F7
:100A00009F6780E870E060E008959FEF80EC0895B4
:100A100000240A94161617061806090608950024DD
:100A20000A9412161306140605060895092E039457
:100A3000000C11F4882352F0BB0F40F4BF2B11F4CB
:100A400060FF04C06F5F7F4F8F4F9F4F089557FD2A
:100A50009058440F551F59F05F3F71F04795880F2C
:100A600097FB991F61F09F3F79F0879508951216C3
:100A700013061406551FF2CF4695F1DF08C016166F
:100A800017061806991FF1CF869571056105089420
:100A90000895E894BB2766277727CB0197F9089537
:100AA0000E94DB0408F48FEF08950E9468050C94FF
:100AB00016050E94080538F00E940F0520F09523C6
:100AC00011F00C94FF040C94050511240C944A05B4
:100AD0000E94270570F3959FC1F3950F50E0551FB5
:100AE000629FF001729FBB27F00DB11D639FAA2783
:100AF000F00DB11DAA1F649F6627B00DA11D661FD2
:100B0000829F2227B00DA11D621F739FB00DA11DF2
:100B1000621F839FA00D611D221F749F3327A00DAC
:100B2000611D231F849F600D211D822F762F6A2F48
:100B300011249F5750409AF0F1F088234AF0EE0FAD
:100B4000FF1FBB1F661F771F881F91505040A9F7DA
:100B50009E3F510580F00C94FF040C944A055F3FC2
:100B6000E4F3983ED4F3869577956795B795F79516
:100B7000E7959F5FC1F7FE2B880F911D969587958E
:100B800097F90895052E97FB1EF400940E94D9054D
:100B900057FD07D00E94E10507FC03D04EF40C94EA
:100BA000D90550954095309521953F4F4F4F5F4F58
:100BB000089590958095709561957F4F8F4F9F4FC9
:100BC0000895A1E21A2EAA1BBB1BFD010DC0AA1F8E
:100BD000BB1FEE1FFF1FA217B307E407F50720F0A6
:100BE000A21BB30BE40BF50B661F771F881F991F21
:100BF0001A9469F760957095809590959B01AC016A
:0A0C0000BD01CF010895F894FFCF65
:080C0A0000007A4400007A4466
:00000001FF
