S01100007068797369637333632E737265637A
S11300000C9434000C9451000C9451000C94510045
S11300100C9451000C9451000C9451000C94D6048F
S11300200C9451000C9451000C9451000C94CC0489
S11300300C9451000C9451000C94A1040C945100A4
S11300400C9451000C9451000C9451000C945100E8
S11300500C9451000C9451000C9451000C945100D8
S11300600C9451000C94510011241FBECFEFD8E022
S1130070DEBFCDBF11E0A0E0B1E0E2ECFEE002C0E3
S113008005900D92A431B107D9F721E0A4E1B1E0C4
S113009001C01D92AA32B207E1F70E94F7030C9443
S11300A05F070C9400001092C50080E18093C400A7
S11300B0E0ECF0E080818260808386E08093C2007F
S11300C088E18093C1000895E0ECF0E0908195FF11
S11300D0FDCF8093C60008958091C000881F8827B3
S11300E0881F08958091C60008958F929F92AF92C1
S11300F0BF92CF92DF92EF92FF926B017C01992322
S11301005CF48DE20E946400F094E094D094C09476
S1130110C11CD11CE11CF11C80EAC81686E8D80673
S113012081E0E806F10464F0C701B60120EA36E88C
S113013041E050E00E941E0780E3820F0E946400A9
S113014080E1C81687E2D806E104F104A4F0C701EF
S1130150B60120E137E240E050E00E941E07CA01E8
S1130160B9012AE030E040E050E00E941E0780E33D
S1130170860F0E94640088EEC81683E0D806E10466
S1130180F104A4F0C701B60128EE33E040E050E0EA
S11301900E941E07CA01B9012AE030E040E050E0A5
S11301A00E941E0780E3860F0E94640084E6C8163E
S11301B0D104E104F104A4F0C701B60124E630E05F
S11301C040E050E00E941E07CA01B9012AE030E075
S11301D040E050E00E941E0780E3860F0E94640006
S11301E08AE0C816D104E104F104BCF00F2EFAE051
S11301F08F2E912CA12CB12CF02DC701B601A50195
S113020094010E941E07CA01B901A50194010E942C
S11302101E0780E3860F0E946400C701B6012AE02E
S113022030E040E050E00E941E0780E3860F0E9409
S11302306400FF90EF90DF90CF90BF90AF909F90BD
S11302408F900895811103C065BD47BD0895813025
S113025041F46093810050E05093890040938800FA
S11302600895833021F46093B1004093B30008955E
S1130270CF92DF92EF92FF92CF93C82F6A017B0156
S113028020E030E040E055E4C701B6010E944D058E
S11302908823B4F420E030E040E853E4C701B60119
S11302A00E94B10620E030E040E05AE30E94B1062B
S11302B00E94CB05462F63E08C2F0E9422013FC091
S11302C020E030E040E056E4C701B6010E944D054D
S11302D08823B4F420E030E040E853E4C701B601D9
S11302E00E94B10620E030E040E059E30E94B106EC
S11302F00E94CB05462F64E08C2F0E9422011FC070
S113030020E030E040E057E4C701B6010E944D050B
S11303108823ACF420E030E040E853E4C701B601A0
S11303200E94B10620E030E040E058E30E94B106AC
S11303300E94CB05462F65E08C2F0E942201CF91AD
S1130340FF90EF90DF90CF90089582E484BD15BCB8
S113035016BC9FEF97BD18BC90E49093800099E081
S1130360909381001092850010928400109287006F
S113037010928600109289009EE690938800109255
S11303808B0010928A001092B6008093B00081E036
S11303908093B1001092B20088E78093B30010926A
S11303A0B40082E080936E0080936F0080937000AD
S11303B080E880BF089515B88AE184B918B817B8E1
S11303C01BB880E68AB90895811101C015BC08954F
S11303D08F929F92AF92BF92CF92DF92EF92FF9251
S11303E080901E0190901F01A0902001B0902101E7
S11303F0C0900C01D0900D01E0900E01F0900F011F
S1130400A7019601C501B4010E94AC0618164CF46C
S1130410C0921E01D0921F01E0922001F0922101AE
S113042031C0F7FAF094F7F8F094A7019601C501EA
S1130430B4010E944D0588234CF4C0921E01D09251
S11304401F01E0922001F09221011CC020E030E065
S113045040E85FE3C501B4010E944D05882394F48C
S113046020E030E040E85FEBC501B4010E94AC0637
S1130470181644F410921E0110921F0110922001CC
S113048010922101FF90EF90DF90CF90BF90AF903A
S11304909F908F900895CF92DF92EF92FF92C09039
S11304A01E01D0901F01E0902001F090210120E076
S11304B030E0A901C701B6010E94AC061816ACF4DD
S11304C020910001309101014091020150910301FA
S11304D0C701B6010E94E00460931E0170931F01DE
S11304E080932001909321011DC020E030E0A901F8
S11304F0C701B6010E944D058823A4F42091000190
S1130500309101014091020150910301C701B601EC
S11305100E94E10460931E0170931F0180932001E7
S113052090932101FF90EF90DF90CF900895CF92A8
S1130530DF92EF92FF9220E030E0A90160911E016A
S113054070911F0180912001909121010E94AC06BD
S1130550181614F45D9A01C05D9820911A01309127
S11305601B0140911C0150911D0160911E0170916D
S11305701F0180912001909121010E94E104609368
S11305801E0170931F0180932001909321010E940A
S1130590E80120911E0130911F01409120015091EA
S11305A0210160E070E48CE996E40E9452056B013D
S11305B07C0120E030E0A9010E944D0588234CF025
S11305C0C0921001D0921101E0921201F092130135
S11305D00CC0F7FAF094F7F8F094C0921001D0929E
S11305E01101E0921201F092130140911001509117
S11305F01101609112017091130180E00E94380191
S113060010921901FF90EF90DF90CF900895CF9250
S1130610DF92EF92FF9220912201309123014091C9
S11306202401509125016091260170912701809148
S11306302801909129010E94E00420910401309145
S1130640050140910601509107010E94B1062091D5
S11306501E0130911F0140912001509121010E94FF
S1130660E00460931A0170931B0180931C01909322
S11306701D01C0900801D0900901E0900A01F0909A
S11306800B01A70196010E94AC06181644F4C0920F
S11306901A01D0921B01E0921C01F0921D010E94EC
S11306A09702FF90EF90DF90CF9008950F931F93E0
S11306B00E946C00882309F497C00E947200482F9E
S11306C08A3009F03FC0809114018823E1F08091C1
S11306D0150190911601A0911701B09118019C0188
S11306E0AD0166277727CB01621B730B840B950B37
S11306F00E94FC05609326017093270180932801D2
S11307009093290112C06091150170911601809196
S11307101701909118010E94FC05609326017093C3
S1130720270180932801909329010E9407031092C6
S113073015011092160110921701109218011092CF
S1130740140152C08D3261F41092150110921601F9
S1130750109217011092180181E08093140144C093
S11307608091150190911601A0911701B091180183
S11307700097A105B10589F4842F440F990BC09704
S1130780092E000CAA0BBB0B809315019093160144
S1130790A0931701B093180127C0880F991FAA1FAF
S11307A0BB1F8C019D01000F111F221F331F000F5F
S11307B0111F221F331F800F911FA21FB31F042E6E
S11307C0000C550B40535109052E000C660B770B9A
S11307D0840F951FA61FB71F8093150190931601D0
S11307E0A0931701B09318011F910F9108950E94CF
S11307F0A5010E94DB010E94530078940E945603D5
S1130800FDCFCF92DF92EF92FF9220E030E0A9017A
S113081060911A0170911B0180911C0190911D013E
S11308200E944D05811102C00E944B02C0901E011E
S1130830D0901F01E0902001F090210120E030E0F1
S1130840A901C701B6010E94AC06181664F520E0A0
S113085030E040E85FE360912201709123018091D0
S11308602401909125010E94E10460932201709378
S11308702301809324019093250120912601309136
S1130880270140912801509129010E94AC061816B5
S11308900CF04FC010921A0110921B0110921C010F
S11308A010921D0146C020E030E0A901C701B60145
S11308B00E944D0588235CF520E030E040E85FE3CA
S11308C0609122017091230180912401909125016E
S11308D00E94E00460932201709323018093240119
S11308E09093250120912601309127014091280100
S11308F0509129010E944D058823DCF410921A01BD
S113090010921B0110921C0110921D0112C080E074
S11309100E94E401609122017091230180912401DD
S1130920909125010E94C4050E9475008AE00E94EE
S1130930640081E080931901FF90EF90DF90CF90E5
S113094008951F920F920FB60F9211242F933F9385
S11309504F935F936F937F938F939F93AF93BF93C3
S1130960EF93FF9380911901882319F00E94970255
S113097002C00E940104FF91EF91BF91AF919F913A
S11309808F917F916F915F914F913F912F910F9034
S11309900FBE0F901F9018951F920F920FB60F92D3
S11309A011240F900FBE0F901F9018951F920F9255
S11309B00FB60F9211240F900FBE0F901F90189531
S11309C05058BB27AA270E94F8040C9472060E9470
S11309D0640638F00E946B0620F039F49F3F19F446
S11309E026F40C9461060EF4E095E7FB0C945B0688
S11309F0E92F0E94830658F3BA1762077307840726
S1130A00950720F079F4A6F50C94A5060EF4E0956C
S1130A100B2EBA2FA02D0B01B90190010C01CA01B4
S1130A20A0011124FF27591B99F0593F50F4503E5F
S1130A3068F11A16F040A22F232F342F4427585F51
S1130A40F3CF469537952795A795F0405395C9F769
S1130A507EF41F16BA0B620B730B840BBAF0915021
S1130A60A1F0FF0FBB1F661F771F881FC2F70EC0C0
S1130A70BA0F621F731F841F48F487957795679593
S1130A80B795F7959E3F08F0B0CF9395880F08F07F
S1130A909927EE0F9795879508950E94370608F4D5
S1130AA081E008950E9466050C9472060E946B060C
S1130AB058F00E94640640F029F45F3F29F00C943A
S1130AC05B0651110C94A6060C9461060E948306E1
S1130AD068F39923B1F3552391F3951B550BBB2769
S1130AE0AA2762177307840738F09F5F5F4F220FAE
S1130AF0331F441FAA1FA9F335D00E2E3AF0E0E8A5
S1130B0032D091505040E695001CCAF72BD0FE2FEE
S1130B1029D0660F771F881FBB1F26173707480782
S1130B20AB07B0E809F0BB0B802DBF01FF2793583A
S1130B305F4F3AF09E3F510578F00C945B060C949D
S1130B40A6065F3FE4F3983ED4F3869577956795C0
S1130B50B795F7959F5FC9F7880F911D969587956F
S1130B6097F90895E1E0660F771F881FBB1F62178E
S1130B7073078407BA0720F0621B730B840BBA0B4C
S1130B80EE1F88F7E09508950E94CB056894B11193
S1130B900C94A60608950E948B0688F09F5798F03F
S1130BA0B92F9927B751B0F0E1F0660F771F881F6E
S1130BB0991F1AF0BA95C9F714C0B13091F00E9488
S1130BC0A506B1E008950C94A506672F782F882711
S1130BD0B85F39F0B93FCCF3869577956795B395AF
S1130BE0D9F73EF490958095709561957F4F8F4F1E
S1130BF09F4F0895E89409C097FB3EF49095809523
S1130C00709561957F4F8F4F9F4F9923A9F0F92FCE
S1130C1096E9BB279395F695879577956795B7954C
S1130C20F111F8CFFAF4BB0F11F460FF1BC06F5F32
S1130C307F4F8F4F9F4F16C0882311F096E911C044
S1130C40772321F09EE8872F762F05C0662371F065
S1130C5096E8862F70E060E02AF09A95660F771F79
S1130C60881FDAF7880F9695879597F90895990F55
S1130C700008550FAA0BE0E8FEEF16161706E80762
S1130C80F907C0F012161306E407F50798F0621B83
S1130C90730B840B950B39F40A2661F0232B242B58
S1130CA0252B21F408950A2609F4A140A6958FEF77
S1130CB0811D811D089597F99F6780E870E060E0C9
S1130CC008959FEF80EC089500240A9416161706E1
S1130CD018060906089500240A9412161306140629
S1130CE005060895092E0394000C11F4882352F08C
S1130CF0BB0F40F4BF2B11F460FF04C06F5F7F4F44
S1130D008F4F9F4F089557FD9058440F551F59F02A
S1130D105F3F71F04795880F97FB991F61F09F3FE4
S1130D2079F087950895121613061406551FF2CF0D
S1130D304695F1DF08C0161617061806991FF1CF5D
S1130D4086957105610508940895E894BB27662784
S1130D507727CB0197F908950E94370608F48FEF9F
S1130D6008950E94C4060C9472060E94640638F02A
S1130D700E946B0620F0952311F00C945B060C94F2
S1130D80610611240C94A6060E94830670F3959FB5
S1130D90C1F3950F50E0551F629FF001729FBB276E
S1130DA0F00DB11D639FAA27F00DB11DAA1F649F0A
S1130DB06627B00DA11D661F829F2227B00DA11DBD
S1130DC0621F739FB00DA11D621F839FA00D611D43
S1130DD0221F749F3327A00D611D231F849F600D64
S1130DE0211D822F762F6A2F11249F5750409AF08D
S1130DF0F1F088234AF0EE0FFF1FBB1F661F771F19
S1130E00881F91505040A9F79E3F510580F00C94E3
S1130E105B060C94A6065F3FE4F3983ED4F38695F4
S1130E2077956795B795F795E7959F5FC1F7FE2B83
S1130E30880F911D9695879597F90895052E97FB30
S1130E401EF400940E94350757FD07D00E943D0709
S1130E5007FC03D04EF40C9435075095409530951B
S1130E6021953F4F4F4F5F4F089590958095709512
S1130E7061957F4F8F4F9F4F0895A1E21A2EAA1BB1
S1130E80BB1BFD010DC0AA1FBB1FEE1FFF1FA21736
S1130E90B307E407F50720F0A21BB30BE40BF50B33
S1130EA0661F771F881F991F1A9469F760957095BC
S1130EB0809590959B01AC01BD01CF010895F894F4
S1050EC0FFCF5E
S1130EC2CDCCCC3DCDCCCC3D0000A0400000A04117
S1070ED200007A445A
S9030000FC
