:100000000C9434000C9451000C9451000C94510049
:100010000C9451000C9451000C9451000C94F50375
:100020000C9451000C9451000C9451000C94EB036F
:100030000C9451000C9451000C94F7020C94510054
:100040000C9451000C9451000C9451000C945100EC
:100050000C9451000C9451000C9451000C945100DC
:100060000C9451000C94510011241FBECFEFD8E026
:10007000DEBFCDBF11E0A0E0B1E0E0E0FDE002C0F6
:1000800005900D92A031B107D9F721E0A0E1B1E0D0
:1000900001C01D92A532B207E1F70E94ED020C9457
:1000A0007E060C9400001092C50080E18093C4008D
:1000B000E0ECF0E080818260808386E08093C20083
:1000C00088E18093C1000895E0ECF0E0908195FF15
:1000D000FDCF8093C60008958091C000881F8827B7
:1000E000881F08958091C60008958F929F92AF92C5
:1000F000BF92CF92DF92EF92FF926B017C01992326
:100100005CF48DE20E946400F094E094D094C0947A
:10011000C11CD11CE11CF11C80E1C81687E2D80685
:10012000E104F10464F0C701B60120E137E240E0E8
:1001300050E00E943D0680E3820F0E94640088EE3A
:10014000C81683E0D806E104F104A4F0C701B601A3
:1001500028EE33E040E050E00E943D06CA01B901BC
:100160002AE030E040E050E00E943D0680E3860F48
:100170000E94640084E6C816D104E104F104A4F0EE
:10018000C701B60124E630E040E050E00E943D06A1
:10019000CA01B9012AE030E040E050E00E943D068B
:1001A00080E3860F0E9464008AE0C816D104E1044F
:1001B000F104BCF00F2EFAE08F2E912CA12CB12C63
:1001C000F02DC701B601A50194010E943D06CA01A8
:1001D000B901A50194010E943D0680E3860F0E94AB
:1001E0006400C701B6012AE030E040E050E00E9420
:1001F0003D0680E3860F0E946400FF90EF90DF9041
:10020000CF90BF90AF909F908F900895811103C0C1
:1002100065BD47BD0895813041F46093810050E091
:1002200050938900409388000895833021F46093AF
:10023000B1004093B3000895CF92DF92EF92FF9206
:10024000CF93C82F6A017B0120E030E040E055E405
:10025000C701B6010E946C048823B4F420E030E0AA
:1002600040E853E4C701B6010E94D00520E030E029
:1002700040E05AE30E94D0050E94EA04462F63E062
:100280008C2F0E9406013FC020E030E040E056E4A1
:10029000C701B6010E946C048823B4F420E030E06A
:1002A00040E853E4C701B6010E94D00520E030E0E9
:1002B00040E059E30E94D0050E94EA04462F64E022
:1002C0008C2F0E9406011FC020E030E040E057E480
:1002D000C701B6010E946C048823ACF420E030E032
:1002E00040E853E4C701B6010E94D00520E030E0A9
:1002F00040E058E30E94D0050E94EA04462F65E0E2
:100300008C2F0E940601CF91FF90EF90DF90CF904D
:10031000089582E484BD95E095BD16BC9FEF97BD1E
:1003200018BC90E49093800099E090938100109223
:10033000850010928400109287001092860010921F
:1003400089009EE69093880010928B0010928A009C
:100350001092B6008093B00081E08093B1001092BB
:10036000B20088E78093B3001092B40082E08093DB
:100370006E0080936F008093700080E880BF0895C6
:1003800015B88AE184B918B817B81BB880E48AB9DF
:100390000895CF92DF92EF92FF92C0900801D09023
:1003A0000901E0900A01F0900B01A701960160910C
:1003B000190170911A0180911B0190911C010E94FA
:1003C000CB05181644F4C0921901D0921A01E0929C
:1003D0001B01F0921C01FF90EF90DF90CF900895E9
:1003E000CF92DF92EF92FF9220911D0130911E017A
:1003F00040911F01509120016091210170912201D3
:1004000080912301909124010E94FF03209100011B
:100410003091010140910201509103010E94D005E9
:100420002091190130911A0140911B0150911C013A
:100430000E94FF03609315017093160180931701CA
:1004400090931801C0900401D0900501E09006013E
:10045000F0900701A70196010E94CB05181644F4FD
:10046000C0921501D0921601E0921701F092180186
:10047000FF90EF90DF90CF9008950F931F930E940D
:100480006C00882309F4A6C00E947200482F8A30AD
:1004900009F04EC0809110018823E1F08091110194
:1004A00090911201A0911301B09114019C01AD0132
:1004B00066277727CB01621B730B840B950B0E9479
:1004C0001B05609321017093220180932301909377
:1004D000240112C0609111017091120180911301E9
:1004E000909114010E941B056093210170932201D9
:1004F00080932301909324010E94F00160912101D7
:100500007091220180912301909124010E94E304C3
:100510000E9475008AE00E946400109211011092FE
:10052000120110921301109214011092100152C086
:100530008D3261F410921101109212011092130188
:100540001092140181E08093100144C08091110148
:1005500090911201A0911301B09114010097A1058F
:10056000B10589F4842F440F990BC097092E000C14
:10057000AA0BBB0B8093110190931201A09313015E
:10058000B093140127C0880F991FAA1FBB1F8C01AD
:100590009D01000F111F221F331F000F111F221F6B
:1005A000331F800F911FA21FB31F042E000C550B89
:1005B00040535109052E000C660B770B840F951FD5
:1005C000A61FB71F8093110190931201A0931301EE
:1005D000B09314011F910F9108950E9489010E9408
:1005E000C0010E94530078940E943D02FDCF1F92EB
:1005F0000F920FB60F921124CF92DF92EF92FF92DB
:100600002F933F934F935F936F937F938F939F931A
:10061000AF93BF93EF93FF934E9B54C0209115016E
:100620003091160140911701509118016091190104
:1006300070911A0180911B0190911C010E9400048D
:100640006093190170931A0180931B0190931C0110
:100650000E94C9012091190130911A0140911B019A
:1006600050911C0160E070E48CE996E40E947104F2
:100670006B017C0120E030E0A9010E946C0488231A
:100680004CF0C0920C01D0920D01E0920E01F0925C
:100690000F010CC0F7FAF094F7F8F094C0920C0137
:1006A000D0920D01E0920E01F0920F0140910C01E9
:1006B00050910D0160910E0170910F0180E00E9438
:1006C0001C0174C0C0901901D0901A01E0901B0168
:1006D000F0901C0120E030E0A901C701B6010E94A2
:1006E000CB0518160CF062C020E030E040E85FE374
:1006F00060911D0170911E0180911F019091200158
:100700000E94000460931D0170931E0180931F01DD
:1007100090932001209121013091220140912301E9
:10072000509124010E94CB051816CCF4809104014D
:1007300090910501A0910601B0910701BC01CD0186
:10074000905820E030E040E85EE30E94D0056093DE
:100750001501709316018093170190931801C7013A
:10076000B6010E94E3040E94750089E00E946400C3
:1007700060910C0170910D0180910E0190910F011B
:100780000E94E3040E94750089E00E946400609169
:100790001D0170911E0180911F01909120010E9406
:1007A000E3040E9475008AE00E946400FF91EF91CB
:1007B000BF91AF919F918F917F916F915F914F9179
:1007C0003F912F91FF90EF90DF90CF900F900FBE51
:1007D0000F901F9018951F920F920FB60F92112431
:1007E0000F900FBE0F901F9018951F920F920FB68B
:1007F0000F9211240F900FBE0F901F901895505814
:10080000BB27AA270E9417040C9491050E94830518
:1008100038F00E948A0520F039F49F3F19F426F43D
:100820000C9480050EF4E095E7FB0C947A05E92F13
:100830000E94A20558F3BA17620773078407950749
:1008400020F079F4A6F50C94C4050EF4E0950B2E77
:10085000BA2FA02D0B01B90190010C01CA01A00112
:100860001124FF27591B99F0593F50F4503E68F16D
:100870001A16F040A22F232F342F4427585FF3CFAE
:10088000469537952795A795F0405395C9F77EF47F
:100890001F16BA0B620B730B840BBAF09150A1F0C8
:1008A000FF0FBB1F661F771F881FC2F70EC0BA0F4E
:1008B000621F731F841F48F4879577956795B795D6
:1008C000F7959E3F08F0B0CF9395880F08F09927D1
:1008D000EE0F9795879508950E94560508F481E0DC
:1008E00008950E9485040C9491050E948A0558F091
:1008F0000E94830540F029F45F3F29F00C947A05AB
:1009000051110C94C5050C9480050E94A20568F352
:100910009923B1F3552391F3951B550BBB27AA27B8
:1009200062177307840738F09F5F5F4F220F331FF2
:10093000441FAA1FA9F335D00E2E3AF0E0E832D0BA
:1009400091505040E695001CCAF72BD0FE2F29D0BD
:10095000660F771F881FBB1F261737074807AB078F
:10096000B0E809F0BB0B802DBF01FF2793585F4F04
:100970003AF09E3F510578F00C947A050C94C50529
:100980005F3FE4F3983ED4F3869577956795B795E6
:10099000F7959F5FC9F7880F911D9695879597F9F1
:1009A0000895E1E0660F771F881FBB1F621773076A
:1009B0008407BA0720F0621B730B840BBA0BEE1F7F
:1009C00088F7E09508950E94EA046894B1110C94A8
:1009D000C50508950E94AA0588F09F5798F0B92F81
:1009E0009927B751B0F0E1F0660F771F881F991F64
:1009F0001AF0BA95C9F714C0B13091F00E94C4053D
:100A0000B1E008950C94C405672F782F8827B85F4C
:100A100039F0B93FCCF3869577956795B395D9F7BB
:100A20003EF490958095709561957F4F8F4F9F4FC5
:100A30000895E89409C097FB3EF4909580957095D1
:100A400061957F4F8F4F9F4F9923A9F0F92F96E91A
:100A5000BB279395F695879577956795B795F1118F
:100A6000F8CFFAF4BB0F11F460FF1BC06F5F7F4F2C
:100A70008F4F9F4F16C0882311F096E911C077233E
:100A800021F09EE8872F762F05C0662371F096E847
:100A9000862F70E060E02AF09A95660F771F881F16
:100AA000DAF7880F9695879597F90895990F0008BA
:100AB000550FAA0BE0E8FEEF16161706E807F90730
:100AC000C0F012161306E407F50798F0621B730BCB
:100AD000840B950B39F40A2661F0232B242B252B4C
:100AE00021F408950A2609F4A140A6958FEF811DEF
:100AF000811D089597F99F6780E870E060E0089590
:100B00009FEF80EC089500240A9416161706180625
:100B10000906089500240A94121613061406050601
:100B20000895092E0394000C11F4882352F0BB0F92
:100B300040F4BF2B11F460FF04C06F5F7F4F8F4FF5
:100B40009F4F089557FD9058440F551F59F05F3F30
:100B500071F04795880F97FB991F61F09F3F79F0DF
:100B600087950895121613061406551FF2CF469561
:100B7000F1DF08C0161617061806991FF1CF8695E3
:100B80007105610508940895E894BB2766277727C7
:100B9000CB0197F908950E94560508F48FEF089548
:100BA0000E94E3050C9491050E94830538F00E9491
:100BB0008A0520F0952311F00C947A050C94800599
:100BC00011240C94C5050E94A20570F3959FC1F3F2
:100BD000950F50E0551F629FF001729FBB27F00DEB
:100BE000B11D639FAA27F00DB11DAA1F649F662740
:100BF000B00DA11D661F829F2227B00DA11D621F8F
:100C0000739FB00DA11D621F839FA00D611D221F48
:100C1000749F3327A00D611D231F849F600D211D2C
:100C2000822F762F6A2F11249F5750409AF0F1F0AF
:100C300088234AF0EE0FFF1FBB1F661F771F881F18
:100C400091505040A9F79E3F510580F00C947A05D1
:100C50000C94C5055F3FE4F3983ED4F386957795F1
:100C60006795B795F795E7959F5FC1F7FE2B880FBE
:100C7000911D9695879597F90895052E97FB1EF47B
:100C800000940E94540657FD07D00E945C0607FCA2
:100C900003D04EF40C945406509540953095219510
:100CA0003F4F4F4F5F4F0895909580957095619598
:100CB0007F4F8F4F9F4F0895A1E21A2EAA1BBB1B97
:100CC000FD010DC0AA1FBB1FEE1FFF1FA217B30718
:100CD000E407F50720F0A21BB30BE40BF50B661F2E
:100CE000771F881F991F1A9469F7609570958095F2
:100CF00090959B01AC01BD01CF010895F894FFCF01
:100D00000AD7233C0000803F0000A04100007A4445
:00000001FF
