:10000000FAC0000026C1000024C1000022C1000087
:1000100020C100001EC100001CC100001AC1000068
:1000200018C1000016C1000014C1000012C1000078
:1000300010C100000EC100000CC100000AC1000088
:1000400008C1000006C1000004C1000002C1000098
:1000500000C10000FEC00000FCC0000055C400004C
:10006000F8C0000028C40000FDC30000F2C000007A
:10007000F0C00000EEC00000ECC00000EAC00000CC
:10008000E8C00000E6C00000E4C00000E2C00000DC
:10009000C0C3000095C30000DCC00000DAC000004F
:1000A000D8C00000D6C00000D4C00000D2C00000FC
:1000B000D0C00000CEC00000CCC00000CAC000000C
:1000C000C8C00000C6C00000C4C00000C2C000001C
:1000D000C0C00000BEC00000BCC00000BAC000002C
:1000E000B8C00000BD02C002AF02B302B702F702FF
:1000F000C402C802CE02D202D602DC02E002E4024E
:10010000F702EA02EE02F2020000200023002600BD
:1001100029002C002F00320000010000030106011D
:10012000090105050505070508080808020202027D
:100130000A0A080804040404010101010101010183
:100140000303030303030303040707070C0C0C0C4E
:100150000C0C0C0C02020202060606060606060637
:100160000B0B0B0B0B0B0B0B0102102020080810C4
:100170002040102040800201020108040201010217
:1001800004081020408080402010080402018004F0
:10019000020180402010080402010804020101024B
:1001A0000408102040800102040810204080000054
:1001B0000A0B02090C0D0E080703040100000000E1
:1001C000000000000000000000000000000000002F
:1001D00000000000000000000000121110000000EC
:1001E000000000000000000000000000000000000F
:1001F00000000000CE0411241FBECFEFD1E2DEBF0D
:10020000CDBF00E00CBF16E0A0E0B2E0E2E9FCE008
:1002100000E00BBF02C007900D92A830B107D9F7DC
:1002200027E0A8E0B6E001C01D92A035B207E1F7D3
:1002300010E0CBEFD0E000E005C021970109802F4E
:10024000FE0119D5CA3FD10780E00807B1F7F9D3FD
:100250001EC5D6CEFC01A089B18982E08C93A4850D
:10026000B5851C92A685B78580E18C93108EA489F4
:10027000B58986E08C93A289B3898C9180618C9337
:10028000A289B3898C9188608C93A289B3898C915F
:1002900080688C930288F389E02D80818F7D808334
:1002A0000895CF92DF92EF92FF920F931F93CF9317
:1002B000DF936C017A018B01C0E0D0E0CE15DF0541
:1002C00089F0D8016D918D01D601ED91FC910190DD
:1002D000F081E02DC6011995892B11F47E0102C031
:1002E0002196ECCFC701DF91CF911F910F91FF9025
:1002F000EF90DF90CF900895FC01A089B1898C9197
:10030000A689B78982FD0FC09C91818D8F5F8F7305
:10031000228D821749F0218DDF01A20FB11D5D965C
:100320009C93818F08958C910895FC01918D828D0D
:10033000981761F0828DDF01A80FB11D5D968C9139
:10034000928D9F5F9F73928F90E008958FEF9FEF44
:100350000895FC01918D828D981731F0828DE80F00
:10036000F11D858D90E008958FEF9FEF0895FC01BA
:10037000918D228D892F90E0805C9F4F821B910987
:100380008F739927089586E196E0F1DF21E0892BAC
:1003900009F420E0822F089583EB96E0E8DF21E066
:1003A000892B09F420E0822F0895FC01848DDF0160
:1003B000A80FB11DA35ABF4F2C91848D90E00196D8
:1003C0008F739927848FA689B7892C93A089B189C7
:1003D0008C9180648C93938D848D981306C00288D1
:1003E000F389E02D80818F7D80830895EF92FF92C5
:1003F0000F931F93CF93DF93EC0181E0888F9B8D48
:100400008C8D981305C0E889F989808185FD23C00A
:10041000F62E0B8D10E00F5F1F4F0F731127E02E8C
:100420008C8DE8120BC00FB607FCFACFE889F9896A
:10043000808185FFF5CFCE01B8DFF2CF8B8DFE0135
:10044000E80FF11DE35AFF4FF0820B8FEA89FB8919
:100450008081806207C0EE89FF896083E889F9891D
:1004600080818064808381E090E0DF91CF911F9153
:100470000F91FF90EF900895CF93DF93EC01888D5B
:100480008823C1F0EA89FB89808185FD05C0A889A0
:10049000B9898C9186FD0EC00FB607FCF5CF80811F
:1004A00085FFF2CFA889B9898C9185FFEDCFCE0168
:1004B0007CDFE8CFDF91CF91089580E090E0892B39
:1004C00019F06ADF811120C080E090E0892B19F0DB
:1004D0005ADF81111CC080E090E0892B41F080E060
:1004E00090E0892B21F00E940000811113C080E070
:1004F00090E0892BA1F080E090E0892B81F00E94B0
:10050000000081110AC008950E940000DDCF0E9402
:100510000000E1CF0E940000EACF0C940000089593
:1005200090E0FC01E255FE4F4491FC01E859FE4F7A
:100530002491FC01EE5DFE4F9491992309F466C06D
:10054000442309F454C050E0FA013197E231F10537
:1005500008F04DC08827EE58FF4F8F4F8CC3809115
:1005600080008F7707C0809180008F7D03C08091CD
:100570008000877F809380003AC084B58F7702C067
:1005800084B58F7D84BD33C08091B0008F7703C068
:100590008091B0008F7D8093B00029C08091900041
:1005A0008F7707C0809190008F7D03C0809190006D
:1005B000877F809390001BC08091A0008F7707C039
:1005C0008091A0008F7D03C08091A000877F8093E1
:1005D000A0000DC0809120018F7707C0809120017D
:1005E0008F7D03C080912001877F80932001E92FB8
:1005F000F0E0EE0FFF1FE85FFE4FA591B491EC9184
:100600002E2381E090E021F480E0089580E090E0E6
:1006100008952FB7F89460910E0670910F0680919F
:100620001006909111062FBF0895CF9382E078DFD6
:10063000C1E0892B11F4C0E021C08091080681112E
:100640001DC083E06DDF409112065091130660914A
:10065000140670911506892B29F04F5F5F4F6F4F7D
:100660007F4F04C04150510961097109409312063E
:10067000509313066093140670931506C0930806F2
:10068000CF91089500D36115710579F0FB010190B8
:100690000020E9F73197AF01461B570BDC01ED91C4
:1006A000FC910280F381E02D199480E090E00895A0
:1006B0004F925F926F927F92EF92FF920F931F93F0
:1006C000CF93DF93CDB7DEB7A1970FB6F894DEBF17
:1006D0000FBECDBF7C01FA01CB0119A2223008F474
:1006E0002AE08E010F5D1F4F422E512C612C712C80
:1006F000BF01A30192019DD2F901CA010150110964
:100700006A3014F4605D01C0695CD8016C93232BDE
:10071000242B252B69F7B801C701B5DFA1960FB6C9
:10072000F894DEBF0FBECDBFDF91CF911F910F9127
:10073000FF90EF907F906F905F904F900895CF92D1
:10074000DF92EF92FF920F931F93CF93DF93EC0111
:100750006A017B01E881F9810190F081E02D6DE271
:1007600019958C0144275527BA014C195D096E096A
:100770007F092AE0CE019CDF800F911FDF91CF918E
:100780001F910F91FF90EF90DF90CF900895CF933E
:10079000DF93AB01BC0177FF04C083EB96E0CFDFB2
:1007A00004C02AE083EB96E083DFEC0162E076E0B0
:1007B00083EB96E068DF8C0F9D1FDF91CF9108954A
:1007C0001F920F920FB60F9211240BB60F922F9318
:1007D0003F934F935F936F937F938F939F93AF93C9
:1007E000BF93EF93FF9386E196E0DFDDFF91EF91FA
:1007F000BF91AF919F918F917F916F915F914F9139
:100800003F912F910F900BBE0F900FBE0F901F9036
:1008100018951F920F920FB60F9211240BB60F92DC
:100820002F933F934F935F936F937F938F939F93F8
:10083000AF93BF93EF93FF9386E196E05DDDFF9169
:10084000EF91BF91AF919F918F917F916F915F9148
:100850004F913F912F910F900BBE0F900FBE0F90B5
:100860001F9018951F920F920FB60F9211240BB67E
:100870000F922F933F934F935F936F937F938F9339
:100880009F93AF93BF93EF93FF9383EB96E08DDD40
:10089000FF91EF91BF91AF919F918F917F916F9158
:1008A0005F914F913F912F910F900BBE0F900FBE14
:1008B0000F901F9018951F920F920FB60F92112450
:1008C0000BB60F922F933F934F935F936F937F934A
:1008D0008F939F93AF93BF93EF93FF9383EB96E038
:1008E0000BDDFF91EF91BF91AF919F918F917F9120
:1008F0006F915F914F913F912F910F900BBE0F9091
:100900000FBE0F901F9018951F920F920FB60F9267
:1009100011242F933F938F939F93AF93BF93809115
:100920000E0690910F06A0911006B091110630911D
:100930000D0623E0230F2D3720F40196A11DB11DD4
:1009400005C026E8230F0296A11DB11D20930D06B8
:1009500080930E0690930F06A0931006B093110695
:100960008091090690910A06A0910B06B0910C06A1
:100970000196A11DB11D8093090690930A06A093CC
:100980000B06B0930C06BF91AF919F918F913F9151
:100990002F910F900FBE0F901F901895E6E1F6E093
:1009A0001382128248EE53E060E070E04483558386
:1009B0006683778386EF95E0918380832DEC30E02A
:1009C000358724872CEC30E03787268728EC30E009
:1009D000318B208B29EC30E0338B228B2AEC30E0FA
:1009E000358B248B2EEC30E0378B268B118E128EBC
:1009F000138E148EE3EBF6E0138212824483558348
:100A0000668377839183808385EC90E095878487E4
:100A100084EC90E09787868780EC90E0918B808BC8
:100A200081EC90E0938B828B82EC90E0958B848BB1
:100A300086EC90E0978B868B118E128E138E148E1F
:100A40000895789484B5826084BD84B5816084BD46
:100A500085B5826085BD85B5816085BD80916E005C
:100A6000816080936E00109281008091810082608D
:100A700080938100809181008160809381008091CA
:100A800080008160809380008091B10084608093B9
:100A9000B1008091B00081608093B000809191009E
:100AA0008260809391008091910081608093910099
:100AB000809190008160809390008091A10082607D
:100AC0008093A1008091A10081608093A10080911A
:100AD000A00081608093A0008091210182608093BA
:100AE0002101809121018160809321018091200169
:100AF00081608093200180917A00846080937A00E5
:100B000080917A00826080937A0080917A0081607F
:100B100080937A0080917A00806880937A001092A6
:100B2000C10083EB96E096DB86E196E093DB83EBF6
:100B300096E01DDC892BD9F3C12CD12C760183EBF7
:100B400096E015DC892BF1F470DD63DD6C157D0515
:100B50008E059F05A0F365E076E083EB96E093DDDC
:100B600060911206709113068091140690911506FB
:100B70000EDE4FDD6B017C012AE0C20ED11CE11CB0
:100B8000F11CDDCF83EB96E0F2DB892B21F083EBC8
:100B900096E0CBDBF7CFC0E0D2E03BDD4B015C0160
:100BA0002AE0820E911CA11CB11CC990D9900D2C79
:100BB000000CEE08FF08F7FE06C0B701A60183EBA4
:100BC00096E0BDDD06C02AE0B701A60183EB96E002
:100BD0006FDD65E076E083EB96E055DD609112060F
:100BE000709113068091140690911506D0DDF7FEE2
:100BF00006C0B701A60186E196E0A1DD06C02AE0A5
:100C0000B701A60186E196E053DD63E076E086E178
:100C100096E039DDFEDC681579058A059B0510F440
:100C200004DDF8CF85E0C032D80709F0B6CF45DC47
:100C300083CFA1E21A2EAA1BBB1BFD010DC0AA1F68
:100C4000BB1FEE1FFF1FA217B307E407F50720F035
:100C5000A21BB30BE40BF50B661F771F881F991FB0
:100C60001A9469F760957095809590959B01AC01F9
:100C7000BD01CF010895EE0FFF1F881F8BBF0790A6
:100C8000F691E02D199481E090E0F89400C0F8947A
:020C9000FFCF94
:100C92000100040009001000190023002D00370094
:100CA20041004B0055005F00690073007D00870022
:100CB20091009B00A500AF00B900C300CD00D70092
:100CC200E100EB00F500FF00090113011D012701FE
:100CD20031013B0145014F01590163016D0177016A
:100CE20081018B0195019F01A901B301BD01C701DA
:100CF200D101DB01E501EF01F90103020D02170247
:100D020021022B0235023F02490253025D026702B1
:100D120071027B0285028F029902A302AD02B70221
:100D2200C102CB02D502DF02E902F302FD02070390
:100D320011031B0325032F03390343034D035703F9
:100D420061036B0375037F03890393039D03A70369
:100D5200B103BB03C503CE03D603DE03E603ED03F3
:100D6200F303F903FF03040408040C04100413043E
:100D72001504170419041A041A041A041A0419048B
:100D820017041504130410040C0408040404FF03DC
:100D9200FA03F503F003EB03E603E103DC03D703F5
:100DA200D203CD03C803C303BE03B903B403AF0325
:100DB200AA03A503A0039C03970393038E038A034C
:100DC200860382037E037A037703730370036C0343
:100DD20069036603630360035D035A035703550304
:100DE200520350034D034B03490347034503430397
:100DF200420340033F033D033C033B033A033903F1
:100E0200380337033603360335033503340334031B
:100E12003403340334033403340334033403340318
:100E22003403340334033403340334033403340308
:100E320034033403340334033403340334033403F8
:100E420034033403340334033403350337033A03DE
:100E52003E03430349035003580361036B037503C5
:100E62007F03890393039D03A703B103BB03C50358
:100E7200CF03D903E303EC03F403FB0301040604E9
:100E82000A040D040F04100410040F040D040A04D4
:100E920006040104FB03F403EC03E403DC03D403C0
:100EA200CC03C403BC03B403AC03A4039C039403A8
:100EB2008C0384037C0374036C0364035C03540398
:100EC2004C0344033C0334032C0324031C03140388
:100ED2000C030403FC02F402EC02E402DC02D4027E
:100EE200CC02C402BC02B402AC02A4029C02940270
:100EF2008C0284027C0274026C0264025C02540260
:100F02004D02470242023E023B02390238023802D7
:100F120038023802390239023A023A023B023C02F2
:100F22003D023E023F0240024102430244024602A7
:100F3200470249024B024D024F025102540256022D
:100F420059025B025E026102640267026A026D027A
:100F520070027302760279027C027F0282028502AB
:100F620088028B028E029102940297029A029D02DB
:100F7200A002A302A602A902AC02AF02B202B5020B
:100F8200B702B802B802B702B502B202AE02A902B3
:100F9200A3029C0294028B02810277026D02630219
:100FA20059024F0245023B02310227021D0213027F
:100FB2000902FF01F501EB01E101D701CD01C301F6
:100FC200B901AF01A5019B01910187017D01730167
:100FD20069015F0155014B01410137012D012301D7
:100FE20019010F010501FB00F100E700DD00D3004C
:100FF200C900BF00B500AB00A10097008D008300BF
:101002007A0072006B00650060005C0058005500B9
:10101200520050004E004D004C004B004A00490067
:10102200480047004600450044004300420041009A
:1010320040003F003E003D003C003B003A003900CA
:10104200380036003400320030002E002C002A0016
:10105200280026002400220020001E001C001A0086
:10106200180016001400120010000E000C000A00F6
:101072000800060004000300000000000000000059
:10108200000000000000F6015101B7019501A9011D
:081092003C020D0A00090000F8
:00000001FF
