:1000000073C000009FC000009DC000009BC00000A6
:1000100099C0000097C0000095C0000093C0000088
:1000200091C000008FC000008DC000008BC0000098
:1000300089C0000087C0000085C0000083C00000A8
:1000400081C000007FC000007DC000007BC00000B8
:1000500079C0000077C0000075C000000EC300002A
:1000600071C00000D4C20000A9C200006BC0000033
:1000700069C0000067C0000065C0000063C00000E8
:1000800061C000005FC000005DC000005BC00000F8
:1000900059C0000057C0000055C0000053C0000008
:1000A00051C000004FC000004DC000004BC0000018
:1000B00049C0000047C0000045C0000043C0000028
:1000C00041C000003FC000003DC000003BC0000038
:1000D00039C0000037C0000035C0000033C0000048
:1000E00031C000008703550511241FBECFEFD1E2B8
:1000F000DEBFCDBF00E00CBF12E0A0E0B2E0EAE658
:10010000F0E100E00BBF02C007900D92AE31B107E5
:10011000D9F722E0AEE1B2E001C01D92AA3DB207DC
:10012000E1F710E0C3E7D0E000E005C02197010946
:10013000802FFE0108D5C237D10780E00807B1F74C
:1001400020D382C75DCFCF92DF92EF92FF920F93C1
:100150001F93CF93DF936C017A018B01C0E0D0E055
:10016000CE15DF0589F0D8016D918D01D601ED9195
:10017000FC910190F081E02DC6011995892B11F4B5
:100180007E0102C02196ECCFC701DF91CF911F9174
:100190000F91FF90EF90DF90CF900895FC01918D2B
:1001A000828D981761F0828DDF01A80FB11D5D96D9
:1001B0008C91928D9F5F9F73928F90E008958FEF47
:1001C0009FEF0895FC01918D828D981731F0828DFB
:1001D000E80FF11D858D90E008958FEF9FEF089552
:1001E000FC01918D228D892F90E0805C9F4F821BB6
:1001F00091098F739927089583E392E0F1DF21E05D
:10020000892B09F420E0822F0895FC01848DDF0101
:10021000A80FB11DA35ABF4F2C91848D90E0019679
:100220008F739927848FA689B7892C93A089B18968
:100230008C9180648C93938D848D981306C0028872
:10024000F389E02D80818F7D80830895EF92FF9266
:100250000F931F93CF93DF93EC0181E0888F9B8DE9
:100260008C8D981305C0E889F989808185FD23C0AC
:10027000F62E0B8D10E00F5F1F4F0F731127E02E2E
:100280008C8DE8120BC00FB607FCFACFE889F9890C
:10029000808185FFF5CFCE01B8DFF2CF8B8DFE01D7
:1002A000E80FF11DE35AFF4FF0820B8FEA89FB89BB
:1002B0008081806207C0EE89FF896083E889F989BF
:1002C00080818064808381E090E0DF91CF911F91F5
:1002D0000F91FF90EF900895CF93DF93EC01888DFD
:1002E0008823C1F0EA89FB89808185FD05C0A88942
:1002F000B9898C9186FD0EC00FB607FCF5CF8081C1
:1003000085FFF2CFA889B9898C9185FFEDCFCE0109
:100310007CDFE8CFDF91CF910895009761F0FC0179
:1003200001900020E9F73197AF01481B590BBC0140
:1003300083E392E008CF80E090E008958F929F924F
:10034000AF92BF920F931F93CF93DF93CDB7DEB7DA
:10035000A1970FB6F894DEBF0FBECDBF19A24230F1
:1003600008F44AE08E010F5D1F4F842E912CA12CC2
:10037000B12CA5019401B1D3E62FB901CA010150F6
:100380001109EA3014F4E05D01C0E95CD801EC9396
:10039000232B242B252B69F7C801BFDFA1960FB6AD
:1003A000F894DEBF0FBECDBFDF91CF911F910F91AB
:1003B000BF90AF909F908F900895CF92DF92EF9271
:1003C000FF92CF93DF936B017C01E0913302F091B8
:1003D00034020190F081E02D6DE283E392E0199503
:1003E000EC0166277727CB016C197D098E099F09DF
:1003F0004AE0A4DF8C0F9D1FDF91CF91FF90EF901B
:10040000DF90CF900895B8D50F931F93CF93DF93CC
:10041000EC0188819981009729F02A813B81261778
:10042000370780F48B016F5F7F4FC2D4009761F074
:10043000998388831B830A832C813D81232B11F4AC
:10044000FC01108281E001C080E0DF91CF911F911B
:100450000F910895EF92FF920F931F93CF93DF9325
:10046000EC017B018A01BA01CFDF2881398181113A
:100470000CC02115310511F0C90102D4198218826E
:100480001D821C821B821A8205C01D830C83B7014A
:10049000C9017FD5CE01DF91CF911F910F91FF90C0
:1004A000EF900895FF920F931F93CF93DF931F92C6
:1004B0001F92CDB7DEB783E392E092DE892B09F479
:1004C00042C083E392E06ADEF82E89831A820091AB
:1004D000D4021091D5020F5F1F4FB80180ED92E05A
:1004E00093DF882391F02091D0023091D102809146
:1004F000D4029091D502BE016F5F7F4F820F931F90
:1005000048D51093D5020093D4028AE0F812D3CFD5
:100510008091D0029091D102009711F041D503C093
:1005200060E070E0CB0160932B0270932C0280930B
:100530002D0290932E0240E050E069E172E080EDE0
:1005400092E088DFB8CF0F900F90DF91CF911F918D
:100550000F91FF90089550DE811125C080E090E05A
:10056000892B41F080E090E0892B21F00E9400006F
:1005700081111BC080E090E0892B41F080E090E089
:10058000892B21F00E940000811112C080E090E0D0
:10059000892B99F080E090E0892B79F00E9400008F
:1005A000811109C008957EDFD9CF0E940000E2CFFB
:1005B0000E940000EBCF0C94000008951F920F9250
:1005C0000FB60F9211240BB60F922F933F934F93B8
:1005D0005F936F937F938F939F93AF93BF93EF93AB
:1005E000FF9383E392E011DEFF91EF91BF91AF9112
:1005F0009F918F917F916F915F914F913F912F913B
:100600000F900BBE0F900FBE0F901F9018951F926A
:100610000F920FB60F9211240BB60F922F938F9358
:100620009F93EF93FF93E0914302F0914402808106
:10063000E0914902F0914A0282FD12C090818091BE
:100640004C028F5F8F7320914D02821751F0E09121
:100650004C02F0E0ED5CFD4F958F80934C0201C0A1
:100660008081FF91EF919F918F912F910F900BBE01
:100670000F900FBE0F901F9018951F920F920FB6FC
:100680000F9211242F933F938F939F93AF93BF9318
:100690008091230290912402A0912502B09126021C
:1006A0003091220223E0230F2D3720F40196A11D63
:1006B000B11D05C026E8230F0296A11DB11D209390
:1006C00022028093230290932402A0932502B093E8
:1006D000260280911E0290911F02A0912002B091EB
:1006E00021020196A11DB11D80931E0290931F024D
:1006F000A0932002B0932102BF91AF919F918F915F
:100700003F912F910F900FBE0F901F901895E3E32C
:10071000F2E01382128288EE93E0A0E0B0E08483DE
:100720009583A683B7838CE092E09183808385ECE8
:1007300090E09587848784EC90E09787868780ECAB
:1007400090E0918B808B81EC90E0938B828B82EC9C
:1007500090E0958B848B86EC90E0978B868B118E46
:10076000128E138E148EE0EDF2E01182108213824D
:1007700012821582148240E050E069E172E0CF01FC
:1007800069CE789484B5826084BD84B5816084BD6F
:1007900085B5826085BD85B5816085BD80916E001F
:1007A000816080936E001092810080918100826050
:1007B000809381008091810081608093810080918D
:1007C00080008160809380008091B100846080937C
:1007D000B1008091B00081608093B0008091910061
:1007E000826080939100809191008160809391005C
:1007F000809190008160809390008091A100826040
:100800008093A1008091A10081608093A1008091DC
:10081000A00081608093A00080912101826080937C
:10082000210180912101816080932101809120012B
:1008300081608093200180917A00846080937A00A7
:1008400080917A00826080937A0080917A00816042
:1008500080937A0080917A00806880937A00109269
:10086000C100E0914302F091440282E08083E09174
:100870003F02F09140021082E0914102F091420269
:1008800080E1808310924B02E0914702F091480290
:1008900086E08083E0914502F0914602808180618C
:1008A0008083E0914502F0914602808188608083D8
:1008B000E0914502F0914602808180688083E0915A
:1008C0004502F091460280818F7D808368EC70E064
:1008D00080ED92E099DDC8EED3E088E1E82E8CEF60
:1008E000F82E00912F0210913002209131023091A8
:1008F000320280902B0290902C02A0902D02B0909A
:100900002E02B901A801481959096A097B094D5FEE
:100910005F4F6F4F7F4F81E0473051056105710593
:1009200008F480E04091290250912A028016910635
:10093000A206B3062CF44D3C9FEF59075CF412C09D
:10094000081519052A053B056CF4443351050CF4D0
:10095000A6C008C0882331F04650510950932A029E
:10096000409329028091290290912A0218161906B3
:1009700014F4039703C0009729F0039690932A027A
:1009800080932902E0912902F0912A02309709F11F
:10099000CE01BF018FD0161617061CF0C701BF018C
:1009A00089D070930102609300021E161F062CF47A
:1009B0000F5F1F4F2F4F3F4F04C0015011092109F6
:1009C000310900932F0210933002209331023093AB
:1009D00032022FB7F8946091230270912402809123
:1009E0002502909126022FBF4AE0A8DC88E192E020
:1009F00094DC20912F0230913002409131025091CD
:100A00003202AAE0B0E007D397FF02C0D6DC02C0F2
:100A10004AE094DC88E192E080DC609129027091E8
:100A20002A02072E000C880B990B97FF02C0C5DC29
:100A300002C04AE083DC8AE192E06FDC8FB7F89471
:100A40004091230250912402609125027091260268
:100A50008FBF8091000290910102092E000CAA0B19
:100A6000BB0B840F951FA61FB71F2FB7F89440919B
:100A700023025091240260912502709126022FBF1B
:100A8000481759076A077B0780F3809129029091E4
:100A90002A0290932802809327025DDD22CF8823CB
:100AA00009F460CF4A5F5F4F59CF8091D002909197
:100AB000D102E6C097FB072E16F4009406D077FD0E
:100AC00008D02DD007FC05D03EF4909581959F4F1E
:100AD0000895709561957F4F0895A1E21A2EAA1B83
:100AE000BB1BFD010DC0AA1FBB1FEE1FFF1FA217DE
:100AF000B307E407F50720F0A21BB30BE40BF50BDB
:100B0000661F771F881F991F1A9469F76095709563
:100B1000809590959B01AC01BD01CF010895AA1B62
:100B2000BB1B51E107C0AA1FBB1FA617B70710F0D8
:100B3000A61BB70B881F991F5A95A9F7809590950A
:100B4000BC01CD010895EE0FFF1F881F8BBF0790DA
:100B5000F691E02D1994CF93DF938230910510F434
:100B600082E090E0E091D802F091D90220E030E0FC
:100B7000C0E0D0E0309711F140815181481759070A
:100B8000C0F04817590761F482819381209719F0CA
:100B90009B838A832BC09093D9028093D80226C06E
:100BA0002115310519F04217530718F49A01BE01B7
:100BB000DF01EF010280F381E02DDCCF211531054B
:100BC00009F1281B390B2430310590F412968D91D0
:100BD0009C9113976115710521F0FB01938382832A
:100BE00004C09093D9028093D802FD01329644C08C
:100BF000FD01E20FF31F81939193225031092D9350
:100C00003C933AC02091D6023091D702232B41F475
:100C100020910402309105023093D7022093D6022E
:100C200020910202309103022115310541F42DB7C4
:100C30003EB74091060250910702241B350BE0910C
:100C4000D602F091D702E217F307A0F42E1B3F0B58
:100C50002817390778F0AC014E5F5F4F241735072E
:100C600048F04E0F5F1F5093D7024093D6028193F6
:100C7000919302C0E0E0F0E0CF01DF91CF910895C1
:100C80000F931F93CF93DF93009709F48CC0FC015F
:100C90003297138212820091D8021091D902011565
:100CA000110581F420813181820F931F2091D6029A
:100CB0003091D7022817390779F5F093D702E093DE
:100CC000D60271C0D80140E050E0AE17BF0750F423
:100CD00012962D913C911397AD012115310509F123
:100CE000D901F3CF9D01DA013383228360817181C1
:100CF000860F971F8217930769F4EC0128813981C9
:100D0000260F371F2E5F3F4F318320838A819B81BF
:100D100093838283452B29F4F093D902E093D80280
:100D200042C01396FC93EE931297ED0149915991AD
:100D30009E01240F351FE217F30771F48081918122
:100D4000840F951F029611969C938E9382819381B6
:100D500013969C938E931297E0E0F0E0D8011296E0
:100D60008D919C911397009719F0F8018C01F6CFA3
:100D70008D919C9198012E5F3F4F820F931F209180
:100D8000D6023091D7022817390769F4309729F431
:100D90001092D9021092D80202C0138212821093CC
:100DA000D7020093D602DF91CF911F910F91089542
:100DB0006F927F928F929F92AF92BF92CF92DF926B
:100DC000EF92FF920F931F93CF93DF93EC01009765
:100DD00081F4CB01DF91CF911F910F91FF90EF90A4
:100DE000DF90CF90BF90AF909F908F907F906F904B
:100DF000B2CEFC01E60FF71F9C0122503109E21729
:100E0000F30708F4A8C0D9010D911C91119706179A
:100E10001707A8F00530110508F49BC0C801049716
:100E20008617970708F495C002501109061B170B87
:100E3000019311936D937C93CF0122DF8AC05B01F4
:100E4000A01AB10A4C01800E911EA091D802B09157
:100E5000D90240E050E0E12CF12C109709F44AC08F
:100E6000A815B905D1F56D907C901197630182E0CA
:100E7000C80ED11CCA14DB0480F1A3014A195B0916
:100E80006A0182E0C80ED11C1296BC90129713968C
:100E9000AC91B5E0CB16D10440F0B282A38351836C
:100EA0004083D9016D937C930AC00E5F1F4FC3012D
:100EB000800F911FF90191838083EB2DFA2FE114AC
:100EC000F10431F0D7011396FC93EE93129741C0D1
:100ED000F093D902E093D8023CC08D919C91119778
:100EE0004817590708F4AC017D0112960D90BC918A
:100EF000A02DB3CF8091D6029091D7028815990585
:100F0000E1F446175707C8F480910202909103025A
:100F1000009741F48DB79EB74091060250910702A9
:100F2000841B950BE817F907B0F4F093D702E09310
:100F3000D602F901718360830CC0CB010CDE7C0109
:100F4000009749F0A801BE011BD0CE0199DEC70170
:100F500004C0CE0102C080E090E0DF91CF911F91EC
:100F60000F91FF90EF90DF90CF90BF90AF909F9048
:100F70008F907F906F90089581E090E0F89464C026
:100F8000FB01DC0102C001900D9241505040D8F7A6
:100F90000895FB01DC0101900D920020E1F7089516
:100FA0001F93FC0199278827BC01E8941191103206
:100FB000E9F3193010F01E30C8F31B3249F01D322E
:100FC00041F4689405C012D0610F711D811D911DFF
:100FD000119110531A30B8F33EF4909580957095A6
:100FE00061957F4F8F4F9F4F1F910895592F482F25
:100FF000372F262F660F771F881F991F660F771FC1
:10100000881F991F620F731F841F951F660F771F1C
:10101000881F991F089509D0A59F900DB49F900D2A
:10102000A49F800D911D11240895A29FB001B39F2C
:10103000C001A39F700D811D1124911DB29F700DE1
:10104000811D1124911D089510E0C3E7D0E000E058
:1010500005C0802FFE0177DD2196011DC437D10721
:0A10600080E00807B1F7F894FFCF15
:10106A00E8030000DA028000000000002601A30065
:0E107A00F000CE00E2006C0109000D0A00003B
:00000001FF
