:100000000C9463000C948B000C948B000C948B006C
:100010000C948B000C948B000C948B000C948B0034
:100020000C948B000C948B000C948B000C948B0024
:100030000C948B000C948B000C948B000C948B0014
:100040000C944F050C948B000C941D050C94F70434
:100050000C948B000C948B000C948B000C948B00F4
:100060000C948B000C948B000000000023002600F1
:10007000290000000008000201000003040700003E
:1000800000000000000000000000250028002B00F8
:1000900000000000240027002A00040404040404D3
:1000A0000404020202020202030303030303010227
:1000B00004081020408001020408102001020408F6
:1000C00010209905F50711241FBECFEFD8E0DEBF41
:1000D000CDBF11E0A0E0B1E0E6EDF9E102C005908E
:1000E0000D92AA35B107D9F722E0AAE5B1E001C027
:1000F0001D92AD31B207E1F710E0C2E6D0E004C0D6
:100100002197FE010E941D08C136D107C9F70E9440
:10011000D4050C94DE0C0C94000090E0FC01E25538
:10012000FF4F2491FC01E656FF4F8491882399F0FC
:1001300090E0880F991FFC01E057FF4FA591B49103
:10014000FC01EA57FF4F859194918FB7F894EC9199
:10015000E22BEC938FBF0895CF92DF92EF92FF9244
:100160000F931F93CF93DF936C017A018B01C0E053
:10017000D0E0CE15DF0589F0D8016D918D01D60153
:10018000ED91FC910190F081E02DC6010995892B3C
:1001900011F47E0102C02196ECCFC701DF91CF910F
:1001A0001F910F91FF90EF90DF90CF900895FC0189
:1001B000918D828D981761F0828DDF01A80FB11D9E
:1001C0005D968C91928D9F5F9F73928F90E00895C2
:1001D0008FEF9FEF0895FC01918D828D981731F07C
:1001E000828DE80FF11D858D90E008958FEF9FEFD0
:1001F0000895FC01918D228D892F90E0805C9F4FA6
:10020000821B91098F739927089586E791E00E94D8
:10021000F90021E0892B09F420E0822F0895FC01E8
:10022000848DDF01A80FB11DA35ABF4F2C91848D7F
:1002300090E001968F739927848FA689B7892C93B4
:10024000A089B1898C9180648C93938D848D98134F
:1002500006C00288F389E02D80818F7D8083089518
:10026000EF92FF920F931F93CF93DF93EC0181E006
:10027000888F9B8D8C8D981305C0E889F9898081C2
:1002800085FD24C0F62E0B8D10E00F5F1F4F0F73FE
:100290001127E02E8C8DE8120CC00FB607FCFACFA8
:1002A000E889F989808185FFF5CFCE010E940F0191
:1002B000F1CF8B8DFE01E80FF11DE35AFF4FF08265
:1002C0000B8FEA89FB898081806207C0EE89FF89F4
:1002D0006083E889F98980818064808381E090E08F
:1002E000DF91CF911F910F91FF90EF900895CF93E1
:1002F000DF93EC01888D8823C9F0EA89FB8980812E
:1003000085FD05C0A889B9898C9186FD0FC00FB6FF
:1003100007FCF5CF808185FFF2CFA889B9898C9140
:1003200085FFEDCFCE010E940F01E7CFDF91CF9186
:100330000895833081F028F4813099F08230A1F063
:1003400008958730A9F08830B9F08430D1F48091D5
:1003500080008F7D03C0809180008F778093800024
:10036000089584B58F7702C084B58F7D84BD0895CC
:100370008091B0008F7703C08091B0008F7D809313
:10038000B00008951F93CF93DF93282F30E0F90139
:10039000EE58FF4F8491F901E255FF4FD491F901D6
:1003A000E656FF4FC491CC23C9F0162F81110E944D
:1003B0009901EC2FF0E0EE0FFF1FEA57FF4FA591D8
:1003C000B4918FB7F894111105C09C91ED2FE09571
:1003D000E92302C0EC91ED2BEC938FBFDF91CF911D
:1003E0001F91089520E030E0A901609169017091AA
:1003F0006A0180916B0190916C010E9431094091DA
:100400005B0150915C0160915D0170915E01181675
:100410000CF070584093690150936A0160936B012E
:1004200070936C010895CF93DF9390915A018823C4
:1004300011F09F5F01C0915090935A0180915A0131
:1004400084301CF010925A0105C087FF03C083E07E
:1004500080935A0180915A018130A9F04CF48111A6
:1004600021C061E08FE00E94C20160E08EE018C010
:10047000823081F08330B1F461E08EE00E94C201ED
:1004800060E081E10DC061E080E10E94C20160E0B6
:100490008FE006C061E081E10E94C20160E080E17E
:1004A0000E94C201E4E8F0E08491E0ECF0E0D49135
:1004B000ECEAF0E0C491CC2379F081110E9499011B
:1004C000EC2FF0E0EE0FFF1FE859FF4FA591B4911C
:1004D000EC91ED2361E009F460E081E068278DE0B4
:1004E000DF91CF910C94C201CF92DF92EF92FF92F5
:1004F000CF93C0906901D0906A01E0906B01F090B9
:100500006C0120E030E0A901C701B6010E94310969
:10051000181674F420915B0130915C0140915D01EB
:1005200050915E01C701B6010E94310987FF1FC0CB
:1005300020E030E0A901C701B6010E94830B87FFCC
:1005400018C080915B0190915C01A0915D01B09118
:100550005E019C01AD015058C1E0C701B6010E9487
:10056000830B18160CF4C0E08C2F819503C081E03A
:1005700001C080E0CF91FF90EF90DF90CF90089581
:10058000009769F0FC0101900020E9F73197AF0175
:10059000481B590BBC0186E791E00C94AC0080E04D
:1005A00090E008958F929F92AF92BF920F931F9306
:1005B000CF93DF93CDB7DEB7A1970FB6F894DEBF28
:1005C0000FBECDBF19A2423008F44AE08E010F5D84
:1005D0001F4F842E912CA12CB12CA50194010E94B7
:1005E000FB07E62FB901CA0101501109EA3014F4E2
:1005F000E05D01C0E95CD801EC93232B242B252B73
:1006000061F7C8010E94C002A1960FB6F894DEBF40
:100610000FBECDBFDF91CF911F910F91BF90AF90D3
:100620009F908F9008958F929F92AF92BF92CF929A
:10063000DF92EF92FF9260E08EE00E94C20160E0E4
:100640008FE00E94C20160E080E10E94C20160E090
:1006500081E10E94C2018AE191E00E94C002C09043
:100660006D01D0906E01E0906F01F0907001A701D4
:100670009601C701B6010E943609882319F083E26A
:1006800091E01AC046015701E894B7F82FEF3FEF09
:100690004FE75FE7C501B4010E94360981110FC021
:1006A0002FEF3FEF4FE75FE7C501B4010E94830BD7
:1006B00018162CF487E291E00E94C0027BC02FEF55
:1006C0003FEF4FE75FE4C701B6010E9431091816FA
:1006D0001CF48BE291E0F0CF2FEF3FEF4FE75FECA0
:1006E000C701B6010E94830B87FDF3CF20E030E005
:1006F000A901C701B6010E94830B87FF0FC0E091DB
:100700007601F09177010190F081E02D6DE286E7AE
:1007100091E00995F7FAF094F7F8F0942AE037EDB4
:1007200043EA5BE3C701B6010E9424084B015C0168
:100730000E9402096B017C010E94880B9B01AC01A5
:10074000C501B4010E9423084B015C014AE0C701C6
:10075000B6010E94D2028FE291E00E94C00220E026
:1007600030E040E251E4C501B4010E94E90B4B01C5
:100770005C010E9402096B01E12CF12C4AE0C701E7
:10078000B6010E94D202C701B6010E94880B9B01EC
:10079000AC01C501B4010E94230820E030E040E232
:1007A00051E40E94E90B0E94020980E090E04AE0D7
:1007B0000E94D20281E391E0FF90EF90DF90CF9012
:1007C000BF90AF909F908F900C94C0020E94320B0C
:1007D0000F931F93CF93DF93EC018881998100974A
:1007E00029F02A813B812617370788F48B016F5F38
:1007F0007F4F0E94680A009761F0998388831B836A
:100800000A832C813D81232B11F4FC01108281E0AD
:1008100001C080E0DF91CF911F910F910895EF9279
:10082000FF920F931F93CF93DF93EC017B018A011B
:10083000BA010E94E8032881398181110DC0211578
:10084000310519F0C9010E94D009198218821D8250
:100850001C821B821A8206C01D830C83B701C9014A
:100860000E94400BCE01DF91CF911F910F91FF901D
:10087000EF900895CF92DF92EF92FF920F931F9324
:10088000CF93DF9300D0CDB7DEB70FEF11E086E74F
:1008900091E00E94F900892B09F498C086E791E065
:1008A0000E94D700D82E89831A82E0901702F09018
:1008B00018028FEFE81AF80AB70183E192E00E946C
:1008C000E803882399F0209113023091140280915B
:1008D000170290911802BE016F5F7F4F820F931F26
:1008E0000E94400BF0921802E09217028AE0D812A0
:1008F000CECF8091130290911402009719F00E94BC
:10090000470B03C060E070E0CB010E948A0B60934C
:10091000710170937201809373019093740120911F
:100920006D0130916E0140916F01509170010E94F4
:1009300023086B017C0120E030E0A9010E9431090D
:1009400018161CF41093680117C020E030E0A901CC
:10095000C701B6010E94830B87FD0093680120E068
:1009600030E0A901C701B6010E943109181624F030
:10097000F7FAF094F7F8F09420E030E040EA51E420
:10098000C701B6010E94310918164CF0C0925B01F4
:10099000D0925C01E0925D01F0925E010CC080E0BB
:1009A00090E0A0EAB1E480935B0190935C01A09396
:1009B0005D01B0935E011093750140E050E063E388
:1009C00071E083E192E00E940F0461CF0F900F90DD
:1009D000DF91CF911F910F91FF90EF90DF90CF901B
:1009E00008950E94050181110C943A0408951F9204
:1009F0000F920FB60F9211242F933F934F935F9353
:100A00006F937F938F939F93AF93BF93EF93FF93D6
:100A100086E791E00E940F01FF91EF91BF91AF91A6
:100A20009F918F917F916F915F914F913F912F9106
:100A30000F900FBE0F901F9018951F920F920FB638
:100A40000F9211242F938F939F93EF93FF93E09135
:100A50008601F09187018081E0918C01F0918D01F8
:100A600082FD12C0908180918F018F5F8F732091E2
:100A70009001821751F0E0918F01F0E0EA58FE4FAB
:100A8000958F80938F0101C08081FF91EF919F919D
:100A90008F912F910F900FBE0F901F9018951F925E
:100AA0000F920FB60F9211242F933F938F939F9322
:100AB000AF93BF938091640190916501A09166010D
:100AC000B09167013091630123E0230F2D3720F4AB
:100AD0000196A11DB11D05C026E8230F0296A11D98
:100AE000B11D209363018093640190936501A093ED
:100AF0006601B093670180915F0190916001A091C0
:100B00006101B09162010196A11DB11D80935F0149
:100B100090936001A0936101B0936201BF91AF9186
:100B20009F918F913F912F910F900FBE0F901F902B
:100B30001895E6E7F1E01382128288EE93E0A0E0D8
:100B4000B0E084839583A683B7838EE091E09183A0
:100B5000808385EC90E09587848784EC90E097878C
:100B6000868780EC90E0918B808B81EC90E0938B7A
:100B7000828B82EC90E0958B848B86EC90E0978B57
:100B8000868B118E128E138E148EE3E1F2E01182A9
:100B90001082138212821582148240E050E063E3D7
:100BA00071E0CF010C940F04789484B5826084BD09
:100BB00084B5816084BD85B5826085BD85B5816061
:100BC00085BD80916E00816080936E0010928100DF
:100BD000809181008260809381008091810081609A
:100BE000809381008091800081608093800080915B
:100BF000B10084608093B1008091B00081608093E7
:100C0000B00080917A00846080937A0080917A00AD
:100C1000826080937A0080917A00816080937A006C
:100C200080917A00806880937A001092C100E091F0
:100C30008601F091870182E08083E0918201F0914A
:100C400083011082E0918401F091850180E180832D
:100C500010928E01E0918A01F0918B0186E08083F1
:100C6000E0918801F0918901808180618083E09129
:100C70008801F0918901808188608083E0918801FA
:100C8000F0918901808180688083E0918801F091F2
:100C9000890180818F7D808368EC70E083E192E040
:100CA0000E94E80384E391E00E94C00281E391E0A6
:100CB0000E94C0028EE00E948D008FE00E948D0095
:100CC00080E10E948D0081E10E948D008DE00E94F4
:100CD0008D0080917501882309F472C020916D0107
:100CE00030916E0140916F015091700160917101DE
:100CF0007091720180917301909174010E94310989
:100D000087FD30C00E947402811123C02DEC3CECA1
:100D10004CE45EE360910001709101018091020159
:100D2000909103010E94E90B9B01AC016091690164
:100D300070916A0180916B0190916C010E9424086E
:100D40006093690170936A0180936B0190936C01C9
:100D500002C00E94F2018091680187FF9EC010923C
:100D600075019BC00E947402811123C02DEC3CECE4
:100D70004CE45EE3609100017091010180910201F9
:100D8000909103010E94E90B9B01AC016091690104
:100D900070916A0180916B0190916C010E9423080F
:100DA0006093690170936A0180936B0190936C0169
:100DB00002C00E94F20180916801181684F26DC091
:100DC000C0906901D0906A01E0906B01F0906C01D5
:100DD00020E030E0A901C701B6010E9431091816D0
:100DE0007CF520E030E040E05FE36091000170912D
:100DF000010180910201909103010E94E90B9B0186
:100E0000AC01C701B6010E94230860936901709389
:100E10006A0180936B0190936C0120E030E040E028
:100E200050E40E94830B87FF38C010926901109232
:100E30006A0110926B0110926C010E9413032DC085
:100E400020E030E0A901C701B6010E94830B87FFB3
:100E500024C020E030E040E05FE360910001709149
:100E6000010180910201909103010E94E90B9B0115
:100E7000AC01C701B6010E94240860936901709318
:100E80006A0180936B0190936C0120E030E040E0B8
:100E900050EC0E943109181644F2C0906901D090BC
:100EA0006A01E0906B01F0906C0120E030E040E0DE
:100EB00050E4C701B6010E94830B87FF17C020E0F2
:100EC00030E040E050ECC701B6010E94310918162D
:100ED0006CF480E090E0A0E8BFE380930001909381
:100EE0000101A0930201B09303011DC0A701960167
:100EF00060E070E080E89FE30E9490084B015C0195
:100F000020E030E0A9010E943109181624F0B7FA58
:100F1000B094B7F8B0948092000190920101A09231
:100F20000201B092030120E030E0A901C701B6013F
:100F30000E9431091816C4F420E030E040E85FE375
:100F400060916D0170916E0180916F0190917001BF
:100F50000E94240860936D0170936E0180936F016D
:100F60009093700181E020C020E030E0A901C7012A
:100F7000B6010E94830B87FF19C020E030E040E8F3
:100F80005FE360916D0170916E0180916F019091AE
:100F900070010E94230860936D0170936E0180932D
:100FA0006F019093700180E00E94130220E030E412
:100FB0004CE956E4609100017091010180910201B9
:100FC000909103010E94E90B0E94020962307105B1
:100FD00048F0660F771F660F771F65507109CB01C8
:100FE0000197F1F70E94F10474CE80911302909161
:100FF00014020C94D009A1E21A2EAA1BBB1BFD01FE
:101000000DC0AA1FBB1FEE1FFF1FA217B307E407E7
:10101000F50720F0A21BB30BE40BF50B661F771F3F
:10102000881F991F1A9469F760957095809590951F
:101030009B01AC01BD01CF010895EE0FFF1F05908C
:10104000F491E02D09945058BB27AA270E943B0831
:101050000C946D0C0E945F0C38F00E94660C20F01E
:1010600039F49F3F19F426F40C945C0C0EF4E095CF
:10107000E7FB0C94560CE92F0E947E0C58F3BA172C
:10108000620773078407950720F079F4A6F50C949E
:10109000A00C0EF4E0950B2EBA2FA02D0B01B90178
:1010A00090010C01CA01A0011124FF27591B99F0DE
:1010B000593F50F4503E68F11A16F040A22F232FEA
:1010C000342F4427585FF3CF469537952795A7953A
:1010D000F0405395C9F77EF41F16BA0B620B730BE1
:1010E000840BBAF09150A1F0FF0FBB1F661F771F52
:1010F000881FC2F70EC0BA0F621F731F841F48F407
:10110000879577956795B795F7959E3F08F0B0CF8F
:101110009395880F08F09927EE0F97958795089576
:101120000E94A4080C946D0C0E94660C58F00E945A
:101130005F0C40F029F45F3F29F00C94560C5111DC
:101140000C94A10C0C945C0C0E947E0C68F3992307
:10115000B1F3552391F3951B550BBB27AA276217B3
:101160007307840738F09F5F5F4F220F331F441FC0
:10117000AA1FA9F335D00E2E3AF0E0E832D09150F4
:101180005040E695001CCAF72BD0FE2F29D0660FE1
:10119000771F881FBB1F261737074807AB07B0E824
:1011A00009F0BB0B802DBF01FF2793585F4F3AF02A
:1011B0009E3F510578F00C94560C0C94A10C5F3FA7
:1011C000E4F3983ED4F3869577956795B795F795B0
:1011D0009F5FC9F7880F911D9695879597F9089598
:1011E000E1E0660F771F881FBB1F62177307840734
:1011F000BA0720F0621B730B840BBA0BEE1F88F743
:10120000E09508950E94860C88F09F5798F0B92FBA
:101210009927B751B0F0E1F0660F771F881F991F2B
:101220001AF0BA95C9F714C0B13091F00E94A00C21
:10123000B1E008950C94A00C672F782F8827B85F31
:1012400039F0B93FCCF3869577956795B395D9F783
:101250003EF490958095709561957F4F8F4F9F4F8D
:1012600008950E94C50B08F48FEF08950E94C50BE6
:10127000880B990B0895CF93DF938230910510F47A
:1012800082E090E0E0911B02F0911C0220E030E04F
:10129000C0E0D0E0309711F14081518148175907E3
:1012A000C0F04817590761F482819381209719F0A3
:1012B0009B838A832BC090931C0280931B0226C0C1
:1012C0002115310519F04217530718F49A01BE0190
:1012D000DF01EF010280F381E02DDCCF2115310524
:1012E00009F1281B390B2430310590F412968D91A9
:1012F0009C9113976115710521F0FB019383828303
:1013000004C090931C0280931B02FD01329644C0DE
:10131000FD01E20FF31F81939193225031092D9328
:101320003C933AC02091190230911A02232B41F4C8
:10133000209106013091070130931A02209319027F
:1013400020910401309105012115310541F42DB79B
:101350003EB74091080150910901241B350BE091E3
:101360001902F0911A02E217F307A0F42E1B3F0BAB
:101370002817390778F0AC014E5F5F4F2417350707
:1013800048F04E0F5F1F50931A0240931902819349
:10139000919302C0E0E0F0E0CF01DF91CF9108959A
:1013A0000F931F93CF93DF93009709F48CC0FC0138
:1013B00032971382128200911B0210911C020115B8
:1013C000110581F420813181820F931F2091190230
:1013D00030911A022817390779F5F0931A02E09331
:1013E000190271C0D80140E050E0AE17BF0750F4B9
:1013F00012962D913C911397AD012115310509F1FC
:10140000D901F3CF9D01DA01338322836081718199
:10141000860F971F8217930769F4EC0128813981A1
:10142000260F371F2E5F3F4F318320838A819B8198
:1014300093838283452B29F4F0931C02E0931B02D3
:1014400042C01396FC93EE931297ED014991599186
:101450009E01240F351FE217F30771F480819181FB
:10146000840F951F029611969C938E93828193818F
:1014700013969C938E931297E0E0F0E0D8011296B9
:101480008D919C911397009719F0F8018C01F6CF7C
:101490008D919C9198012E5F3F4F820F931F209159
:1014A000190230911A022817390769F4309729F484
:1014B00010921C0210921B0202C01382128210931F
:1014C0001A0200931902DF91CF911F910F91089595
:1014D000A0E0B0E0EEE6FAE00C94AB0CEC01009773
:1014E00021F4CB010E943B09B8C0FC01E60FF71FB5
:1014F0009C0122503109E217F30708F4ACC0D9016E
:101500000D911C91119706171707B0F005301105C2
:1015100008F49FC0C80104978617970708F499C07C
:1015200002501109061B170B019311936D937C93C5
:10153000CF010E94D0098DC05B01A01AB10A4C01F5
:10154000800E911EA0911B02B0911C0240E050E061
:10155000E12CF12C109709F44AC0A815B905D1F572
:101560006D907C901197630182E0C80ED11CCA1463
:10157000DB0480F1A3014A195B096A0182E0C80E0D
:10158000D11C1296BC9012971396AC91B5E0CB1675
:10159000D10440F0B282A38351834083D9016D937B
:1015A0007C930AC00E5F1F4FC301800F911FF9018A
:1015B00091838083EB2DFA2FE114F10431F0D701F0
:1015C0001396FC93EE93129744C0F0931C02E093A1
:1015D0001B023FC08D919C9111974817590708F441
:1015E000AC017D0112960D90BC91A02DB3CF8091DE
:1015F000190290911A0288159905E1F446175707C8
:10160000C8F48091040190910501009741F48DB7D1
:101610009EB74091080150910901841B950BE81772
:10162000F907C8F4F0931A02E0931902F9017183E3
:1016300060830FC0CB010E943B097C01009759F0E9
:10164000A801BE010E94370BCE010E94D009C7013C
:1016500004C0CE0102C080E090E0CDB7DEB7EEE07E
:101660000C94C70C81E090E0F8940C94DE0CFB0124
:10167000DC0102C001900D9241505040D8F708950E
:10168000FB01DC0101900D920020E1F708951F930A
:10169000FC0199278827BC01E89411911032E9F3E5
:1016A000193010F01E30C8F31B3251F01D3249F4CE
:1016B000689406C00E946E0B610F711D811D911D03
:1016C000119110531A30B0F33EF4909580957095B7
:1016D00061957F4F8F4F9F4F1F910895592F482F2E
:1016E000372F262F660F771F881F991F660F771FCA
:1016F000881F991F620F731F841F951F660F771F26
:10170000881F991F08950E94C50B08F481E0089571
:10171000E89409C097FB3EF490958095709561958B
:101720007F4F8F4F9F4F9923A9F0F92F96E9BB2741
:101730009395F695879577956795B795F111F8CFBD
:10174000FAF4BB0F11F460FF1BC06F5F7F4F8F4F28
:101750009F4F16C0882311F096E911C0772321F01E
:101760009EE8872F762F05C0662371F096E8862FB6
:1017700070E060E02AF09A95660F771F881FDAF70D
:10178000880F9695879597F90895990F0008550F3A
:10179000AA0BE0E8FEEF16161706E807F907C0F0F7
:1017A00012161306E407F50798F0621B730B840BFF
:1017B000950B39F40A2661F0232B242B252B21F4D9
:1017C00008950A2609F4A140A6958FEF811D811D79
:1017D00008950E94FC0B0C946D0C0E945F0C38F075
:1017E0000E94660C20F0952311F00C94560C0C947A
:1017F0005C0C11240C94A10C0E947E0C70F3959F3C
:10180000C1F3950F50E0551F629FF001729FBB27F7
:10181000F00DB11D639FAA27F00DB11DAA1F649F93
:101820006627B00DA11D661F829F2227B00DA11D46
:10183000621F739FB00DA11D621F839FA00D611DCC
:10184000221F749F3327A00D611D231F849F600DED
:10185000211D822F762F6A2F11249F5750409AF016
:10186000F1F088234AF0EE0FFF1FBB1F661F771FA2
:10187000881F91505040A9F79E3F510580F00C946D
:10188000560C0C94A10C5F3FE4F3983ED4F386957C
:1018900077956795B795F795E7959F5FC1F7FE2B0D
:1018A000880F911D9695879597F9089597F99F67E9
:1018B00080E870E060E008959FEF80EC08950024D8
:1018C0000A941616170618060906089500240A94A5
:1018D00012161306140605060895092E0394000C2B
:1018E00011F4882352F0BB0F40F4BF2B11F460FFBA
:1018F00004C06F5F7F4F8F4F9F4F089557FD9058E3
:10190000440F551F59F05F3F71F04795880F97FBC3
:10191000991F61F09F3F79F087950895121613067D
:101920001406551FF2CF4695F1DF08C016161706AC
:101930001806991FF1CF86957105610508940895E1
:10194000E894BB2766277727CB0197F908952F9254
:101950003F924F925F926F927F928F929F92AF923F
:10196000BF92CF92DF92EF92FF920F931F93CF938C
:10197000DF93CDB7DEB7CA1BDB0B0FB6F894DEBF23
:101980000FBECDBF09942A88398848885F846E8449
:101990007D848C849B84AA84B984C884DF80EE8093
:1019A000FD800C811B81AA81B981CE0FD11D0FB69C
:1019B000F894DEBF0FBECDBFED01089510E0C2E682
:1019C000D0E004C0FE010E941D082196C336D10755
:0619D000C9F7F894FFCFF7
:1019D6000000803F00001D02800000000000300172
:1019E600AC00F900D700EB00770173746F702061CB
:1019F6007420006E616E00696E66006F7666002E5A
:101A0600000D0A0074696D6509636F6F726409736E
:101A160070656564096469720972756E097461722C
:0A1A26006765745370656564000085
:00000001FF
