:1000000073C00000A0C000009EC000009CC00000A3
:100010009AC0000098C0000096C0000094C0000084
:1000200092C0000090C000008EC000008CC0000094
:100030008AC0000088C0000086C0000084C00000A4
:1000400082C0000080C000007EC000007CC00000B4
:100050007AC0000078C0000076C0000011C4000023
:1000600072C00000D7C30000ACC300006CC0000029
:100070006AC0000068C0000066C0000064C00000E4
:1000800062C0000060C000005EC000005CC00000F4
:100090005AC0000058C0000056C0000054C0000004
:1000A00052C0000050C000004EC000004CC0000014
:1000B0004AC0000048C0000046C0000044C0000024
:1000C00042C0000040C000003EC000003CC0000034
:1000D0003AC0000038C0000036C0000034C0000044
:1000E00032C000008A04340711241FBECFEFD1E2D2
:1000F000DEBFCDBF00E00CBF12E0A0E0B2E0ECED4F
:10010000F7E100E00BBF02C007900D92AE32B107DD
:10011000D9F722E0AEE2B2E001C01D92AC3EB207D8
:10012000E1F710E0C3E7D0E000E005C02197010946
:10013000802FFE01C0D6C237D10780E00807B1F793
:1001400023D40C94DD0B5CCFCF92DF92EF92FF9221
:100150000F931F93CF93DF936C017A018B01C0E063
:10016000D0E0CE15DF0589F0D8016D918D01D60163
:10017000ED91FC910190F081E02DC6011995892B3C
:1001800011F47E0102C02196ECCFC701DF91CF911F
:100190001F910F91FF90EF90DF90CF900895FC0199
:1001A000918D828D981761F0828DDF01A80FB11DAE
:1001B0005D968C91928D9F5F9F73928F90E00895D2
:1001C0008FEF9FEF0895FC01918D828D981731F08C
:1001D000828DE80FF11D858D90E008958FEF9FEFE0
:1001E0000895FC01918D228D892F90E0805C9F4FB6
:1001F000821B91098F739927089585E492E0F1DFBE
:1002000021E0892B09F420E0822F0895FC01848DE0
:10021000DF01A80FB11DA35ABF4F2C91848D90E030
:1002200001968F739927848FA689B7892C93A0890B
:10023000B1898C9180648C93938D848D981306C0C2
:100240000288F389E02D80818F7D80830895EF926D
:10025000FF920F931F93CF93DF93EC0181E0888F80
:100260009B8D8C8D981305C0E889F989808185FD67
:1002700023C0F62E0B8D10E00F5F1F4F0F73112759
:10028000E02E8C8DE8120BC00FB607FCFACFE88980
:10029000F989808185FFF5CFCE01B8DFF2CF8B8D54
:1002A000FE01E80FF11DE35AFF4FF0820B8FEA8940
:1002B000FB898081806207C0EE89FF896083E889BD
:1002C000F98980818064808381E090E0DF91CF9123
:1002D0001F910F91FF90EF900895CF93DF93EC0162
:1002E000888D8823C1F0EA89FB89808185FD05C05E
:1002F000A889B9898C9186FD0EC00FB607FCF5CF91
:10030000808185FFF2CFA889B9898C9185FFEDCFD7
:10031000CE017CDFE8CFDF91CF9108953FB7F8940D
:1003200080912F0290913002A0913102B09132025F
:1003300026B5A89B05C02F3F19F00196A11DB11D40
:100340003FBFBA2FA92F982F8827820F911DA11D7B
:10035000B11DBC01CD0142E0660F771F881F991FB8
:100360004A95D1F70895009761F0FC0101900020B3
:10037000E9F73197AF01481B590BBC0185E492E0C6
:10038000E3CE80E090E008958F929F92AF92BF926B
:100390000F931F93CF93DF93CDB7DEB7A1970FB61F
:1003A000F894DEBF0FBECDBF19A2423008F44AE078
:1003B0008E010F5D1F4F842E912CA12CB12CA50115
:1003C000940157D5E62FB901CA0101501109EA304D
:1003D00014F4E05D01C0E95CD801EC93232B242BDD
:1003E000252B69F7C801BFDFA1960FB6F894DEBFD1
:1003F0000FBECDBFDF91CF911F910F91BF90AF90F6
:100400009F908F9008954F925F926F927F928F92FC
:100410009F92AF92BF92CF92DF92EF92FF926B01C9
:100420007C01B42E9B01AC014BD6882319F08AE1E4
:1004300092E025C026013701E89477F82FEF3FEFCF
:100440004FE75FE7C301B2013BD681110DC02FEF2B
:100450003FEF4FE75FE7C301B2010E94C40A1816DD
:100460001CF48EE192E00BC02FEF3FEF4FE75FE40B
:10047000C701B60121D618167CF482E292E0FF9003
:10048000EF90DF90CF90BF90AF909F908F907F9034
:100490006F905F904F9067CF2FEF3FEF4FE75FEC8C
:1004A000C701B6010E94C40A87FDE7CF20E030E013
:1004B000A901C701B6010E94C40A87FF11C0E091DB
:1004C0004502F09146020190F081E02D6DE285E455
:1004D00092E019954C01F7FAF094F7F8F09402C005
:1004E000812C912CA12C60E070E080E09FE3AB14A4
:1004F00039F020E030E040E251E44AD5A394F7CF50
:100500009B01AC01C701B601DFD42B013C01A8D58A
:100510006B017C010E94C80A9B01AC01C301B201BE
:10052000D2D42B013C014AE0C701B6012DDF7C018A
:10053000E80CF91CBB2029F086E292E014DFE80EFB
:10054000F91EDB2CDD2009F120E030E040E251E42F
:10055000C301B2010E94290B2B013C0181D54B0143
:10056000A12CB12C4AE0C501B4010EDFE80EF91E42
:10057000C501B4010E94C80A9B01AC01C301B201CC
:10058000A2D42B013C01DA94DDCFC701FF90EF909C
:10059000DF90CF90BF90AF909F908F907F906F90A3
:1005A0005F904F900895A1D70F931F93CF93DF9340
:1005B000EC0188819981009729F02A813B812617D7
:1005C000370780F48B016F5F7F4FABD6009761F0E8
:1005D000998388831B830A832C813D81232B11F40B
:1005E000FC01108281E001C080E0DF91CF911F917A
:1005F0000F910895EF92FF920F931F93CF93DF9384
:10060000EC017B018A01BA01CFDF28813981811198
:100610000CC02115310511F0C901EBD519821882E2
:100620001D821C821B821A8205C01D830C83B701A8
:10063000C90168D7CE01DF91CF911F910F91FF9033
:10064000EF9008954F925F926F927F92AF92BF9218
:10065000CF92DF92EF92FF920F931F93CF93DF938E
:100660001F921F92CDB7DEB7AA24AA94BB24B394DD
:1006700085E492E0B6DD892B09F45FC085E492E061
:100680008EDDF82E89831A820091E6021091E7022E
:100690000F5F1F4FB80182EE92E086DF882391F052
:1006A0002091E2023091E3028091E6029091E7020C
:1006B000BE016F5F7F4F820F931F24D71093E70215
:1006C0000093E6028AE0F812D3CF8091E202909183
:1006D000E302009711F01DD703C060E070E0CB018A
:1006E00059D76B017C0160933C0270933D0280936B
:1006F0003E0290933F024090380250903902609041
:100700003A0270903B02A3019201D6D418161CF451
:10071000B092370208C0A3019201C701B60134D7D5
:1007200087FDA0923702B092400240E050E069E2BB
:1007300072E082EE92E05EDF9BCF0F900F90DF9130
:10074000CF911F910F91FF90EF90DF90CF90BF90CE
:10075000AF907F906F905F904F9008954EDD811124
:1007600025C080E090E0892B41F080E090E0892B6B
:1007700021F00E94000081111BC080E090E0892BD5
:1007800041F080E090E0892B21F00E94000081116F
:1007900012C080E090E0892B99F080E090E0892BF6
:1007A00079F00E940000811109C008954BDFD9CF74
:1007B0000E940000E2CF0E940000EBCF0C940000EA
:1007C00008951F920F920FB60F9211240BB60F923D
:1007D0002F933F934F935F936F937F938F939F9349
:1007E000AF93BF93EF93FF9385E492E00FDDFF910A
:1007F000EF91BF91AF919F918F917F916F915F9199
:100800004F913F912F910F900BBE0F900FBE0F9005
:100810001F9018951F920F920FB60F9211240BB6CE
:100820000F922F938F939F93EF93FF93E091550235
:10083000F09156028081E0915B02F0915C0282FDB2
:1008400012C0908180915E028F5F8F7320915F0252
:10085000821751F0E0915E02F0E0EB5BFD4F958F67
:1008600080935E0201C08081FF91EF919F918F91F3
:100870002F910F900BBE0F900FBE0F901F901895E9
:100880001F920F920FB60F9211242F933F938F93C5
:100890009F93AF93BF938091330290913402A091C4
:1008A0003502B091360230912E0223E0230F2D370E
:1008B00020F40196A11DB11D05C026E8230F029664
:1008C000A11DB11D20932E02809333029093340218
:1008D000A0933502B093360280912F02909130029E
:1008E000A0913102B09132020196A11DB11D8093F9
:1008F0002F0290933002A0933102B0933202BF9145
:10090000AF919F918F913F912F910F900FBE0F90BC
:100910001F901895E5E4F2E01382128288EE93E0CE
:10092000A0E0B0E084839583A683B7838EE092E055
:100930009183808385EC90E09587848784EC90E0B8
:100940009787868780EC90E0918B808B81EC90E09C
:10095000938B828B82EC90E0958B848B86EC90E07D
:10096000978B868B118E128E138E148EE2EEF2E030
:1009700011821082138212821582148240E050E0AC
:1009800069E272E0CF0136CE789484B5826084BD8E
:1009900084B5816084BD85B5826085BD85B5816083
:1009A00085BD80916E00816080936E001092810001
:1009B00080918100826080938100809181008160BC
:1009C000809381008091800081608093800080917D
:1009D000B10084608093B1008091B0008160809309
:1009E000B00080919100826080939100809191008D
:1009F000816080939100809190008160809390004D
:100A00008091A10082608093A1008091A10081600B
:100A10008093A1008091A00081608093A0008091CC
:100A20002101826080932101809121018160809366
:100A300021018091200181608093200180917A00C2
:100A4000846080937A0080917A00826080937A003B
:100A500080917A00816080937A0080917A0080682A
:100A600080937A001092C100E0915502F0915602F5
:100A700082E08083E0915102F09152021082E09175
:100A80005302F091540280E1808310925D02E09164
:100A90005902F0915A0286E08083E0915702F0916A
:100AA0005802808180618083E0915702F091580262
:100AB000808188608083E0915702F09158028081A4
:100AC00080688083E0915702F091580280818F7D89
:100AD000808368EC70E082EE92E066DDC0904102B7
:100AE000D0904202E0904302F090440220E030E0D7
:100AF00040E050E4C701B60147D587FF16C020E0AB
:100B000030E040E050ECC701B601D6D218166CF4C4
:100B100080E090E0A0E8BFE38093000290930102A0
:100B2000A0930202B093030245C0A701960160E0C2
:100B300070E080E89FE32CD26B017C0120E030E084
:100B4000A901BAD2181624F0F7FAF094F7F8F09445
:100B5000C0920002D0920102E0920202F0920302DF
:100B60002FB7F8946091330270913402809135026E
:100B7000909136022FBF4AE007DC88E292E0F3DB77
:100B8000609138027091390280913A0290913B0253
:100B900042E039DC88E292E0E6DB6091410270914C
:100BA0004202809143029091440242E02CDC8AE2AE
:100BB00092E0D9DB80914002C0904102D090420285
:100BC000E0904302F0904402882309F44EC08090E4
:100BD0003C0290903D02A0903E02B0903F024090B7
:100BE00038025090390260903A0270903B02A301A3
:100BF0009201C501B40160D21816CCF420E030E0B7
:100C00004CE452E4C701B60157D218164CF020E06C
:100C100030E04CE452ECC701B601B6D487FFEEC019
:100C20008091370287FF78C01092400275C0A301FF
:100C30009201C501B401A8D487FF6EC020E030E066
:100C40004CE452E4C701B60137D218164CF020E04C
:100C500030E04CE452ECC701B60196D487FFE9C0FE
:100C600080913702181604F357C020E030E0A90144
:100C7000C701B60121D2181644F5609100027091A7
:100C8000010280910202909103029B01AC011CD1F0
:100C90009B01AC01C701B60116D16093410270936C
:100CA0004202809343029093440220E030E040E00F
:100CB00050E46AD487FF30C0109241021092420281
:100CC000109243021092440227C020E030E0A901B4
:100CD000C701B60159D487FF1FC06091000270910F
:100CE000010280910202909103029B01AC01ECD0C1
:100CF0009B01AC01C701B601E7D06093410270933C
:100D00004202809343029093440220E030E040E0AE
:100D100050ECD2D1181684F2C0904102D090420219
:100D2000E0904302F090440220E030E0A901C701C6
:100D3000B601C2D1181674F420E030E040E85FE359
:100D4000609138027091390280913A0290913B0291
:100D5000BBD015C020E030E0A901C701B60114D412
:100D600087FF15C020E030E040E85FE36091380283
:100D70007091390280913A0290913B02A4D0609325
:100D800038027093390280933A0290933B0220E03C
:100D900030E04AE754E460910002709101028091D2
:100DA00002029091030255D45BD16B017C01B6DA4B
:100DB0004B015C01C114D104E104F104E9F0AEDAA5
:100DC000DC01CB0188199909AA09BB09883E934027
:100DD000A105B10578F321E0C21AD108E108F108B4
:100DE00088EE880E83E0981EA11CB11CC114D104AA
:100DF000E104F10421F7DECFB1DC70CE20E030E079
:100E000040EA50E460910002709101028091020278
:100E1000909103021ED49B01AC01C701B60154D0CE
:100E20006093410270934202809343029093440284
:100E3000F7CE20E030E040EA50E46091000270918B
:100E40000102809102029091030203D49B01AC0144
:100E5000C701B60138D0609341027093420280937B
:100E6000430290934402FCCE8091E2029091E3020F
:100E7000C0C1A1E21A2EAA1BBB1BFD010DC0AA1FF7
:100E8000BB1FEE1FFF1FA217B307E407F50720F0F3
:100E9000A21BB30BE40BF50B661F771F881F991F6E
:100EA0001A9469F760957095809590959B01AC01B7
:100EB000BD01CF010895EE0FFF1F881F8BBF079064
:100EC000F691E02D19945058BB27AA270ED03BC4A9
:100ED0002CD430F031D420F031F49F3F11F41EF4C3
:100EE00021C40EF4E095E7FB17C4E92F3DD480F34D
:100EF000BA17620773078407950718F071F49EF517
:100F000055C40EF4E0950B2EBA2FA02D0B01B9019C
:100F100090010C01CA01A0011124FF27591B99F06F
:100F2000593F50F4503E68F11A16F040A22F232F7B
:100F3000342F4427585FF3CF469537952795A795CB
:100F4000F0405395C9F77EF41F16BA0B620B730B72
:100F5000840BBAF09150A1F0FF0FBB1F661F771FE3
:100F6000881FC2F70EC0BA0F621F731F841F48F498
:100F7000879577956795B795F7959E3F08F0B3CF1E
:100F80009395880F08F09927EE0F97958795089508
:100F90000CD0D9C3D1D340F0C8D330F021F45F3F97
:100FA00019F0BAC3511103C4BDC3DED398F399231A
:100FB000C9F35523B1F3951B550BBB27AA2762171D
:100FC0007307840738F09F5F5F4F220F331F441F62
:100FD000AA1FA9F333D00E2E3AF0E0E830D091509A
:100FE0005040E695001CCAF729D0FE2F27D0660F87
:100FF000771F881FBB1F261737074807AB07B0E8C6
:1010000009F0BB0B802DBF01FF2793585F4F2AF0DB
:101010009E3F510568F080C3CAC35F3FECF3983E22
:10102000DCF3869577956795B795F7959F5FC9F738
:10103000880F911D9695879597F90895E1E0660FC1
:10104000771F881FBB1F621773078407BA0720F03A
:10105000621B730B840BBA0BEE1F88F7E0950895A3
:101060008BD388F09F5790F0B92F9927B751A0F0F4
:10107000D1F0660F771F881F991F1AF0BA95C9F72C
:1010800012C0B13081F092D3B1E008958FC3672FC1
:10109000782F8827B85F39F0B93FCCF386957795DC
:1010A0006795B395D9F73EF49095809570956195C5
:1010B0007F4F8F4F9F4F0895A8D208F48FEF089568
:1010C000A4D2880B990B0895CF93DF9382309105BA
:1010D00010F482E090E0E091EA02F091EB0220E06F
:1010E00030E0C0E0D0E0309711F1408151814817E5
:1010F0005907C0F04817590761F4828193812097FE
:1011000019F09B838A832BC09093EB028093EA02B1
:1011100026C02115310519F04217530718F49A011A
:10112000BE01DF01EF010280F381E02DDCCF21154C
:10113000310509F1281B390B2430310590F4129642
:101140008D919C9113976115710521F0FB0193839B
:10115000828304C09093EB028093EA02FD013296F1
:1011600044C0FD01E20FF31F819391932250310996
:101170002D933C933AC02091E8023091E902232B51
:1011800041F420910602309107023093E902209346
:10119000E80220910402309105022115310541F445
:1011A0002DB73EB74091080250910902241B350B20
:1011B000E091E802F091E902E217F307A0F42E1B98
:1011C0003F0B2817390778F0AC014E5F5F4F2417AB
:1011D000350748F04E0F5F1F5093E9024093E80235
:1011E0008193919302C0E0E0F0E0CF01DF91CF91D5
:1011F00008950F931F93CF93DF93009709F48CC04A
:10120000FC013297138212820091EA021091EB02E4
:101210000115110581F420813181820F931F2091E6
:10122000E8023091E9022817390779F5F093E902CD
:10123000E093E80271C0D80140E050E0AE17BF076C
:1012400050F412962D913C911397AD012115310563
:1012500009F1D901F3CF9D01DA0133832283608143
:101260007181860F971F8217930769F4EC0128811B
:101270003981260F371F2E5F3F4F318320838A81AC
:101280009B8193838283452B29F4F093EB02E093B7
:10129000EA0242C01396FC93EE931297ED01499136
:1012A00059919E01240F351FE217F30771F48081D5
:1012B0009181840F951F029611969C938E93828143
:1012C000938113969C938E931297E0E0F0E0D801FF
:1012D00012968D919C911397009719F0F8018C014B
:1012E000F6CF8D919C9198012E5F3F4F820F931FF7
:1012F0002091E8023091E9022817390769F4309704
:1013000029F41092EB021092EA0202C013821282B8
:101310001093E9020093E802DF91CF911F910F91A2
:1013200008956F927F928F929F92AF92BF92CF92C9
:10133000DF92EF92FF920F931F93CF93DF93EC0115
:10134000009781F4CB01DF91CF911F910F91FF9016
:10135000EF90DF90CF90BF90AF909F908F907F9055
:101360006F90B2CEFC01E60FF71F9C0122503109AD
:10137000E217F30708F4A8C0D9010D911C91119749
:1013800006171707A8F00530110508F49BC0C8011F
:1013900004978617970708F495C002501109061B99
:1013A000170B019311936D937C93CF0122DF8AC0B9
:1013B0005B01A01AB10A4C01800E911EA091EA02B5
:1013C000B091EB0240E050E0E12CF12C109709F4D1
:1013D0004AC0A815B905D1F56D907C9011976301AD
:1013E00082E0C80ED11CCA14DB0480F1A3014A19A3
:1013F0005B096A0182E0C80ED11C1296BC9012975C
:101400001396AC91B5E0CB16D10440F0B282A38321
:1014100051834083D9016D937C930AC00E5F1F4FA7
:10142000C301800F911FF90191838083EB2DFA2F67
:10143000E114F10431F0D7011396FC93EE93129767
:1014400041C0F093EB02E093EA023CC08D919C9185
:1014500011974817590708F4AC017D0112960D90B9
:10146000BC91A02DB3CF8091E8029091E90288153C
:101470009905E1F446175707C8F48091040290914A
:101480000502009741F48DB79EB740910802509134
:101490000902841B950BE817F907B0F4F093E902F1
:1014A000E093E802F901718360830CC0CB010CDE8C
:1014B0007C01009749F0A801BE011BD0CE0199DE46
:1014C000C70104C0CE0102C080E090E0DF91CF915F
:1014D0001F910F91FF90EF90DF90CF90BF90AF9052
:1014E0009F908F907F906F90089581E090E0F894A6
:1014F00064C1FB01DC0102C001900D9241505040DB
:10150000D8F70895FB01DC0101900D920020E1F76E
:1015100008951F93FC0199278827BC01E894119135
:101520001032E9F3193010F01E30C8F31B3249F0C5
:101530001D3241F4689405C012D0610F711D811DE8
:10154000911D119110531A30B8F33EF49095809587
:10155000709561957F4F8F4F9F4F1F910895592F21
:10156000482F372F262F660F771F881F991F660F6A
:10157000771F881F991F620F731F841F951F660FA7
:10158000771F881F991F089540D008F481E00895BF
:10159000E89409C097FB3EF490958095709561950D
:1015A0007F4F8F4F9F4F9923A9F0F92F96E9BB27C3
:1015B0009395F695879577956795B795F111F8CF3F
:1015C000FAF4BB0F11F460FF1BC06F5F7F4F8F4FAA
:1015D0009F4F16C0882311F096E911C0772321F0A0
:1015E0009EE8872F762F05C0662371F096E8862F38
:1015F00070E060E02AF09A95660F771F881FDAF78F
:10160000880F9695879597F90895990F0008550FBB
:10161000AA0BE0E8FEEF16161706E807F907C0F078
:1016200012161306E407F50798F0621B730B840B80
:10163000950B39F40A2661F0232B242B252B21F45A
:1016400008950A2609F4A140A6958FEF811D811DFA
:1016500008950BD078C069D028F06ED018F095238B
:1016600009F05AC05FC01124A2C07ED0A0F3959F9C
:10167000D1F3950F50E0551F629FF001729FBB2779
:10168000F00DB11D639FAA27F00DB11DAA1F649F25
:101690006627B00DA11D661F829F2227B00DA11DD8
:1016A000621F739FB00DA11D621F839FA00D611D5E
:1016B000221F749F3327A00D611D231F849F600D7F
:1016C000211D822F762F6A2F11249F5750408AF0B8
:1016D000E1F088234AF0EE0FFF1FBB1F661F771F44
:1016E000881F91505040A9F79E3F510570F014C0DB
:1016F0005EC05F3FECF3983EDCF386957795679587
:10170000B795F795E7959F5FC1F7FE2B880F911D61
:101710009695879597F9089597F99F6780E870E007
:1017200060E008959FEF80EC089500240A94161657
:10173000170618060906089500240A9412161306BF
:10174000140605060895092E0394000C11F488234D
:1017500052F0BB0F40F4BF2B11F460FF04C06F5F69
:101760007F4F8F4F9F4F089557FD9058440F551F3F
:1017700059F05F3F71F04795880F97FB991F61F013
:101780009F3F79F087950895121613061406551F8A
:10179000F2CF4695F1DF08C0161617061806991FF6
:1017A000F1CF86957105610508940895E894BB27EB
:1017B00066277727CB0197F9089510E0C3E7D0E0BB
:1017C00000E005C0802FFE0176DB2196011DC437A5
:0C17D000D10780E00807B1F7F894FFCFC4
:1017DC000000803F0000EC028000000000002701A8
:1017EC00A400F100CF00E3006D016E616E00696E24
:0E17FC0066006F7666002E0009000D0A0000E0
:00000001FF
