:100000000C945E000C9486000C9486000C94860080
:100010000C9486000C9486000C9486000C94860048
:100020000C9486000C9486000C9486000C94860038
:100030000C9486000C9486000C9486000C94860028
:100040000C9416040C9486000C94E4030C94BE03E8
:100050000C9486000C9486000C9486000C94860008
:100060000C9486000C948600000000080002010039
:100070000003040700000000000000000000000072
:10008000250028002B0000000000240027002A0083
:10009000040404040404040402020202020203032E
:1000A0000303030301020408102040800102040836
:1000B00010200102040810206004C70611241FBE8E
:1000C000CFEFD8E0DEBFCDBF11E0A0E0B1E0ECE2C1
:1000D000F7E102C005900D92A234B107D9F722E0F2
:1000E000A2E4B1E001C01D92A530B207E1F710E033
:1000F000CDE5D0E004C02197FE010E94CD06CC35AD
:10010000D107C9F70E949B040C94890B0C94000042
:1001100090E0FC01EC55FF4F2491FC01E057FF4FAC
:100120008491882399F090E0880F991FFC01EA5789
:10013000FF4FA591B491FC01E458FF4F8591949134
:100140008FB7F894EC91E22BEC938FBF0895CF9288
:10015000DF92EF92FF920F931F93CF93DF936C0187
:100160007A018B01C0E0D0E0CE15DF0589F0D8011F
:100170006D918D01D601ED91FC910190F081E02D02
:10018000C6010995892B11F47E0102C02196ECCF9E
:10019000C701DF91CF911F910F91FF90EF90DF90FA
:1001A000CF900895FC01918D828D981761F0828D1A
:1001B000DF01A80FB11D5D968C91928D9F5F9F739B
:1001C000928F90E008958FEF9FEF0895FC01918D3D
:1001D000828D981731F0828DE80FF11D858D90E0AA
:1001E00008958FEF9FEF0895FC01918D228D892F47
:1001F00090E0805C9F4F821B91098F73992708952F
:100200008EE591E00E94F40021E0892B09F420E0C2
:10021000822F0895FC01848DDF01A80FB11DA35A20
:10022000BF4F2C91848D90E001968F739927848F16
:10023000A689B7892C93A089B1898C9180648C930D
:10024000938D848D981306C00288F389E02D8081F8
:100250008F7D80830895EF92FF920F931F93CF932A
:10026000DF93EC0181E0888F9B8D8C8D981305C006
:10027000E889F989808185FD24C0F62E0B8D10E078
:100280000F5F1F4F0F731127E02E8C8DE8120CC0EB
:100290000FB607FCFACFE889F989808185FFF5CF91
:1002A000CE010E940A01F1CF8B8DFE01E80FF11DF6
:1002B000E35AFF4FF0820B8FEA89FB8980818062CD
:1002C00007C0EE89FF896083E889F98980818064AD
:1002D000808381E090E0DF91CF911F910F91FF909B
:1002E000EF900895CF93DF93EC01888D8823C9F0B8
:1002F000EA89FB89808185FD05C0A889B9898C912F
:1003000086FD0FC00FB607FCF5CF808185FFF2CFC9
:10031000A889B9898C9185FFEDCFCE010E940A0191
:10032000E7CFDF91CF91089590E0FC01E859FF4FAE
:100330003491FC01EC55FF4F2491FC01E057FF4F35
:10034000E491EE2309F43BC0332339F1333091F0CB
:1003500038F43130A9F0323001F584B58F7D12C008
:10036000373091F03830A1F03430B9F4809180000A
:100370008F7D03C0809180008F77809380000DC0B7
:1003800084B58F7784BD09C08091B0008F7703C09A
:100390008091B0008F7D8093B000F0E0EE0FFF1FE2
:1003A000E458FF4FA591B4918FB7F894EC91611187
:1003B00003C020952E2301C02E2B2C938FBF0895B0
:1003C00020E030E0A90160915101709152018091CB
:1003D0005301909154010E94E107409143015091D3
:1003E0004401609145017091460118160CF0705857
:1003F0004093510150935201609353017093540103
:10040000089560E08EE00E94940160E08FE00E9419
:10041000940160E080E10E94940160E081E10C942D
:100420009401CF93DF93D82F90914201882311F04C
:100430009F5F01C0915090934201809142018430AE
:100440001CF01092420105C087FF03C083E0809337
:100450004201C0914201C130A9F04CF4C11121C048
:1004600061E08FE00E94940160E08EE018C0C2302D
:1004700081F0C330B1F461E08EE00E94940160E04D
:1004800081E10DC061E080E10E94940160E08FE0B5
:1004900006C061E081E10E94940160E080E10E9479
:1004A00094016C2F617867FF03C061506E6F6F5FBE
:1004B0008DE00E9494016D2F8CE0DF91CF910C9420
:1004C0009401CF92DF92EF92FF92CF93C0905101AF
:1004D000D0905201E0905301F090540120E030E0C0
:1004E000A901C701B6010E94E107181674F4209112
:1004F0004301309144014091450150914601C701AB
:10050000B6010E94E10787FF1FC020E030E0A9018B
:10051000C701B6010E942E0A87FF18C080914301CF
:1005200090914401A0914501B09146019C01AD011B
:100530005058C1E0C701B6010E942E0A18160CF4EB
:10054000C0E08C2F819503C081E001C080E0CF9195
:10055000FF90EF90DF90CF9008950E94DD090F93F8
:100560001F93CF93DF93EC0188819981009729F045
:100570002A813B812617370788F48B016F5F7F4FF5
:100580000E941309009761F0998388831B830A8373
:100590002C813D81232B11F4FC01108281E001C0EC
:1005A00080E0DF91CF911F910F910895EF92FF921C
:1005B0000F931F93CF93DF93EC017B018A01BA0164
:1005C0000E94AF022881398181110DC021153105AA
:1005D00019F0C9010E947B08198218821D821C82B1
:1005E0001B821A8206C01D830C83B701C9010E94B9
:1005F000EB09CE01DF91CF911F910F91FF90EF900A
:100600000895CF92DF92EF92FF920F931F93CF93B3
:10061000DF9300D0CDB7DEB70FEF11E08EE591E0AC
:100620000E94F400892B09F498C08EE591E00E94A5
:10063000D200D82E89831A82E090FF01F090000248
:100640008FEFE81AF80AB7018BEF91E00E94AF0232
:10065000882399F02091FB013091FC018091FF01EA
:1006600090910002BE016F5F7F4F820F931F0E9427
:10067000EB09F0920002E092FF018AE0D812CECF9F
:100680008091FB019091FC01009719F00E94F20902
:1006900003C060E070E0CB010E94350A609359010D
:1006A00070935A0180935B0190935C0120915501F6
:1006B0003091560140915701509158010E94D30644
:1006C0006B017C0120E030E0A9010E94E1071816CF
:1006D0001CF41093500117C020E030E0A901C701BD
:1006E000B6010E942E0A87FD0093500120E030E001
:1006F000A901C701B6010E94E107181624F0F7FA14
:10070000F094F7F8F09420E030E040EA51E4C701BB
:10071000B6010E94E10718164CF0C0924301D09236
:100720004401E0924501F09246010CC080E090E067
:10073000A0EAB1E48093430190934401A093450162
:10074000B093460110935D0140E050E061E471E038
:100750008BEF91E00E94D60261CF0F900F90DF9156
:10076000CF911F910F91FF90EF90DF90CF90089560
:100770000E94000181110C94010308951F920F92B1
:100780000FB60F9211242F933F934F935F936F9364
:100790007F938F939F93AF93BF93EF93FF938EE5D8
:1007A00091E00E940A01FF91EF91BF91AF919F915B
:1007B0008F917F916F915F914F913F912F910F900A
:1007C0000FBE0F901F9018951F920F920FB60F92A9
:1007D00011242F938F939F93EF93FF93E0916E01DA
:1007E000F0916F018081E0917401F091750182FDBB
:1007F00012C09081809177018F5F8F732091780173
:10080000821751F0E0917701F0E0E25AFE4F958FA8
:100810008093770101C08081FF91EF919F918F912B
:100820002F910F900FBE0F901F9018951F920F924F
:100830000FB60F9211242F933F938F939F93AF93F3
:10084000BF9380914C0190914D01A0914E01B091C8
:100850004F0130914B0123E0230F2D3720F40196F7
:10086000A11DB11D05C026E8230F0296A11DB11DD3
:1008700020934B0180934C0190934D01A0934E0126
:10088000B0934F018091470190914801A091490197
:10089000B0914A010196A11DB11D8093470190932B
:1008A0004801A0934901B0934A01BF91AF919F9134
:1008B0008F913F912F910F900FBE0F901F90189521
:1008C000EEE5F1E01382128288EE93E0A0E0B0E062
:1008D00084839583A683B7838EE091E091838083A0
:1008E00085EC90E09587848784EC90E097878687F5
:1008F00080EC90E0918B808B81EC90E0938B828BED
:1009000082EC90E0958B848B86EC90E0978B868BC5
:10091000118E128E138E148EEBEFF1E01182108285
:10092000138212821582148240E050E061E471E08B
:10093000CF010C94D602789484B5826084BD84B5CE
:10094000816084BD85B5826085BD85B5816085BDCA
:1009500080916E00816080936E0010928100809182
:10096000810082608093810080918100816080930A
:100970008100809180008160809380008091B1002F
:1009800084608093B1008091B00081608093B0005A
:1009900080917A00846080937A0080917A008260EE
:1009A00080937A0080917A00816080937A008091B0
:1009B0007A00806880937A001092C100E0916E0105
:1009C000F0916F0182E08083E0916A01F0916B0108
:1009D0001082E0916C01F0916D0180E180831092B2
:1009E0007601E0917201F091730186E08083E091DD
:1009F0007001F0917101808180618083E0917001CC
:100A0000F0917101808188608083E0917001F091A4
:100A10007101808180688083E0917001F0917101A3
:100A200080818F7D808368EC70E08BEF91E00E9485
:100A3000AF0244E250E06AE171E08EE591E00E948D
:100A4000A70042E050E06FE371E08EE591E00E9484
:100A5000A7008EE00E9488008FE00E94880080E15D
:100A60000E94880081E10E9488008CE00E9488003A
:100A70008DE00E94880080915D01882309F472C096
:100A800020915501309156014091570150915801E4
:100A90006091590170915A0180915B0190915C01C4
:100AA0000E94E10787FD30C00E946102811123C0CE
:100AB0002DEC3CEC4CE45EE360910001709101018F
:100AC00080910201909103010E94940A9B01AC0164
:100AD00060915101709152018091530190915401A4
:100AE0000E94D40660935101709352018093530188
:100AF0009093540102C00E94E0018091500187FF51
:100B00009EC010925D019BC00E946102811123C0B2
:100B10002DEC3CEC4CE45EE360910001709101012E
:100B200080910201909103010E94940A9B01AC0103
:100B30006091510170915201809153019091540143
:100B40000E94D30660935101709352018093530128
:100B50009093540102C00E94E00180915001181648
:100B600084F26DC0C0905101D0905201E0905301C9
:100B7000F090540120E030E0A901C701B6010E94C5
:100B8000E10718167CF520E030E040E05FE360917B
:100B900000017091010180910201909103010E9476
:100BA000940A9B01AC01C701B6010E94D306609371
:100BB000510170935201809353019093540120E0AE
:100BC00030E040E050E40E942E0A87FF38C01092C7
:100BD00051011092520110925301109254010E943F
:100BE00001022DC020E030E0A901C701B6010E943A
:100BF0002E0A87FF24C020E030E040E05FE36091F0
:100C000000017091010180910201909103010E9405
:100C1000940A9B01AC01C701B6010E94D4066093FF
:100C2000510170935201809353019093540120E03D
:100C300030E040E050EC0E94E107181644F2C0900A
:100C40005101D0905201E0905301F090540120E006
:100C500030E040E050E4C701B6010E942E0A87FF51
:100C600017C020E030E040E050ECC701B6010E9420
:100C7000E10718166CF480E090E0A0E8BFE38093F1
:100C8000000190930101A0930201B09303011DC0E4
:100C9000A701960160E070E080E89FE30E944007B2
:100CA0004B015C0120E030E0A9010E94E107181629
:100CB00024F0B7FAB094B7F8B09480920001909203
:100CC0000101A0920201B092030120E030E0A901ED
:100CD000C701B6010E94E1071816C4F420E030E015
:100CE00040E85FE360915501709156018091570192
:100CF000909158010E94D40660935501709356015B
:100D0000809357019093580181E020C020E030E0AB
:100D1000A901C701B6010E942E0A87FF19C020E071
:100D200030E040E85FE36091550170915601809199
:100D30005701909158010E94D3066093550170931A
:100D40005601809357019093580180E00E94110250
:100D500020E030E44CE956E460910001709101011B
:100D600080910201909103010E94940A0E94B207AF
:100D70006230710548F0660F771F660F771F655068
:100D80007109CB010197F1F70E94B80374CE8091ED
:100D9000FB019091FC010C947B08EE0FFF1F059066
:100DA000F491E02D09945058BB27AA270E94EB0626
:100DB0000C94180B0E940A0B38F00E94110B20F0C3
:100DC00039F49F3F19F426F40C94070B0EF4E095C8
:100DD000E7FB0C94010BE92F0E94290B58F3BA177B
:100DE000620773078407950720F079F4A6F50C9441
:100DF0004B0B0EF4E0950B2EBA2FA02D0B01B90171
:100E000090010C01CA01A0011124FF27591B99F080
:100E1000593F50F4503E68F11A16F040A22F232F8C
:100E2000342F4427585FF3CF469537952795A795DC
:100E3000F0405395C9F77EF41F16BA0B620B730B83
:100E4000840BBAF09150A1F0FF0FBB1F661F771FF4
:100E5000881FC2F70EC0BA0F621F731F841F48F4A9
:100E6000879577956795B795F7959E3F08F0B0CF32
:100E70009395880F08F09927EE0F97958795089519
:100E80000E9454070C94180B0E94110B58F00E94FA
:100E90000A0B40F029F45F3F29F00C94010B51112B
:100EA0000C944C0B0C94070B0E94290B68F39923AC
:100EB000B1F3552391F3951B550BBB27AA27621756
:100EC0007307840738F09F5F5F4F220F331F441F63
:100ED000AA1FA9F335D00E2E3AF0E0E832D0915097
:100EE0005040E695001CCAF72BD0FE2F29D0660F84
:100EF000771F881FBB1F261737074807AB07B0E8C7
:100F000009F0BB0B802DBF01FF2793585F4F3AF0CC
:100F10009E3F510578F00C94010B0C944C0B5F3FF5
:100F2000E4F3983ED4F3869577956795B795F79552
:100F30009F5FC9F7880F911D9695879597F908953A
:100F4000E1E0660F771F881FBB1F621773078407D6
:100F5000BA0720F0621B730B840BBA0BEE1F88F7E5
:100F6000E09508950E94310B88F09F5798F0B92FB3
:100F70009927B751B0F0E1F0660F771F881F991FCE
:100F80001AF0BA95C9F714C0B13091F00E944B0B1A
:100F9000B1E008950C944B0B672F782F8827B85F2A
:100FA00039F0B93FCCF3869577956795B395D9F726
:100FB0003EF490958095709561957F4F8F4F9F4F30
:100FC00008950E94700A08F48FEF0895CF93DF937D
:100FD0008230910510F482E090E0E0910302F091FC
:100FE000040220E030E0C0E0D0E0309711F1408111
:100FF000518148175907C0F04817590761F4828199
:101000009381209719F09B838A832BC090930402CD
:101010008093030226C02115310519F042175307AA
:1010200018F49A01BE01DF01EF010280F381E02D87
:10103000DCCF2115310509F1281B390B243031058E
:1010400090F412968D919C9113976115710521F082
:10105000FB019383828304C0909304028093030274
:10106000FD01329644C0FD01E20FF31F819391937D
:10107000225031092D933C933AC0209101023091C6
:101080000202232B41F42091060130910701309395
:1010900002022093010220910401309105012115E3
:1010A000310541F42DB73EB7409108015091090137
:1010B000241B350BE0910102F0910202E217F307C5
:1010C000A0F42E1B3F0B2817390778F0AC014E5FB8
:1010D0005F4F2417350748F04E0F5F1F50930202F1
:1010E000409301028193919302C0E0E0F0E0CF01D0
:1010F000DF91CF9108950F931F93CF93DF930097C4
:1011000009F48CC0FC013297138212820091030211
:10111000109104020115110581F420813181820FA3
:10112000931F20910102309102022817390779F5A7
:10113000F0930202E093010271C0D80140E050E058
:10114000AE17BF0750F412962D913C911397AD0145
:101150002115310509F1D901F3CF9D01DA0133835E
:10116000228360817181860F971F8217930769F42C
:10117000EC0128813981260F371F2E5F3F4F3183C5
:1011800020838A819B8193838283452B29F4F0936A
:101190000402E093030242C01396FC93EE9312976D
:1011A000ED01499159919E01240F351FE217F30774
:1011B00071F480819181840F951F029611969C9302
:1011C0008E938281938113969C938E931297E0E085
:1011D000F0E0D80112968D919C911397009719F029
:1011E000F8018C01F6CF8D919C9198012E5F3F4FB5
:1011F000820F931F209101023091020228173907B4
:1012000069F4309729F4109204021092030202C08C
:10121000138212821093020200930102DF91CF9198
:101220001F910F910895A0E0B0E0E9E1F9E00C947E
:10123000560BEC01009721F4CB010E94E607B8C0E1
:10124000FC01E60FF71F9C0122503109E217F3075A
:1012500008F4ACC0D9010D911C911197061717071E
:10126000B0F00530110508F49FC0C8010497861737
:10127000970708F499C002501109061B170B019338
:1012800011936D937C93CF010E947B088DC05B010D
:10129000A01AB10A4C01800E911EA0910302B091D8
:1012A000040240E050E0E12CF12C109709F44AC010
:1012B000A815B905D1F56D907C901197630182E076
:1012C000C80ED11CCA14DB0480F1A3014A195B09C2
:1012D0006A0182E0C80ED11C1296BC901297139638
:1012E000AC91B5E0CB16D10440F0B282A383518318
:1012F0004083D9016D937C930AC00E5F1F4FC301D9
:10130000800F911FF90191838083EB2DFA2FE11457
:10131000F10431F0D7011396FC93EE93129744C079
:10132000F0930402E09303023FC08D919C911197CA
:101330004817590708F4AC017D0112960D90BC9135
:10134000A02DB3CF809101029091020288159905DA
:10135000E1F446175707C8F4809104019091050104
:10136000009741F48DB79EB7409108015091090153
:10137000841B950BE817F907C8F4F0930202E09379
:101380000102F901718360830FC0CB010E94E6075F
:101390007C01009759F0A801BE010E94E209CE012C
:1013A0000E947B08C70104C0CE0102C080E090E02B
:1013B000CDB7DEB7EEE00C94720B81E090E0F894CC
:1013C0000C94890BFB01DC0102C001900D9241508D
:1013D0005040D8F70895FB01DC0101900D920020E8
:1013E000E1F708951F93FC0199278827BC01E89431
:1013F00011911032E9F3193010F01E30C8F31B328E
:1014000051F01D3249F4689406C00E94190A610F18
:10141000711D811D911D119110531A30B0F33EF4CE
:1014200090958095709561957F4F8F4F9F4F1F913D
:101430000895592F482F372F262F660F771F881FA3
:10144000991F660F771F881F991F620F731F841FD4
:10145000951F660F771F881F991F08950E94700AB5
:1014600008F481E00895E89409C097FB3EF4909554
:101470008095709561957F4F8F4F9F4F9923A9F06D
:10148000F92F96E9BB279395F695879577956795FC
:10149000B795F111F8CFFAF4BB0F11F460FF1BC040
:1014A0006F5F7F4F8F4F9F4F16C0882311F096E9D3
:1014B00011C0772321F09EE8872F762F05C0662381
:1014C00071F096E8862F70E060E02AF09A95660F3A
:1014D000771F881FDAF7880F9695879597F90895F3
:1014E000990F0008550FAA0BE0E8FEEF1616170635
:1014F000E807F907C0F012161306E407F50798F09D
:10150000621B730B840B950B39F40A2661F0232BB5
:10151000242B252B21F408950A2609F4A140A69531
:101520008FEF811D811D08950E94A70A0C94180B4E
:101530000E940A0B38F00E94110B20F0952311F045
:101540000C94010B0C94070B11240C944C0B0E946F
:10155000290B70F3959FC1F3950F50E0551F629FC3
:10156000F001729FBB27F00DB11D639FAA27F00DFC
:10157000B11DAA1F649F6627B00DA11D661F829F23
:101580002227B00DA11D621F739FB00DA11D621F08
:10159000839FA00D611D221F749F3327A00D611D25
:1015A000231F849F600D211D822F762F6A2F112407
:1015B0009F5750409AF0F1F088234AF0EE0FFF1F3A
:1015C000BB1F661F771F881F91505040A9F79E3F91
:1015D000510580F00C94010B0C944C0B5F3FE4F32D
:1015E000983ED4F3869577956795B795F795E795E7
:1015F0009F5FC1F7FE2B880F911D9695879597F9F0
:10160000089597F99F6780E870E060E008959FEF84
:1016100080EC089500240A94161617061806090689
:10162000089500240A941216130614060506089558
:10163000092E0394000C11F4882352F0BB0F40F4E0
:10164000BF2B11F460FF04C06F5F7F4F8F4F9F4F20
:10165000089557FD9058440F551F59F05F3F71F0A2
:101660004795880F97FB991F61F09F3F79F0879509
:101670000895121613061406551FF2CF4695F1DF92
:1016800008C0161617061806991FF1CF8695710522
:10169000610508940895E894BB2766277727CB0156
:1016A00097F908952F923F924F925F926F927F9297
:1016B0008F929F92AF92BF92CF92DF92EF92FF9262
:1016C0000F931F93CF93DF93CDB7DEB7CA1BDB0B0E
:1016D0000FB6F894DEBF0FBECDBF09942A883988B3
:1016E00048885F846E847D848C849B84AA84B984BA
:1016F000C884DF80EE80FD800C811B81AA81B981C6
:10170000CE0FD11D0FB6F894DEBF0FBECDBFED01D9
:10171000089510E0CDE5D0E004C0FE010E94CD06A2
:0C1720002196CE35D107C9F7F894FFCF11
:10172C000000803F000005028000000000002B013B
:10173C00A700F400D200E600720174696D650963BC
:10174C006F6F7264097370656564096469720972FC
:10175C00756E097461726765745370656564000D0C
:02176C000A0071
:00000001FF
