:1000000073C00000A0C000009EC000009CC00000A3
:100010009AC0000098C0000096C0000094C0000084
:1000200092C0000090C000008EC000008CC0000094
:100030008AC0000088C0000086C0000084C00000A4
:1000400082C0000080C000007EC000007CC00000B4
:100050007AC0000078C0000076C00000ECC4000048
:1000600072C00000B2C4000087C400006CC0000071
:100070006AC0000068C0000066C0000064C00000E4
:1000800062C0000060C000005EC000005CC00000F4
:100090005AC0000058C0000056C0000054C0000004
:1000A00052C0000050C000004EC000004CC0000014
:1000B0004AC0000048C0000046C0000044C0000024
:1000C00042C0000040C000003EC000003CC0000034
:1000D0003AC0000038C0000036C0000034C0000044
:1000E00032C000006505170811241FBECFEFD1E212
:1000F000DEBFCDBF00E00CBF12E0A0E0B2E0E2EA5C
:10010000F9E100E00BBF02C007900D92A235B107E4
:10011000D9F723E0A2E5B2E001C01D92A431B207F5
:10012000E1F710E0C3E7D0E000E005C02197010946
:10013000802FFE01A3D7C237D10780E00807B1F7AF
:10014000FED40C94C00C5CCFCF92DF92EF92FF9262
:100150000F931F93CF93DF936C017A018B01C0E063
:10016000D0E0CE15DF0589F0D8016D918D01D60163
:10017000ED91FC910190F081E02DC6011995892B3C
:1001800011F47E0102C02196ECCFC701DF91CF911F
:100190001F910F91FF90EF90DF90CF900895FC0199
:1001A000918D828D981761F0828DDF01A80FB11DAE
:1001B0005D968C91928D9F5F9F73928F90E00895D2
:1001C0008FEF9FEF0895FC01918D828D981731F08C
:1001D000828DE80FF11D858D90E008958FEF9FEFE0
:1001E0000895FC01918D228D892F90E0805C9F4FB6
:1001F000821B91098F73992708958DE692E0F1DFB4
:1002000021E0892B09F420E0822F0895FC01848DE0
:10021000DF01A80FB11DA35ABF4F2C91848D90E030
:1002200001968F739927848FA689B7892C93A0890B
:10023000B1898C9180648C93938D848D981306C0C2
:100240000288F389E02D80818F7D80830895EF926D
:10025000FF920F931F93CF93DF93EC0181E0888F80
:100260009B8D8C8D981305C0E889F989808185FD67
:1002700023C0F62E0B8D10E00F5F1F4F0F73112759
:10028000E02E8C8DE8120BC00FB607FCFACFE88980
:10029000F989808185FFF5CFCE01B8DFF2CF8B8D54
:1002A000FE01E80FF11DE35AFF4FF0820B8FEA8940
:1002B000FB898081806207C0EE89FF896083E889BD
:1002C000F98980818064808381E090E0DF91CF9123
:1002D0001F910F91FF90EF900895CF93DF93EC0162
:1002E000888D8823C1F0EA89FB89808185FD05C05E
:1002F000A889B9898C9186FD0EC00FB607FCF5CF91
:10030000808185FFF2CFA889B9898C9185FFEDCFD7
:10031000CE017CDFE8CFDF91CF9108953FB7F8940D
:100320008091530290915402A0915502B0915602CF
:1003300026B5A89B05C02F3F19F00196A11DB11D40
:100340003FBFBA2FA92F982F8827820F911DA11D7B
:10035000B11DBC01CD0142E0660F771F881F991FB8
:100360004A95D1F7089520E030E0A901609160023C
:1003700070916102809162029091630280D74091F6
:100380005B0250915C0260915D0270915E021816F2
:100390000CF07058409360025093610260936202C7
:1003A000709363020895CF92DF92EF92FF92CF9302
:1003B000C0906002D0906102E0906202F09063020F
:1003C00020E030E0A901C701B60159D718166CF436
:1003D00020915B0230915C0240915D0250915E027F
:1003E000C701B6014CD787FF1FC020E030E0A9014C
:1003F000C701B6010E94A70B87FF18C080915B025E
:1004000090915C02A0915D02B0915E029C01AD01F1
:100410005058C1E0C701B6010E94A70B18160CF492
:10042000C0E08C2F819503C081E001C080E0CF91B6
:10043000FF90EF90DF90CF900895009761F0FC015E
:1004400001900020E9F73197AF01481B590BBC011F
:100450008DE692E079CE80E090E008958F929F92B1
:10046000AF92BF920F931F93CF93DF93CDB7DEB7B9
:10047000A1970FB6F894DEBF0FBECDBF19A24230D0
:1004800008F44AE08E010F5D1F4F842E912CA12CA1
:10049000B12CA5019401D0D5E62FB901CA010150B4
:1004A0001109EA3014F4E05D01C0E95CD801EC9375
:1004B000232B242B252B69F7C801BFDFA1960FB68C
:1004C000F894DEBF0FBECDBFDF91CF911F910F918A
:1004D000BF90AF909F908F900895CF92DF92EF9250
:1004E000FF92CF93DF936C01990FEE08FF08F7FEA0
:1004F0001EC0E0916D02F0916E020190F081E02D3E
:100500006DE28DE692E01995EC0166277727CB0125
:100510006C197D098E099F094AE0A0DF8C0F9D1F91
:10052000DF91CF91FF90EF90DF90CF9008954AE058
:10053000C701B601DF91CF91FF90EF90DF90CF9090
:100540008DCF4F925F926F927F928F929F92AF92D8
:10055000BF92CF92DF92EF92FF926B017C01B42E9B
:100560009B01AC0190D6882319F08AE192E025C066
:1005700026013701E89477F82FEF3FEF4FE75FE769
:10058000C301B20180D681110DC02FEF3FEF4FE7BD
:100590005FE7C301B2010E94A70B18161CF48EE19D
:1005A00092E00BC02FEF3FEF4FE75FE4C701B601CA
:1005B00066D618167CF482E292E0FF90EF90DF900E
:1005C000CF90BF90AF909F908F907F906F905F90F3
:1005D0004F9033CF2FEF3FEF4FE75FECC701B601EE
:1005E0000E94A70B87FDE7CF20E030E0A901C701FB
:1005F000B6010E94A70B87FF11C0E0916D02F09138
:100600006E020190F081E02D6DE28DE692E0199589
:100610004C01F7FAF094F7F8F09402C0812C912C79
:10062000A12C60E070E080E09FE3AB1439F020E0A3
:1006300030E040E251E48FD5A394F7CF9B01AC01A9
:10064000C701B60124D52B013C01EDD56B017C011E
:100650000E94AB0B9B01AC01C301B20117D52B016A
:100660003C014AE0C701B601F9DE7C01E80CF91C47
:10067000BB2029F086E292E0E0DEE80EF91EDB2CDA
:10068000DD2009F120E030E040E251E4C301B20195
:100690000E940C0C2B013C01C6D54B01A12CB12CA6
:1006A0004AE0C501B401DADEE80EF91EC501B40165
:1006B0000E94AB0B9B01AC01C301B201E7D42B013B
:1006C0003C01DA94DDCFC701FF90EF90DF90CF902F
:1006D000BF90AF909F908F907F906F905F904F9062
:1006E0000895E6D70F931F93CF93DF93EC01888192
:1006F0009981009729F02A813B812617370780F4DA
:100700008B016F5F7F4FF0D6009761F099838883EC
:100710001B830A832C813D81232B11F4FC01108261
:1007200081E001C080E0DF91CF911F910F9108958A
:10073000EF92FF920F931F93CF93DF93EC017B0116
:100740008A01BA01CFDF2881398181110CC02115BE
:10075000310511F0C90130D6198218821D821C8220
:100760001B821A8205C01D830C83B701C901ADD756
:10077000CE01DF91CF911F910F91FF90EF900895DF
:10078000CF92DF92EF92FF920F931F93CF93DF935D
:100790001F921F92CDB7DEB70FEF11E08DE692E00A
:1007A00020DD892B09F4AAC08DE692E0F8DCD82E72
:1007B00089831A82E0900E03F0900F038FEFE81AFE
:1007C000F80AB7018AE093E08DDF882391F0209149
:1007D0000A0330910B0380910E0390910F03BE0129
:1007E0006F5F7F4F820F931F70D7F0920F03E092DD
:1007F0000E038AE0D812D2CF80910A0390910B03A6
:10080000009711F069D703C060E070E0CB01A5D775
:10081000609368027093690280936A0290936B02FE
:100820002091640230916502409166025091670206
:100830002DD46B017C0120E030E0A90120D51816F1
:100840001CF410935F0215C020E030E0A901C7013D
:10085000B6017DD787FD00935F0220E030E0A9015B
:10086000C701B6010CD5181624F0F7FAF094F7F882
:10087000F09420E030E04CE452E4C701B601FFD42C
:1008800018164CF0C0925B02D0925C02E0925D02BE
:10089000F0925E020CC080E090E0ACE4B2E48093A1
:1008A0005B0290935C02A0935D02B0935E0288E2CB
:1008B00092E0C3DD609168027091690280916A02E2
:1008C00090916B0242E03DDE88E292E0B6DD6091FD
:1008D0005B0270915C0280915D0290915E0242E049
:1008E00030DE8AE292E0A9DD10936C0240E050E035
:1008F00069E272E08AE093E01BDF50CF0F900F9027
:10090000DF91CF911F910F91FF90EF90DF90CF90EB
:10091000089573DC811125C080E090E0892B41F0BF
:1009200080E090E0892B21F00E94000081111BC023
:1009300080E090E0892B41F080E090E0892B21F06D
:100940000E940000811112C080E090E0892B99F094
:1009500080E090E0892B79F00E940000811109C0AD
:1009600008950EDFD9CF0E940000E2CF0E94000060
:10097000EBCF0C94000008951F920F920FB60F92C8
:1009800011240BB60F922F933F934F935F936F9366
:100990007F938F939F93AF93BF93EF93FF938DE6D6
:1009A00092E034DCFF91EF91BF91AF919F918F91D5
:1009B0007F916F915F914F913F912F910F900BBE5F
:1009C0000F900FBE0F901F9018951F920F920FB6A9
:1009D0000F9211240BB60F922F938F939F93EF9347
:1009E000FF93E0917D02F0917E028081E09183028D
:1009F000F091840282FD12C09081809186028F5F07
:100A00008F7320918702821751F0E0918602F0E007
:100A1000E359FD4F958F8093860201C08081FF913D
:100A2000EF919F918F912F910F900BBE0F900FBE62
:100A30000F901F9018951F920F920FB60F921124CE
:100A40002F933F938F939F93AF93BF9380915702C0
:100A500090915802A0915902B0915A0230915202DD
:100A600023E0230F2D3720F40196A11DB11D05C0F1
:100A700026E8230F0296A11DB11D209352028093F8
:100A8000570290935802A0935902B0935A02809152
:100A9000530290915402A0915502B09156020196D2
:100AA000A11DB11D8093530290935402A09355024F
:100AB000B0935602BF91AF919F918F913F912F912B
:100AC0000F900FBE0F901F901895EDE6F2E0138285
:100AD000128288EE93E0A0E0B0E084839583A68341
:100AE000B7838EE092E09183808385EC90E09587D8
:100AF000848784EC90E09787868780EC90E0918BE8
:100B0000808B81EC90E0938B828B82EC90E0958BD4
:100B1000848B86EC90E0978B868B118E128E138ED1
:100B2000148EEAE0F3E011821082138212821582A1
:100B3000148240E050E069E272E0CF01F9CD789490
:100B400084B5826084BD84B5816084BD85B58260D2
:100B500085BD85B5816085BD80916E008160809383
:100B60006E001092810080918100826080938100EC
:100B700080918100816080938100809180008160FC
:100B8000809380008091B10084608093B100809157
:100B9000B00081608093B00080919100826080936A
:100BA00091008091910081608093910080919000EC
:100BB0008160809390008091A10082608093A10069
:100BC0008091A10081608093A1008091A00081604C
:100BD0008093A00080912101826080932101809107
:100BE00021018160809321018091200181608093A7
:100BF000200180917A00846080937A0080917A004D
:100C0000826080937A0080917A00816080937A007C
:100C100080917A00806880937A001092C100E09100
:100C20007D02F0917E0282E08083E0917902F09172
:100C30007A021082E0917B02F0917C0280E1808355
:100C400010928502E0918102F091820286E0808319
:100C5000E0917F02F0918002808180618083E09149
:100C60007F02F0918002808188608083E0917F0222
:100C7000F0918002808180688083E0917F02F09112
:100C8000800280818F7D808368EC70E08AE093E051
:100C900029DD8DE292E0D1DB8AE292E0CEDB809129
:100CA0006C02882309F469C02091640230916502C6
:100CB00040916602509167026091680270916902EA
:100CC00080916A0290916B02DAD287FD2CC06BDBB7
:100CD000811121C020E030E040EA50E46091000240
:100CE00070910102809102029091030295D59B01BF
:100CF000AC016091600270916102809162029091FA
:100D00006302C5D1609360027093610280936202B6
:100D10009093630201C027DB80915F0287FF8CC044
:100D200010926C0289C03FDB811121C020E030E0CD
:100D300040EA50E460910002709101028091020249
:100D40009091030269D59B01AC01609160027091A2
:100D50006102809162029091630298D16093600277
:100D600070936102809362029093630201C0FBDA88
:100D700080915F021816A4F25FC0C0906002D0900C
:100D80006102E0906202F090630220E030E0A9018D
:100D9000C701B60174D2181644F560910002709133
:100DA000010280910202909103029B01AC016FD17C
:100DB0009B01AC01C701B60169D1609360027093D9
:100DC0006102809362029093630220E030E040E091
:100DD00050E4BDD487FF30C01092600210926102CF
:100DE000109262021092630227C020E030E0A90155
:100DF000C701B601ACD487FF1FC06091000270919B
:100E0000010280910202909103029B01AC013FD14B
:100E10009B01AC01C701B6013AD1609360027093A7
:100E20006102809362029093630220E030E040E030
:100E300050EC25D2181684F2C0906002D090610266
:100E4000E0906202F090630220E030E040E050E485
:100E5000C701B6017CD487FF16C020E030E040E037
:100E600050ECC701B6010BD218166CF480E090E08C
:100E7000A0E8BFE38093000290930102A0930202D6
:100E8000B093030262C0A701960160E070E080E8C1
:100E90009FE361D16B017C0120E030E0A901EFD13B
:100EA000181624F0F7FAF094F7F8F094C0920002C4
:100EB000D0920102E0920202F09203022FB7F8945E
:100EC00060915702709158028091590290915A0294
:100ED0002FBF4AE0C3DA88E292E0AFDA60916402A1
:100EE00070916502809166029091670242E029DB71
:100EF00088E292E0A2DA60916002709161028091D2
:100F000062029091630242E01CDB88E292E095DA93
:100F100080915F02082E000C990BDFDA88E292E0E4
:100F20008CDA80916C0290E0D8DA88E292E085DA7F
:100F300060915B0270915C0280915D0290915E0213
:100F400042E0FFDA8AE292E078DAC0906002D09064
:100F50006102E0906202F090630220E030E0A901BB
:100F6000C701B6018CD1181674F420E030E040E8D7
:100F70005FE36091640270916502809166029091D6
:100F8000670285D015C020E030E0A901C701B60195
:100F9000DED387FF15C020E030E040E85FE36091DA
:100FA00064027091650280916602909167026ED032
:100FB0006093640270936502809366029093670267
:100FC00020E030E04AE754E46091000270910102B1
:100FD00080910202909103021FD425D16B017C0104
:100FE0009DD94B015C01C114D104E104F104E9F085
:100FF00095D9DC01CB0188199909AA09BB09883E5A
:101000009340A105B10578F321E0C21AD108E108A7
:10101000F10888EE880E83E0981EA11CB11CC11453
:10102000D104E104F10421F7DECF73DC38CE8091E6
:101030000A0390910B03C0C1A1E21A2EAA1BBB1B8D
:10104000FD010DC0AA1FBB1FEE1FFF1FA217B30794
:10105000E407F50720F0A21BB30BE40BF50B661FAA
:10106000771F881F991F1A9469F76095709580956E
:1010700090959B01AC01BD01CF010895EE0FFF1FBC
:10108000881F8BBF0790F691E02D19945058BB270D
:10109000AA270ED03BC42CD430F031D420F031F448
:1010A0009F3F11F41EF421C40EF4E095E7FB17C432
:1010B000E92F3DD480F3BA176207730784079507B9
:1010C00018F071F49EF555C40EF4E0950B2EBA2F6E
:1010D000A02D0B01B90190010C01CA01A00111243E
:1010E000FF27591B99F0593F50F4503E68F11A16EA
:1010F000F040A22F232F342F4427585FF3CF46957B
:1011000037952795A795F0405395C9F77EF41F169C
:10111000BA0B620B730B840BBAF09150A1F0FF0F66
:10112000BB1F661F771F881FC2F70EC0BA0F621F52
:10113000731F841F48F4879577956795B795F79542
:101140009E3F08F0B3CF9395880F08F09927EE0FD4
:101150009795879508950CD0D9C3D1D340F0C8D3C3
:1011600030F021F45F3F19F0BAC3511103C4BDC37D
:10117000DED398F39923C9F35523B1F3951B550B8F
:10118000BB27AA2762177307840738F09F5F5F4F5A
:10119000220F331F441FAA1FA9F333D00E2E3AF09B
:1011A000E0E830D091505040E695001CCAF729D0B5
:1011B000FE2F27D0660F771F881FBB1F2617370704
:1011C0004807AB07B0E809F0BB0B802DBF01FF2734
:1011D00093585F4F2AF09E3F510568F080C3CAC301
:1011E0005F3FECF3983EDCF3869577956795B7956E
:1011F000F7959F5FC9F7880F911D9695879597F989
:101200000895E1E0660F771F881FBB1F6217730701
:101210008407BA0720F0621B730B840BBA0BEE1F16
:1012200088F7E09508958BD388F09F5790F0B92FF9
:101230009927B751A0F0D1F0660F771F881F991F2B
:101240001AF0BA95C9F712C0B13081F092D3B1E06B
:1012500008958FC3672F782F8827B85F39F0B93F7B
:10126000CCF3869577956795B395D9F73EF490952D
:101270008095709561957F4F8F4F9F4F0895A8D2AD
:1012800008F48FEF0895A4D2880B990B0895CF939B
:10129000DF938230910510F482E090E0E091120338
:1012A000F091130320E030E0C0E0D0E0309711F17E
:1012B0004081518148175907C0F04817590761F418
:1012C00082819381209719F09B838A832BC090930E
:1012D00013038093120326C02115310519F042171C
:1012E000530718F49A01BE01DF01EF010280F38178
:1012F000E02DDCCF2115310509F1281B390B2430F5
:10130000310590F412968D919C911397611571059A
:1013100021F0FB019383828304C090931303809395
:101320001203FD01329644C0FD01E20FF31F8193C9
:101330009193225031092D933C933AC02091100390
:1013400030911103232B41F42091060230910702C2
:101350003093110320931003209104023091050271
:101360002115310541F42DB73EB740910802509147
:101370000902241B350BE0911003F0911103E217D1
:10138000F307A0F42E1B3F0B2817390778F0AC01A8
:101390004E5F5F4F2417350748F04E0F5F1F509385
:1013A0001103409310038193919302C0E0E0F0E0B9
:1013B000CF01DF91CF9108950F931F93CF93DF93C8
:1013C000009709F48CC0FC013297138212820091BD
:1013D0001203109113030115110581F4208131814D
:1013E000820F931F209110033091110328173907A2
:1013F00079F5F0931103E093100371C0D80140E038
:1014000050E0AE17BF0750F412962D913C91139700
:10141000AD012115310509F1D901F3CF9D01DA01A3
:101420003383228360817181860F971F8217930710
:1014300069F4EC0128813981260F371F2E5F3F4F59
:10144000318320838A819B8193838283452B29F476
:10145000F0931303E093120342C01396FC93EE93B0
:101460001297ED01499159919E01240F351FE21702
:10147000F30771F480819181840F951F0296119674
:101480009C938E938281938113969C938E93129753
:10149000E0E0F0E0D80112968D919C9113970097AF
:1014A00019F0F8018C01F6CF8D919C9198012E5F77
:1014B0003F4F820F931F2091100330911103281783
:1014C000390769F4309729F410921303109212032C
:1014D00002C0138212821093110300931003DF9154
:1014E000CF911F910F9108956F927F928F929F924B
:1014F000AF92BF92CF92DF92EF92FF920F931F9322
:10150000CF93DF93EC01009781F4CB01DF91CF9172
:101510001F910F91FF90EF90DF90CF90BF90AF9011
:101520009F908F907F906F90B2CEFC01E60FF71FD7
:101530009C0122503109E217F30708F4A8C0D90131
:101540000D911C91119706171707A8F0053011058A
:1015500008F49BC0C80104978617970708F495C044
:1015600002501109061B170B019311936D937C9385
:10157000CF0122DF8AC05B01A01AB10A4C01800EA4
:10158000911EA0911203B091130340E050E0E12CB2
:10159000F12C109709F44AC0A815B905D1F56D9042
:1015A0007C901197630182E0C80ED11CCA14DB0441
:1015B00080F1A3014A195B096A0182E0C80ED11CBF
:1015C0001296BC9012971396AC91B5E0CB16D1044D
:1015D00040F0B282A38351834083D9016D937C9301
:1015E0000AC00E5F1F4FC301800F911FF901918345
:1015F0008083EB2DFA2FE114F10431F0D70113961B
:10160000FC93EE93129741C0F0931303E0931203FF
:101610003CC08D919C9111974817590708F4AC0173
:101620007D0112960D90BC91A02DB3CF8091100337
:101630009091110388159905E1F446175707C8F4EE
:101640008091040290910502009741F48DB79EB7F6
:101650004091080250910902841B950BE817F90785
:10166000B0F4F0931103E0931003F90171836083E8
:101670000CC0CB010CDE7C01009749F0A801BE0133
:101680001BD0CE0199DEC70104C0CE0102C080E0AC
:1016900090E0DF91CF911F910F91FF90EF90DF903D
:1016A000CF90BF90AF909F908F907F906F90089554
:1016B00081E090E0F89464C1FB01DC0102C001907C
:1016C0000D9241505040D8F70895FB01DC01019084
:1016D0000D920020E1F708951F93FC0199278827B8
:1016E000BC01E89411911032E9F3193010F01E306A
:1016F000C8F31B3249F01D3241F4689405C012D082
:10170000610F711D811D911D119110531A30B8F395
:101710003EF490958095709561957F4F8F4F9F4FC8
:101720001F910895592F482F372F262F660F771FA7
:10173000881F991F660F771F881F991F620F731FDD
:10174000841F951F660F771F881F991F089540D02B
:1017500008F481E00895E89409C097FB3EF4909561
:101760008095709561957F4F8F4F9F4F9923A9F07A
:10177000F92F96E9BB279395F69587957795679509
:10178000B795F111F8CFFAF4BB0F11F460FF1BC04D
:101790006F5F7F4F8F4F9F4F16C0882311F096E9E0
:1017A00011C0772321F09EE8872F762F05C066238E
:1017B00071F096E8862F70E060E02AF09A95660F47
:1017C000771F881FDAF7880F9695879597F9089500
:1017D000990F0008550FAA0BE0E8FEEF1616170642
:1017E000E807F907C0F012161306E407F50798F0AA
:1017F000621B730B840B950B39F40A2661F0232BC3
:10180000242B252B21F408950A2609F4A140A6953E
:101810008FEF811D811D08950BD078C069D028F00D
:101820006ED018F0952309F05AC05FC01124A2C0F1
:101830007ED0A0F3959FD1F3950F50E0551F629F86
:10184000F001729FBB27F00DB11D639FAA27F00D19
:10185000B11DAA1F649F6627B00DA11D661F829F40
:101860002227B00DA11D621F739FB00DA11D621F25
:10187000839FA00D611D221F749F3327A00D611D42
:10188000231F849F600D211D822F762F6A2F112424
:101890009F5750408AF0E1F088234AF0EE0FFF1F77
:1018A000BB1F661F771F881F91505040A9F79E3FAE
:1018B000510570F014C05EC05F3FECF3983EDCF35E
:1018C000869577956795B795F795E7959F5FC1F7EB
:1018D000FE2B880F911D9695879597F9089597F996
:1018E0009F6780E870E060E008959FEF80EC0895C6
:1018F00000240A94161617061806090608950024EF
:101900000A9412161306140605060895092E039468
:10191000000C11F4882352F0BB0F40F4BF2B11F4DC
:1019200060FF04C06F5F7F4F8F4F9F4F089557FD3B
:101930009058440F551F59F05F3F71F04795880F3D
:1019400097FB991F61F09F3F79F0879508951216D4
:1019500013061406551FF2CF4695F1DF08C0161680
:1019600017061806991FF1CF869571056105089431
:101970000895E894BB2766277727CB0197F9089548
:1019800010E0C3E7D0E000E005C0802FFE0176DB69
:101990002196011DC437D10780E00807B1F7F894FC
:0219A000FFCF77
:1019A2000000803F000014038000000000002701B7
:1019B200A400F100CF00E3006D016E616E00696E5C
:1019C20066006F7666002E0009000D0A0074696DCC
:1019D2006509636F6F726409737065656409646990
:1019E200720972756E097461726765745370656508
:0219F20064008F
:00000001FF
