:1000000073C000009FC000009DC000009BC00000A6
:1000100099C0000097C0000095C0000093C0000088
:1000200091C000008FC000008DC000008BC0000098
:1000300089C0000087C0000085C0000083C00000A8
:1000400081C000007FC000007DC000007BC00000B8
:1000500079C0000077C0000075C000002DC300000B
:1000600071C00000F3C20000C8C200006BC00000F5
:1000700069C0000067C0000065C0000063C00000E8
:1000800061C000005FC000005DC000005BC00000F8
:1000900059C0000057C0000055C0000053C0000008
:1000A00051C000004FC000004DC000004BC0000018
:1000B00049C0000047C0000045C0000043C0000028
:1000C00041C000003FC000003DC000003BC0000038
:1000D00039C0000037C0000035C0000033C0000048
:1000E00031C00000A6032B0511241FBECFEFD1E2C3
:1000F000DEBFCDBF00E00CBF12E0A0E0B2E0E6E959
:10010000FFE000E00BBF02C007900D92AC31B107D9
:10011000D9F722E0ACE1B2E001C01D92A63DB207E2
:10012000E1F710E0C3E7D0E000E005C02197010946
:10013000802FFE01B7D4C237D10780E00807B1F79E
:100140003FD318C75DCFCF92DF92EF92FF920F930C
:100150001F93CF93DF936C017A018B01C0E0D0E055
:10016000CE15DF0589F0D8016D918D01D601ED9195
:10017000FC910190F081E02DC6011995892B11F4B5
:100180007E0102C02196ECCFC701DF91CF911F9174
:100190000F91FF90EF90DF90CF900895FC01918D2B
:1001A000828D981761F0828DDF01A80FB11D5D96D9
:1001B0008C91928D9F5F9F73928F90E008958FEF47
:1001C0009FEF0895FC01918D828D981731F0828DFB
:1001D000E80FF11D858D90E008958FEF9FEF089552
:1001E000FC01918D228D892F90E0805C9F4F821BB6
:1001F00091098F73992708958FE292E0F1DF21E052
:10020000892B09F420E0822F0895FC01848DDF0101
:10021000A80FB11DA35ABF4F2C91848D90E0019679
:100220008F739927848FA689B7892C93A089B18968
:100230008C9180648C93938D848D981306C0028872
:10024000F389E02D80818F7D80830895EF92FF9266
:100250000F931F93CF93DF93EC0181E0888F9B8DE9
:100260008C8D981305C0E889F989808185FD23C0AC
:10027000F62E0B8D10E00F5F1F4F0F731127E02E2E
:100280008C8DE8120BC00FB607FCFACFE889F9890C
:10029000808185FFF5CFCE01B8DFF2CF8B8DFE01D7
:1002A000E80FF11DE35AFF4FF0820B8FEA89FB89BB
:1002B0008081806207C0EE89FF896083E889F989BF
:1002C00080818064808381E090E0DF91CF911F91F5
:1002D0000F91FF90EF900895CF93DF93EC01888DFD
:1002E0008823C1F0EA89FB89808185FD05C0A88942
:1002F000B9898C9186FD0EC00FB607FCF5CF8081C1
:1003000085FFF2CFA889B9898C9185FFEDCFCE0109
:100310007CDFE8CFDF91CF910895009761F0FC0179
:1003200001900020E9F73197AF01481B590BBC0140
:100330008FE292E008CF80E090E008958F929F9244
:10034000AF92BF92CF92DF92EF92FF920F931F93E3
:10035000CF93DF93CDB7DEB7A1970FB6F894DEBF8A
:100360000FBECDBF6B017C0197FF2FC0E0912F0224
:10037000F09130020190F081E02D6DE28FE292E089
:1003800019958C0122273327A9012C193D094E0903
:100390005F0919A2CE0181967C019AE0892E912CE9
:1003A000A12CB12CCA01B901A501940159D3605DFA
:1003B000F70162937F01211531054105510591F740
:1003C000CF01ABDF800F911F1BC09B01AC0119A2B5
:1003D0008E010F5D1F4F8AE0C82ED12CE12CF12C2D
:1003E000CA01B901A70196013BD3605DF801629390
:1003F0008F01211531054105510591F7CF018DDFA1
:10040000A1960FB6F894DEBF0FBECDBFDF91CF919E
:100410001F910F91FF90EF90DF90CF90BF90AF9022
:100420009F908F90089557D50F931F93CF93DF938D
:10043000EC0188819981009729F02A813B81261758
:10044000370780F48B016F5F7F4F61D4009761F0B5
:10045000998388831B830A832C813D81232B11F48C
:10046000FC01108281E001C080E0DF91CF911F91FB
:100470000F910895EF92FF920F931F93CF93DF9305
:10048000EC017B018A01BA01CFDF2881398181111A
:100490000CC02115310511F0C901A1D319821882B0
:1004A0001D821C821B821A8205C01D830C83B7012A
:1004B000C9011ED5CE01DF91CF911F910F91FF9001
:1004C000EF900895FF920F931F93CF93DF931F92A6
:1004D0001F92CDB7DEB78FE292E082DE892B09F45E
:1004E00051C08FE292E05ADEF82E89831A82009181
:1004F000D0021091D1020F5F1F4FB8018CEC92E037
:1005000093DF882391F02091CC023091CD0280912D
:10051000D0029091D102BE016F5F7F4F820F931F77
:10052000E7D41093D1020093D0028AE0F812D3CF1F
:100530008091CC029091CD02009711F0E0D403C0DD
:1005400060E070E0CB01FADE86E192E0E6DE8091C9
:10055000CC029091CD02009711F0D1D403C060E09D
:1005600070E0CB01609327027093280280932902E8
:1005700090932A0240E050E06AE172E08CEC92E055
:1005800079DFA9CF0F900F90DF91CF911F910F913D
:10059000FF90089531DE811125C080E090E0892B25
:1005A00041F080E090E0892B21F00E940000811151
:1005B0001BC080E090E0892B41F080E090E0892B27
:1005C00021F00E940000811112C080E090E0892B90
:1005D00099F080E090E0892B79F00E940000811171
:1005E00009C008956FDFD9CF0E940000E2CF0E94BA
:1005F0000000EBCF0C94000008951F920F920FB6ED
:100600000F9211240BB60F922F933F934F935F934A
:100610006F937F938F939F93AF93BF93EF93FF93CA
:100620008FE292E0F2DDFF91EF91BF91AF919F9148
:100630008F917F916F915F914F913F912F910F908B
:100640000BBE0F900FBE0F901F9018951F920F9228
:100650000FB60F9211240BB60F922F938F939F9387
:10066000EF93FF93E0913F02F09140028081E0918F
:100670004502F091460282FD12C0908180914802AD
:100680008F5F8F7320914902821751F0E0914802E9
:10069000F0E0E15DFD4F958F8093480201C08081BD
:1006A000FF91EF919F918F912F910F900BBE0F9023
:1006B0000FBE0F901F9018951F920F920FB60F92BA
:1006C00011242F933F938F939F93AF93BF93809168
:1006D000210290912202A0912302B0912402309134
:1006E000200223E0230F2D3720F40196A11DB11D18
:1006F00005C026E8230F0296A11DB11D20932002FC
:100700008093210290932202A0932302B0932402AB
:1007100080911C0290911D02A0911E02B0911F02B7
:100720000196A11DB11D80931C0290931D02A09300
:100730001E02B0931F02BF91AF919F918F913F9185
:100740002F910F900FBE0F901F901895EFE2F2E0DF
:100750001382128288EE93E0A0E0B0E08483958358
:10076000A683B7838AE092E09183808385EC90E052
:100770009587848784EC90E09787868780EC90E06B
:10078000918B808B81EC90E0938B828B82EC90E05C
:10079000958B848B86EC90E0978B868B118E128ED6
:1007A000138E148EECECF2E011821082138212820E
:1007B0001582148240E050E06AE172E0CF015ACE27
:1007C000789484B5826084BD84B5816084BD85B52C
:1007D000826085BD85B5816085BD80916E00816038
:1007E00080936E00109281008091810082608093DE
:1007F00081008091810081608093810080918000E0
:100800008160809380008091B10084608093B1000A
:100810008091B00081608093B000809191008260EF
:1008200080939100809191008160809391008091EC
:1008300090008160809390008091A10082608093FD
:10084000A1008091A10081608093A1008091A0000F
:1008500081608093A00080912101826080932101BA
:10086000809121018160809321018091200181602C
:100870008093200180917A00846080937A00809137
:100880007A00826080937A0080917A008160809300
:100890007A0080917A00806880937A001092C1007B
:1008A000E0913F02F091400282E08083E0913B02C0
:1008B000F0913C021082E0913D02F0913E0280E115
:1008C000808310924702E0914302F091440286E057
:1008D0008083E0914102F0914202808180618083B7
:1008E000E0914102F0914202808188608083E09132
:1008F0004102F0914202808180688083E091410250
:10090000F091420280818F7D808368EC70E08CECF6
:1009100092E08ADD8FB7F894C0902102D090220235
:10092000E0902302F09024028FBF04E6C00ED11C99
:10093000E11CF11C40912B0250912C0260912D0280
:1009400070912E0200912702109128022091290215
:1009500030912A02DB01CA01801B910BA20BB30B61
:100960000596A11DB11D0B97A105B10508F462C044
:100970008091250290912602041715072607370754
:1009800034F48C391FEF91070CF05DC009C040179B
:1009900051076207730724F4853691050CF455C09E
:1009A00080912502909126021816190614F40597D5
:1009B00003C0009729F005969093260280932502A4
:1009C0008091250290912602092E000CAA0BBB0BE8
:1009D0008A019B01080F191F2A1F3B1FC901B8017B
:1009E00000932B0210932C0220932D0230932E02A1
:1009F000A5DC89E192E091DC6091250270912602EC
:100A0000072E000C880B990B99DC86E192E085DCBF
:100A10002FB7F8948091210290912202A091230295
:100A2000B09124022FBF8C159D05AE05BF0580F344
:100A3000B1DD70CF00932B0210932C0220932D0276
:100A400030932E02E5CF0A9701C00A9690932602B2
:100A500080932502A5CF8091CC029091CD02BFC09A
:100A6000A1E21A2EAA1BBB1BFD010DC0AA1FBB1FB2
:100A7000EE1FFF1FA217B307E407F50720F0A21B24
:100A8000B30BE40BF50B661F771F881F991F1A9491
:100A900069F760957095809590959B01AC01BD01BB
:100AA000CF010895EE0FFF1F881F8BBF0790F691AF
:100AB000E02D1994CF93DF938230910510F482E0FA
:100AC00090E0E091D402F091D50220E030E0C0E067
:100AD000D0E0309711F14081518148175907C0F09B
:100AE0004817590761F482819381209719F09B83FD
:100AF0008A832BC09093D5028093D40226C02115FF
:100B0000310519F04217530718F49A01BE01DF01AD
:100B1000EF010280F381E02DDCCF2115310509F1D1
:100B2000281B390B2430310590F412968D919C913D
:100B300013976115710521F0FB019383828304C033
:100B40009093D5028093D402FD01329644C0FD01FA
:100B5000E20FF31F81939193225031092D933C931F
:100B60003AC02091D2023091D302232B41F420913C
:100B70000202309103023093D3022093D2022091DB
:100B80000002309101022115310541F42DB73EB725
:100B90004091040250910502241B350BE091D202D2
:100BA000F091D302E217F307A0F42E1B3F0B281796
:100BB000390778F0AC014E5F5F4F2417350748F0D6
:100BC0004E0F5F1F5093D3024093D20281939193B3
:100BD00002C0E0E0F0E0CF01DF91CF9108950F93E4
:100BE0001F93CF93DF93009709F48CC0FC013297D9
:100BF000138212820091D4021091D50201151105C1
:100C000081F420813181820F931F2091D202309193
:100C1000D3022817390779F5F093D302E093D20273
:100C200071C0D80140E050E0AE17BF0750F41296F3
:100C30002D913C911397AD012115310509F1D90191
:100C4000F3CF9D01DA013383228360817181860FA6
:100C5000971F8217930769F4EC0128813981260FC9
:100C6000371F2E5F3F4F318320838A819B8193837F
:100C70008283452B29F4F093D502E093D40242C03D
:100C80001396FC93EE931297ED01499159919E01B1
:100C9000240F351FE217F30771F480819181840FCF
:100CA000951F029611969C938E9382819381139641
:100CB0009C938E931297E0E0F0E0D80112968D910C
:100CC0009C911397009719F0F8018C01F6CF8D9144
:100CD0009C9198012E5F3F4F820F931F2091D2026B
:100CE0003091D3022817390769F4309729F410920C
:100CF000D5021092D40202C0138212821093D30242
:100D00000093D202DF91CF911F910F9108956F92BE
:100D10007F928F929F92AF92BF92CF92DF92EF928B
:100D2000FF920F931F93CF93DF93EC01009781F411
:100D3000CB01DF91CF911F910F91FF90EF90DF904A
:100D4000CF90BF90AF909F908F907F906F90B2CEDA
:100D5000FC01E60FF71F9C0122503109E217F3074F
:100D600008F4A8C0D9010D911C9111970617170717
:100D7000A8F00530110508F49BC0C8010497861738
:100D8000970708F495C002501109061B170B019331
:100D900011936D937C93CF0122DF8AC05B01A01A6F
:100DA000B10A4C01800E911EA091D402B091D502DF
:100DB00040E050E0E12CF12C109709F44AC0A8154E
:100DC000B905D1F56D907C901197630182E0C80E52
:100DD000D11CCA14DB0480F1A3014A195B096A0122
:100DE00082E0C80ED11C1296BC9012971396AC915B
:100DF000B5E0CB16D10440F0B282A3835183408387
:100E0000D9016D937C930AC00E5F1F4FC301800F01
:100E1000911FF90191838083EB2DFA2FE114F104E6
:100E200031F0D7011396FC93EE93129741C0F093E3
:100E3000D502E093D4023CC08D919C911197481744
:100E4000590708F4AC017D0112960D90BC91A02DBC
:100E5000B3CF8091D2029091D30288159905E1F425
:100E600046175707C8F4809100029091010200973D
:100E700041F48DB79EB74091040250910502841B46
:100E8000950BE817F907B0F4F093D302E093D20280
:100E9000F901718360830CC0CB010CDE7C010097EB
:100EA00049F0A801BE011BD0CE0199DEC70104C0E4
:100EB000CE0102C080E090E0DF91CF911F910F91B1
:100EC000FF90EF90DF90CF90BF90AF909F908F906A
:100ED0007F906F90089581E090E0F8944BC0FB0103
:100EE000DC0102C001900D9241505040D8F70895A6
:100EF000FB01DC0101900D920020E1F708951F93A2
:100F0000FC0199278827BC01E89411911032E9F37C
:100F1000193010F01E30C8F31B3249F01D3241F475
:100F2000689405C012D0610F711D811D911D119132
:100F300010531A30B8F33EF49095809570956195F2
:100F40007F4F8F4F9F4F1F910895592F482F372F55
:100F5000262F660F771F881F991F660F771F881F20
:100F6000991F620F731F841F951F660F771F881FBD
:100F7000991F089510E0C3E7D0E000E005C0802F7E
:100F8000FE0190DD2196011DC437D10780E00807DE
:060F9000B1F7F894FFCF59
:100F96000000D6028000000000002601A300F00039
:0C0FA600CE00E2006C010D0A0009000002
:00000001FF
