:1000000073C00000A0C000009EC000009CC00000A3
:100010009AC0000098C0000096C0000094C0000084
:1000200092C0000090C000008EC000008CC0000094
:100030008AC0000088C0000086C0000084C00000A4
:1000400082C0000080C000007EC000007CC00000B4
:100050007AC0000078C0000076C00000FBC300003A
:1000600072C00000C1C3000096C300006CC0000055
:100070006AC0000068C0000066C0000064C00000E4
:1000800062C0000060C000005EC000005CC00000F4
:100090005AC0000058C0000056C0000054C0000004
:1000A00052C0000050C000004EC000004CC0000014
:1000B0004AC0000048C0000046C0000044C0000024
:1000C00042C0000040C000003EC000003CC0000034
:1000D0003AC0000038C0000036C0000034C0000044
:1000E00032C000007404500611241FBECFEFD1E2CD
:1000F000DEBFCDBF00E00CBF12E0A0E0B2E0E4E163
:10010000F6E100E00BBF02C007900D92AE32B107DE
:10011000D9F722E0AEE2B2E001C01D92A73EB207DD
:10012000E1F710E0C3E7D0E000E005C02197010946
:10013000802FFE01DCD5C237D10780E00807B1F778
:100140000DD40C94F90A5CCFCF92DF92EF92FF921C
:100150000F931F93CF93DF936C017A018B01C0E063
:10016000D0E0CE15DF0589F0D8016D918D01D60163
:10017000ED91FC910190F081E02DC6011995892B3C
:1001800011F47E0102C02196ECCFC701DF91CF911F
:100190001F910F91FF90EF90DF90CF900895FC0199
:1001A000918D828D981761F0828DDF01A80FB11DAE
:1001B0005D968C91928D9F5F9F73928F90E00895D2
:1001C0008FEF9FEF0895FC01918D828D981731F08C
:1001D000828DE80FF11D858D90E008958FEF9FEFE0
:1001E0000895FC01918D228D892F90E0805C9F4FB6
:1001F000821B91098F739927089580E492E0F1DFC3
:1002000021E0892B09F420E0822F0895FC01848DE0
:10021000DF01A80FB11DA35ABF4F2C91848D90E030
:1002200001968F739927848FA689B7892C93A0890B
:10023000B1898C9180648C93938D848D981306C0C2
:100240000288F389E02D80818F7D80830895EF926D
:10025000FF920F931F93CF93DF93EC0181E0888F80
:100260009B8D8C8D981305C0E889F989808185FD67
:1002700023C0F62E0B8D10E00F5F1F4F0F73112759
:10028000E02E8C8DE8120BC00FB607FCFACFE88980
:10029000F989808185FFF5CFCE01B8DFF2CF8B8D54
:1002A000FE01E80FF11DE35AFF4FF0820B8FEA8940
:1002B000FB898081806207C0EE89FF896083E889BD
:1002C000F98980818064808381E090E0DF91CF9123
:1002D0001F910F91FF90EF900895CF93DF93EC0162
:1002E000888D8823C1F0EA89FB89808185FD05C05E
:1002F000A889B9898C9186FD0EC00FB607FCF5CF91
:10030000808185FFF2CFA889B9898C9185FFEDCFD7
:10031000CE017CDFE8CFDF91CF9108953FB7F8940D
:100320008091330290913402A0913502B09136024F
:1003300026B5A89B05C02F3F19F00196A11DB11D40
:100340003FBFBA2FA92F982F8827820F911DA11D7B
:10035000B11DBC01CD0142E0660F771F881F991FB8
:100360004A95D1F70895009761F0FC0101900020B3
:10037000E9F73197AF01481B590BBC0180E492E0CB
:10038000E3CE80E090E008958F929F92AF92BF926B
:100390000F931F93CF93DF93CDB7DEB7A1970FB61F
:1003A000F894DEBF0FBECDBF19A2423008F44AE078
:1003B0008E010F5D1F4F842E912CA12CB12CA50115
:1003C000940173D4E62FB901CA0101501109EA3032
:1003D00014F4E05D01C0E95CD801EC93232B242BDD
:1003E000252B69F7C801BFDFA1960FB6F894DEBFD1
:1003F0000FBECDBFDF91CF911F910F91BF90AF90F6
:100400009F908F9008954F925F926F927F928F92FC
:100410009F92AF92BF92CF92DF92EF92FF926B01C9
:100420007C01B42E9B01AC0167D5882319F08AE1C9
:1004300092E024C026013701E89477F82FEF3FEFD0
:100440004FE75FE7C301B20157D581110CC02FEF11
:100450003FEF4FE75FE7C301B201B2D718161CF4B4
:100460008EE192E00BC02FEF3FEF4FE75FE4C70153
:10047000B6013ED518167CF482E292E0FF90EF9030
:10048000DF90CF90BF90AF909F908F907F906F90B4
:100490005F904F9068CF2FEF3FEF4FE75FECC701C2
:1004A000B6018ED787FDE8CF20E030E0A901C70173
:1004B000B60186D787FF11C0E0914002F09141025A
:1004C0000190F081E02D6DE280E492E019954C01FD
:1004D000F7FAF094F7F8F09402C0812C912CA12C3B
:1004E00060E070E080E09FE3AB1439F020E030E0A2
:1004F00040E251E469D4A394F7CF9B01AC01C7015A
:10050000B601FED32B013C01C7D46B017C015CD743
:100510009B01AC01C301B201F2D32B013C014AE0C3
:10052000C701B60131DF7C01E80CF91CBB2029F0C2
:1005300086E292E018DFE80EF91EDB2CDD20F9F0F0
:1005400020E030E040E251E4C301B2019ED72B012C
:100550003C01A2D44B01A12CB12C4AE0C501B4014D
:1005600013DFE80EF91EC501B4012ED79B01AC01C3
:10057000C301B201C4D32B013C01DA94DFCFC70120
:10058000FF90EF90DF90CF90BF90AF909F908F90B3
:100590007F906F905F904F900895C3D60F931F93F5
:1005A000CF93DF93EC0188819981009729F02A810C
:1005B0003B812617370780F48B016F5F7F4FCDD5C6
:1005C000009761F0998388831B830A832C813D8186
:1005D000232B11F4FC01108281E001C080E0DF9147
:1005E000CF911F910F910895EF92FF920F931F9358
:1005F000CF93DF93EC017B018A01BA01CFDF288121
:10060000398181110CC02115310511F0C9010DD5B9
:10061000198218821D821C821B821A8205C01D83CA
:100620000C83B701C9018AD6CE01DF91CF911F910A
:100630000F91FF90EF900895AF92BF92CF92DF920B
:10064000EF92FF920F931F93CF93DF931F921F920E
:10065000CDB7DEB7BB24BA94AA24A39480E492E079
:10066000C0DD892B09F457C080E492E098DDF82EB4
:1006700089831A820091E1021091E2020F5F1F4FFD
:10068000B8018DED92E08ADF882391F02091DD02A0
:100690003091DE028091E1029091E202BE016F5F33
:1006A0007F4F820F931F4AD61093E2020093E1021C
:1006B0008AE0F812D3CF8091DD029091DE0200979C
:1006C00011F043D603C060E070E0CB017FD66B0130
:1006D0007C0160932E0270932F02809330029093DE
:1006E000310220E030E0A90103D418161CF4A092D6
:1006F0003B0209C020E030E0A901C701B60160D685
:1007000087FDB0923B0240E050E069E272E08DED7F
:1007100092E06ADFA3CF0F900F90DF91CF911F91EE
:100720000F91FF90EF90DF90CF90BF90AF90089522
:1007300064DD811125C080E090E0892B41F080E0EC
:1007400090E0892B21F00E94000081111BC080E005
:1007500090E0892B41F080E090E0892B21F00E940D
:100760000000811112C080E090E0892B99F080E0B8
:1007700090E0892B79F00E940000811109C0089552
:100780005BDFD9CF0E940000E2CF0E940000EBCFD8
:100790000C94000008951F920F920FB60F9211242F
:1007A0000BB60F922F933F934F935F936F937F936B
:1007B0008F939F93AF93BF93EF93FF9380E492E067
:1007C00025DDFF91EF91BF91AF919F918F917F9127
:1007D0006F915F914F913F912F910F900BBE0F90B2
:1007E0000FBE0F901F9018951F920F920FB60F9289
:1007F00011240BB60F922F938F939F93EF93FF9338
:10080000E0915002F09151028081E0915602F09106
:10081000570282FD12C09081809159028F5F8F73C1
:1008200020915A02821751F0E0915902F0E0E05C09
:10083000FD4F958F8093590201C08081FF91EF9108
:100840009F918F912F910F900BBE0F900FBE0F9025
:100850001F9018951F920F920FB60F9211242F938D
:100860003F938F939F93AF93BF9380913702909163
:100870003802A0913902B0913A023091320223E05D
:10088000230F2D3720F40196A11DB11D05C026E8C8
:10089000230F0296A11DB11D2093320280933702CF
:1008A00090933802A0933902B0933A0280913302B8
:1008B00090913402A0913502B09136020196A11DAB
:1008C000B11D8093330290933402A0933502B0930C
:1008D0003602BF91AF919F918F913F912F910F90D1
:1008E0000FBE0F901F901895E0E4F2E01382128281
:1008F00088EE93E0A0E0B0E084839583A683B7837D
:100900008EE092E09183808385EC90E095878487E8
:1009100084EC90E09787868780EC90E0918B808BC9
:1009200081EC90E0938B828B82EC90E0958B848BB2
:1009300086EC90E0978B868B118E128E138E148E20
:10094000EDEDF2E011821082138212821582148280
:1009500040E050E069E272E0CF0146CE789484B581
:10096000826084BD84B5816084BD85B5826085BDAB
:1009700085B5816085BD80916E00816080936E0039
:10098000109281008091810082608093810080912B
:1009900081008160809381008091800081608093DC
:1009A00080008091B10084608093B1008091B0009C
:1009B00081608093B000809191008260809391006B
:1009C000809191008160809391008091900081607E
:1009D000809390008091A10082608093A10080911B
:1009E000A10081608093A1008091A000816080932C
:1009F000A0008091210182608093210180912101DA
:100A00008160809321018091200181608093200189
:100A100080917A00846080937A0080917A0082606D
:100A200080937A0080917A00816080937A0080912F
:100A30007A00806880937A001092C100E0915002A1
:100A4000F091510282E08083E0914C02F0914D02DE
:100A50001082E0914E02F0914F0280E1808310926B
:100A60005802E0915402F091550286E08083E091B3
:100A70005202F0915302808180618083E0915202A2
:100A8000F0915302808188608083E0915202F0915E
:100A90005302808180688083E0915202F09153027A
:100AA00080818F7D808368EC70E08DED92E076DD53
:100AB000C0903C02D0903D02E0903E02F0903F0298
:100AC00020E030E0A901C701B6017AD481110DC040
:100AD00080E090E0A0E8BFE38093000290930102E1
:100AE000A0930202B093030234C0A701960160E014
:100AF00070E080E89FE368D1609300027093010288
:100B000080930202909303022FB7F894609137020A
:100B1000709138028091390290913A022FBF4AE0D9
:100B200033DC88E292E01FDC42E060E070E0CB0161
:100B30006ADC88E292E017DC60913C0270913D0231
:100B400080913E0290913F0242E05DDC8AE292E0B9
:100B50000ADCC0903C02D0903D02E0903E02F09052
:100B60003F0220E030E04CE452E4C701B601C0D1BE
:100B7000181644F120E030E04CE452ECC701B60115
:100B80001FD487FD1FC080913B0218160CF051C086
:100B900020E030E040EA50E46091000270910102F0
:100BA000809102029091030270D49B01AC01C701B5
:100BB000B601A6D060933C0270933D0280933E0242
:100BC00090933F0220E030E04AE754E46091000255
:100BD00070910102809102029091030256D45CD17F
:100BE0006B017C019BDB4B015C01C114D104E1046E
:100BF000F104E9F093DBDC01CB0188199909AA091A
:100C0000BB09883E9340A105B10578F321E0C21AE3
:100C1000D108E108F10888EE880E83E0981EA11C37
:100C2000B11CC114D104E104F10421F7DECF80DD51
:100C30003FCF882399F020E030E040EA50E4609113
:100C400000027091010280910202909103021DD472
:100C50009B01AC01C701B60152D0ACCF2DEC3CECEE
:100C60004CE45FE3C701B60110D46B017C0120E0C6
:100C700030E040E050E4A4D387FD09C0C0923C02BC
:100C8000D0923D02E0923E02F0923F029BCF109242
:100C90003C0210923D0210923E0210923F0292CF0F
:100CA0008091DD029091DE02C0C1A1E21A2EAA1B42
:100CB000BB1BFD010DC0AA1FBB1FEE1FFF1FA2170C
:100CC000B307E407F50720F0A21BB30BE40BF50B09
:100CD000661F771F881F991F1A9469F76095709592
:100CE000809590959B01AC01BD01CF010895EE0F59
:100CF000FF1F881F8BBF0790F691E02D1994505865
:100D0000BB27AA270ED03BC42CD430F031D420F01E
:100D100031F49F3F11F41EF421C40EF4E095E7FB7B
:100D200017C4E92F3DD480F3BA176207730784070D
:100D3000950718F071F49EF555C40EF4E0950B2E4E
:100D4000BA2FA02D0B01B90190010C01CA01A0011D
:100D50001124FF27591B99F0593F50F4503E68F178
:100D60001A16F040A22F232F342F4427585FF3CFB9
:100D7000469537952795A795F0405395C9F77EF48A
:100D80001F16BA0B620B730B840BBAF09150A1F0D3
:100D9000FF0FBB1F661F771F881FC2F70EC0BA0F59
:100DA000621F731F841F48F4879577956795B795E1
:100DB000F7959E3F08F0B3CF9395880F08F09927D9
:100DC000EE0F9795879508950CD0D9C3D1D340F0F5
:100DD000C8D330F021F45F3F19F0BAC3511103C4F6
:100DE000BDC3DED398F39923C9F35523B1F3951B03
:100DF000550BBB27AA2762177307840738F09F5F3C
:100E00005F4F220F331F441FAA1FA9F333D00E2EAA
:100E10003AF0E0E830D091505040E695001CCAF717
:100E200029D0FE2F27D0660F771F881FBB1F2617DC
:100E300037074807AB07B0E809F0BB0B802DBF01AF
:100E4000FF2793585F4F2AF09E3F510568F080C3FB
:100E5000CAC35F3FECF3983EDCF3869577956795C0
:100E6000B795F7959F5FC9F7880F911D9695879560
:100E700097F90895E1E0660F771F881FBB1F62177F
:100E800073078407BA0720F0621B730B840BBA0B3D
:100E9000EE1F88F7E09508958BD388F09F5790F068
:100EA000B92F9927B751A0F0D1F0660F771F881F8F
:100EB000991F1AF0BA95C9F712C0B13081F092D3D8
:100EC000B1E008958FC3672F782F8827B85F39F076
:100ED000B93FCCF3869577956795B395D9F73EF4EE
:100EE00090958095709561957F4F8F4F9F4F089596
:100EF000A8D208F48FEF0895A4D2880B990B089517
:100F0000CF93DF938230910510F482E090E0E0917E
:100F1000E502F091E60220E030E0C0E0D0E030975A
:100F200011F14081518148175907C0F048175907FE
:100F300061F482819381209719F09B838A832BC06F
:100F40009093E6028093E50226C02115310519F041
:100F50004217530718F49A01BE01DF01EF01028026
:100F6000F381E02DDCCF2115310509F1281B390B68
:100F70002430310590F412968D919C911397611550
:100F8000710521F0FB019383828304C09093E602F4
:100F90008093E502FD01329644C0FD01E20FF31F8C
:100FA00081939193225031092D933C933AC0209123
:100FB000E3023091E402232B41F4209106023091A8
:100FC00007023093E4022093E3022091040230915F
:100FD00005022115310541F42DB73EB740910802B5
:100FE00050910902241B350BE091E302F091E402D9
:100FF000E217F307A0F42E1B3F0B2817390778F0F0
:10100000AC014E5F5F4F2417350748F04E0F5F1F4E
:101010005093E4024093E3028193919302C0E0E095
:10102000F0E0CF01DF91CF9108950F931F93CF93FD
:10103000DF93009709F48CC0FC013297138212826F
:101040000091E5021091E6020115110581F420815D
:101050003181820F931F2091E3023091E40228171F
:10106000390779F5F093E402E093E30271C0D80107
:1010700040E050E0AE17BF0750F412962D913C911E
:101080001397AD012115310509F1D901F3CF9D0168
:10109000DA013383228360817181860F971F821763
:1010A000930769F4EC0128813981260F371F2E5FE1
:1010B0003F4F318320838A819B8193838283452B99
:1010C00029F4F093E602E093E50242C01396FC9304
:1010D000EE931297ED01499159919E01240F351F0E
:1010E000E217F30771F480819181840F951F0296B6
:1010F00011969C938E938281938113969C938E93E9
:101100001297E0E0F0E0D80112968D919C91139730
:10111000009719F0F8018C01F6CF8D919C91980100
:101120002E5F3F4F820F931F2091E3023091E40224
:101130002817390769F4309729F41092E6021092C3
:10114000E50202C0138212821093E4020093E302CC
:10115000DF91CF911F910F9108956F927F928F929F
:101160009F92AF92BF92CF92DF92EF92FF920F9336
:101170001F93CF93DF93EC01009781F4CB01DF91B4
:10118000CF911F910F91FF90EF90DF90CF90BF9084
:10119000AF909F908F907F906F90B2CEFC01E60F42
:1011A000F71F9C0122503109E217F30708F4A8C089
:1011B000D9010D911C91119706171707A8F005305A
:1011C000110508F49BC0C80104978617970708F417
:1011D00095C002501109061B170B019311936D93D3
:1011E0007C93CF0122DF8AC05B01A01AB10A4C01B7
:1011F000800E911EA091E502B091E60240E050E021
:10120000E12CF12C109709F44AC0A815B905D1F5C5
:101210006D907C901197630182E0C80ED11CCA14B6
:10122000DB0480F1A3014A195B096A0182E0C80E60
:10123000D11C1296BC9012971396AC91B5E0CB16C8
:10124000D10440F0B282A38351834083D9016D93CE
:101250007C930AC00E5F1F4FC301800F911FF901DD
:1012600091838083EB2DFA2FE114F10431F0D70143
:101270001396FC93EE93129741C0F093E602E0932D
:10128000E5023CC08D919C9111974817590708F4CD
:10129000AC017D0112960D90BC91A02DB3CF809131
:1012A000E3029091E40288159905E1F44617570787
:1012B000C8F48091040290910502009741F48DB723
:1012C0009EB74091080250910902841B950BE817C4
:1012D000F907B0F4F093E402E093E302F9017183BB
:1012E00060830CC0CB010CDE7C01009749F0A801A3
:1012F000BE011BD0CE0199DEC70104C0CE0102C0E1
:1013000080E090E0DF91CF911F910F91FF90EF90DF
:10131000DF90CF90BF90AF909F908F907F906F9015
:10132000089581E090E0F89464C1FB01DC0102C003
:1013300001900D9241505040D8F70895FB01DC0117
:1013400001900D920020E1F708951F93FC01992769
:101350008827BC01E89411911032E9F3193010F09C
:101360001E30C8F31B3249F01D3241F4689405C0A9
:1013700012D0610F711D811D911D119110531A30F2
:10138000B8F33EF490958095709561957F4F8F4F9F
:101390009F4F1F910895592F482F372F262F660FE3
:1013A000771F881F991F660F771F881F991F620F6D
:1013B000731F841F951F660F771F881F991F08953D
:1013C00040D008F481E00895E89409C097FB3EF40A
:1013D00090958095709561957F4F8F4F9F4F992382
:1013E000A9F0F92F96E9BB279395F6958795779500
:1013F0006795B795F111F8CFFAF4BB0F11F460FFC0
:101400001BC06F5F7F4F8F4F9F4F16C0882311F017
:1014100096E911C0772321F09EE8872F762F05C02B
:10142000662371F096E8862F70E060E02AF09A95C6
:10143000660F771F881FDAF7880F9695879597F9BB
:101440000895990F0008550FAA0BE0E8FEEF161655
:101450001706E807F907C0F012161306E407F507A8
:1014600098F0621B730B840B950B39F40A2661F01C
:10147000232B242B252B21F408950A2609F4A140BF
:10148000A6958FEF811D811D08950BD078C069D07E
:1014900028F06ED018F0952309F05AC05FC01124CF
:1014A000A2C07ED0A0F3959FD1F3950F50E0551FB9
:1014B000629FF001729FBB27F00DB11D639FAA27A9
:1014C000F00DB11DAA1F649F6627B00DA11D661FF8
:1014D000829F2227B00DA11D621F739FB00DA11D19
:1014E000621F839FA00D611D221F749F3327A00DD3
:1014F000611D231F849F600D211D822F762F6A2F6F
:1015000011249F5750408AF0E1F088234AF0EE0FF3
:10151000FF1FBB1F661F771F881F91505040A9F700
:101520009E3F510570F014C05EC05F3FECF3983EE3
:10153000DCF3869577956795B795F795E7959F5F67
:10154000C1F7FE2B880F911D9695879597F9089501
:1015500097F99F6780E870E060E008959FEF80EC66
:10156000089500240A941616170618060906089509
:1015700000240A9412161306140605060895092E6F
:101580000394000C11F4882352F0BB0F40F4BF2BDE
:1015900011F460FF04C06F5F7F4F8F4F9F4F08951E
:1015A00057FD9058440F551F59F05F3F71F0479514
:1015B000880F97FB991F61F09F3F79F087950895F9
:1015C000121613061406551FF2CF4695F1DF08C018
:1015D000161617061806991FF1CF86957105610535
:1015E00008940895E894BB2766277727CB0197F9DD
:1015F000089510E0C3E7D0E000E005C0802FFE01B1
:1016000076DB2196011DC437D10780E00807B1F7CA
:04161000F894FFCF7C
:101614000000803F0000E702800000000000270176
:10162400A400F100CF00E3006D016E616E00696EED
:0E16340066006F7666002E0009000D0A0000A9
:00000001FF
