:100000000C9466000C948E000C948E000C948E0060
:100010000C948E000C948E000C948E000C948E0028
:100020000C948E000C948E000C948E000C948E0018
:100030000C948E000C948E000C948E000C948E0008
:100040000C9462050C948E000C9430050C940A05F7
:100050000C948E000C948E000C948E000C948E00E8
:100060000C948E000C948E002D022F02310233026C
:10007000360238023B023E02000000080002010086
:100080000003040700000000000000000000000062
:10009000250028002B0000000000240027002A0073
:1000A000040404040404040402020202020203031E
:1000B0000303030301020408102040800102040826
:1000C0001020010204081020AC05050811241FBEF1
:1000D000CFEFD8E0DEBFCDBF11E0A0E0B1E0E6EFAA
:1000E000F9E102C005900D92A835B107D9F722E0D9
:1000F000A8E5B1E001C01D92AB31B207E1F710E015
:10010000C5E6D0E004C02197FE010E942D08C43648
:10011000D107C9F70E94E7050C94EE0C0C9400007F
:1001200090E0FC01EC54FF4F2491FC01E056FF4F9E
:100130008491882399F090E0880F991FFC01EA567A
:10014000FF4FA591B491FC01E457FF4F8591949125
:100150008FB7F894EC91E22BEC938FBF0895CF9278
:10016000DF92EF92FF920F931F93CF93DF936C0177
:100170007A018B01C0E0D0E0CE15DF0589F0D8010F
:100180006D918D01D601ED91FC910190F081E02DF2
:10019000C6010995892B11F47E0102C02196ECCF8E
:1001A000C701DF91CF911F910F91FF90EF90DF90EA
:1001B000CF900895FC01918D828D981761F0828D0A
:1001C000DF01A80FB11D5D968C91928D9F5F9F738B
:1001D000928F90E008958FEF9FEF0895FC01918D2D
:1001E000828D981731F0828DE80FF11D858D90E09A
:1001F00008958FEF9FEF0895FC01918D228D892F37
:1002000090E0805C9F4F821B91098F73992708951E
:1002100084E791E00E94FC0021E0892B09F420E0B2
:10022000822F0895FC01848DDF01A80FB11DA35A10
:10023000BF4F2C91848D90E001968F739927848F06
:10024000A689B7892C93A089B1898C9180648C93FD
:10025000938D848D981306C00288F389E02D8081E8
:100260008F7D80830895EF92FF920F931F93CF931A
:10027000DF93EC0181E0888F9B8D8C8D981305C0F6
:10028000E889F989808185FD24C0F62E0B8D10E068
:100290000F5F1F4F0F731127E02E8C8DE8120CC0DB
:1002A0000FB607FCFACFE889F989808185FFF5CF81
:1002B000CE010E941201F1CF8B8DFE01E80FF11DDE
:1002C000E35AFF4FF0820B8FEA89FB8980818062BD
:1002D00007C0EE89FF896083E889F989808180649D
:1002E000808381E090E0DF91CF911F910F91FF908B
:1002F000EF900895CF93DF93EC01888D8823C9F0A8
:10030000EA89FB89808185FD05C0A889B9898C911E
:1003100086FD0FC00FB607FCF5CF808185FFF2CFB9
:10032000A889B9898C9185FFEDCFCE010E94120179
:10033000E7CFDF91CF91089590E0FC01E858FF4F9F
:100340003491FC01EC54FF4F2491FC01E056FF4F27
:10035000E491EE2309F43BC0332339F1333091F0BB
:1003600038F43130A9F0323001F584B58F7D12C0F8
:10037000373091F03830A1F03430B9F480918000FA
:100380008F7D03C0809180008F77809380000DC0A7
:1003900084B58F7784BD09C08091B0008F7703C08A
:1003A0008091B0008F7D8093B000F0E0EE0FFF1FD2
:1003B000E457FF4FA591B4918FB7F894EC91611178
:1003C00003C020952E2301C02E2B2C938FBF0895A0
:1003D00020E030E0A901609167017091680180918F
:1003E000690190916A010E9441094091590150911F
:1003F0005A0160915B0170915C0118160CF0705805
:1004000040936701509368016093690170936A019A
:10041000089590915801882311F09F5F01C0915079
:10042000909358018091580188301CF01092580127
:1004300005C087FF03C087E080935801E091580111
:100440008E2FEE0F990BAA0BBB0B88309105D0F4C1
:10045000FC01EC5CFF4F0C942D0861E005C060E0EE
:100460000BC061E006C060E08FE00AC061E007C039
:1004700060E080E105C061E08EE002C060E081E103
:100480000C949C010895CF92DF92EF92FF92CF934C
:10049000C0906701D0906801E0906901F0906A0116
:1004A00020E030E0A901C701B6010E9441091816F9
:1004B00074F42091590130915A0140915B0150919F
:1004C0005C01C701B6010E94410987FF1FC020E0FF
:1004D00030E0A901C701B6010E94930B87FF18C045
:1004E0008091590190915A01A0915B01B0915C01FA
:1004F0009C01AD015058C1E0C701B6010E94930BA9
:1005000018160CF4C0E08C2F819503C081E001C067
:1005100080E0CF91FF90EF90DF90CF90089500970B
:1005200069F0FC0101900020E9F73197AF01481B09
:10053000590BBC0184E791E00C94AF0080E090E09F
:1005400008958F929F92AF92BF920F931F93CF9374
:10055000DF93CDB7DEB7A1970FB6F894DEBF0FBE1D
:10056000CDBF19A2423008F44AE08E010F5D1F4F43
:10057000842E912CA12CB12CA50194010E940B0872
:10058000E62FB901CA0101501109EA3014F4E05D07
:1005900001C0E95CD801EC93232B242B252B61F7B8
:1005A000C8010E948F02A1960FB6F894DEBF0FBE5D
:1005B000CDBFDF91CF911F910F91BF90AF909F90D2
:1005C0008F9008954F925F926F927F928F929F9239
:1005D000AF92BF92CF92DF92EF92FF926B017C01BC
:1005E000B42E9B01AC010E944609882319F08AE1D0
:1005F00091E027C026013701E89477F82FEF3FEF0D
:100600004FE75FE7C301B2010E94460981110DC0A7
:100610002FEF3FEF4FE75FE7C301B2010E94930B5B
:1006200018161CF48EE191E00CC02FEF3FEF4FE75E
:100630005FE4C701B6010E944109181684F482E202
:1006400091E0FF90EF90DF90CF90BF90AF909F90A0
:100650008F907F906F905F904F900C948F022FEF50
:100660003FEF4FE75FECC701B6010E94930B87FD98
:10067000E6CF20E030E0A901C701B6010E94930B4C
:1006800087FF11C0E0917401F09175010190F08134
:10069000E02D6DE284E791E009954C01F7FAF094C2
:1006A000F7F8F09402C0812C912CA12C60E070E04E
:1006B00080E09FE3AB1441F020E030E040E251E401
:1006C0000E94A008A394F6CF9B01AC01C701B6011C
:1006D0000E9434082B013C010E9412096B017C012D
:1006E0000E94980B9B01AC01C301B2010E94330828
:1006F0002B013C014AE0C701B6010E94A1027C0126
:10070000E80CF91CBB2031F086E291E00E948F02D8
:10071000E80EF91EDB2CDD2021F120E030E040E284
:1007200051E4C301B2010E94F90B2B013C010E946C
:1007300012094B01A12CB12C4AE0C501B4010E9461
:10074000A102E80EF91EC501B4010E94980B9B019D
:10075000AC01C301B2010E9433082B013C01DA94C1
:10076000DACFC701FF90EF90DF90CF90BF90AF90AE
:100770009F908F907F906F905F904F90089560E072
:100780008EE00E949C0160E08FE00E949C0160E08E
:1007900080E10E949C0160E081E10E949C0188E26E
:1007A00091E00E948F028DE291E00C948F020E94F2
:1007B000420B0F931F93CF93DF93EC0188819981B4
:1007C000009729F02A813B812617370788F48B018F
:1007D0006F5F7F4F0E94780A009761F0998388834A
:1007E0001B830A832C813D81232B11F4FC01108291
:1007F00081E001C080E0DF91CF911F910F910895BA
:10080000EF92FF920F931F93CF93DF93EC017B0145
:100810008A01BA010E94D9032881398181110DC052
:100820002115310519F0C9010E94E00919821882C9
:100830001D821C821B821A8206C01D830C83B70195
:10084000C9010E94500BCE01DF91CF911F910F91F2
:10085000FF90EF900895CF92DF92EF92FF920F9367
:100860001F93CF93DF9300D0CDB7DEB70FEF11E02A
:1008700084E791E00E94FC00892B09F4BAC084E768
:1008800091E00E94DA00D82E89831A82E090150246
:10089000F09016028FEFE81AF80AB70181E192E0B2
:1008A0000E94D903882399F02091110230911202FD
:1008B0008091150290911602BE016F5F7F4F820FEB
:1008C000931F0E94500BF0921602E09215028AE0EC
:1008D000D812CECF8091110290911202009719F098
:1008E0000E94570B03C060E070E0CB010E949A0B9E
:1008F00060936F0170937001809371019093720106
:1009000020916B0130916C0140916D0150916E010D
:100910000E9433086B017C0120E030E0A9010E94B5
:10092000410918161CF41093660117C020E030E04E
:10093000A901C701B6010E94930B87FD00936601D0
:1009400020E030E0A901C701B6010E944109181654
:1009500024F0F7FAF094F7F8F09420E030E040EA61
:1009600051E4C701B6010E94410918164CF0C0922B
:100970005901D0925A01E0925B01F0925C010CC0E7
:1009800080E090E0A0EAB1E48093590190935A018D
:10099000A0935B01B0935C0180E391E00E948F0221
:1009A00060916F017091700180917101909172015D
:1009B00042E00E94E20280E391E00E948F02609197
:1009C000590170915A0180915B0190915C0142E064
:1009D0000E94E2028DE291E00E948F021093730167
:1009E00040E050E061E371E081E192E00E940004A8
:1009F0003FCF0F900F90DF91CF911F910F91FF90FC
:100A0000EF90DF90CF9008950E94080181110C941F
:100A10002B0408951F920F920FB60F9211242F935B
:100A20003F934F935F936F937F938F939F93AF9376
:100A3000BF93EF93FF9384E791E00E941201FF912F
:100A4000EF91BF91AF919F918F917F916F915F9146
:100A50004F913F912F910F900FBE0F901F901895BF
:100A60001F920F920FB60F9211242F938F939F9383
:100A7000EF93FF93E0918401F09185018081E091F3
:100A80008A01F0918B0182FD12C0908180918D01CD
:100A90008F5F8F7320918E01821751F0E0918D014D
:100AA000F0E0EC58FE4F958F80938D0101C080815E
:100AB000FF91EF919F918F912F910F900FBE0F900B
:100AC0001F9018951F920F920FB60F9211242F931B
:100AD0003F938F939F93AF93BF93809162019091C7
:100AE0006301A0916401B09165013091610123E03F
:100AF000230F2D3720F40196A11DB11D05C026E856
:100B0000230F0296A11DB11D209361018093620104
:100B100090936301A0936401B093650180915D019E
:100B200090915E01A0915F01B09160010196A11DBD
:100B3000B11D80935D0190935E01A0935F01B0931E
:100B40006001BF91AF919F918F913F912F910F9035
:100B50000FBE0F901F901895E4E7F1E01382128208
:100B600088EE93E0A0E0B0E084839583A683B7830A
:100B70008EE091E09183808385EC90E09587848777
:100B800084EC90E09787868780EC90E0918B808B57
:100B900081EC90E0938B828B82EC90E0958B848B40
:100BA00086EC90E0978B868B118E128E138E148EAE
:100BB000E1E1F2E011821082138212821582148226
:100BC00040E050E061E371E0CF010C9400047894C0
:100BD00084B5826084BD84B5816084BD85B5826042
:100BE00085BD85B5816085BD80916E0081608093F3
:100BF0006E0010928100809181008260809381005C
:100C0000809181008160809381008091800081606B
:100C1000809380008091B10084608093B1008091C6
:100C2000B00081608093B00080917A0084608093EE
:100C30007A0080917A00826080937A0080917A00B5
:100C4000816080937A0080917A00806880937A0036
:100C50001092C100E0918401F091850182E08083CF
:100C6000E0918001F09181011082E0918201F09188
:100C7000830180E1808310928C01E0918801F091E2
:100C8000890186E08083E0918601F091870180816F
:100C900080618083E0918601F09187018081886086
:100CA0008083E0918601F091870180818068808354
:100CB000E0918601F091870180818F7D808368ECCF
:100CC00070E081E192E00E94D90382E391E00E940A
:100CD0008F028DE291E00E948F028EE00E949000D0
:100CE0008FE00E94900080E10E94900081E10E94CC
:100CF000900080917301882309F472C020916B01E8
:100D000030916C0140916D0150916E0160916F01C5
:100D10007091700180917101909172010E9441095E
:100D200087FD30C00E944302811123C02DEC3CECB2
:100D30004CE45EE360910001709101018091020139
:100D4000909103010E94F90B9B01AC016091670136
:100D5000709168018091690190916A010E94340844
:100D600060936701709368018093690190936A01B1
:100D700002C00E94E8018091660187FF9EC0109228
:100D800073019BC00E944302811123C02DEC3CECF7
:100D90004CE45EE3609100017091010180910201D9
:100DA000909103010E94F90B9B01AC0160916701D6
:100DB000709168018091690190916A010E943308E5
:100DC00060936701709368018093690190936A0151
:100DD00002C00E94E80180916601181684F26DC07D
:100DE000C0906701D0906801E0906901F0906A01BD
:100DF00020E030E0A901C701B6010E9441091816A0
:100E00007CF520E030E040E05FE36091000170910C
:100E1000010180910201909103010E94F90B9B0155
:100E2000AC01C701B6010E9433086093670170935B
:100E300068018093690190936A0120E030E040E00E
:100E400050E40E94930B87FF38C010926701109204
:100E500068011092690110926A010E94BF032DC0BF
:100E600020E030E0A901C701B6010E94930B87FF83
:100E700024C020E030E040E05FE360910001709129
:100E8000010180910201909103010E94F90B9B01E5
:100E9000AC01C701B6010E943408609367017093EA
:100EA00068018093690190936A0120E030E040E09E
:100EB00050EC0E944109181644F2C0906701D0908E
:100EC0006801E0906901F0906A0120E030E040E0C4
:100ED00050E4C701B6010E94930B87FF17C020E0C2
:100EE00030E040E050ECC701B6010E9441091816FD
:100EF0006CF480E090E0A0E8BFE380930001909361
:100F00000101A0930201B09303011DC0A701960146
:100F100060E070E080E89FE30E94A0084B015C0164
:100F200020E030E0A9010E944109181624F0B7FA28
:100F3000B094B7F8B0948092000190920101A09211
:100F40000201B092030120E030E0A901C701B6011F
:100F50000E9441091816C4F420E030E040E85FE345
:100F600060916B0170916C0180916D0190916E01A7
:100F70000E94340860936B0170936C0180936D0143
:100F800090936E0181E020C020E030E0A901C7010C
:100F9000B6010E94930B87FF19C020E030E040E8C3
:100FA0005FE360916B0170916C0180916D01909194
:100FB0006E010E94330860936B0170936C01809303
:100FC0006D0190936E0180E00E94090220E030E400
:100FD0004CE956E460910001709101018091020199
:100FE000909103010E94F90B0E9412096230710571
:100FF00048F0660F771F660F771F65507109CB01A8
:101000000197F1F70E94040574CE8091110290912E
:1010100012020C94E009A1E21A2EAA1BBB1BFD01CF
:101020000DC0AA1FBB1FEE1FFF1FA217B307E407C7
:10103000F50720F0A21BB30BE40BF50B661F771F1F
:10104000881F991F1A9469F76095709580959095FF
:101050009B01AC01BD01CF010895EE0FFF1F05906C
:10106000F491E02D09945058BB27AA270E944B0801
:101070000C947D0C0E946F0C38F00E94760C20F0CE
:1010800039F49F3F19F426F40C946C0C0EF4E0959F
:10109000E7FB0C94660CE92F0E948E0C58F3BA17EC
:1010A000620773078407950720F079F4A6F50C947E
:1010B000B00C0EF4E0950B2EBA2FA02D0B01B90148
:1010C00090010C01CA01A0011124FF27591B99F0BE
:1010D000593F50F4503E68F11A16F040A22F232FCA
:1010E000342F4427585FF3CF469537952795A7951A
:1010F000F0405395C9F77EF41F16BA0B620B730BC1
:10110000840BBAF09150A1F0FF0FBB1F661F771F31
:10111000881FC2F70EC0BA0F621F731F841F48F4E6
:10112000879577956795B795F7959E3F08F0B0CF6F
:101130009395880F08F09927EE0F97958795089556
:101140000E94B4080C947D0C0E94760C58F00E940A
:101150006F0C40F029F45F3F29F00C94660C51119C
:101160000C94B10C0C946C0C0E948E0C68F39923B7
:10117000B1F3552391F3951B550BBB27AA27621793
:101180007307840738F09F5F5F4F220F331F441FA0
:10119000AA1FA9F335D00E2E3AF0E0E832D09150D4
:1011A0005040E695001CCAF72BD0FE2F29D0660FC1
:1011B000771F881FBB1F261737074807AB07B0E804
:1011C00009F0BB0B802DBF01FF2793585F4F3AF00A
:1011D0009E3F510578F00C94660C0C94B10C5F3F67
:1011E000E4F3983ED4F3869577956795B795F79590
:1011F0009F5FC9F7880F911D9695879597F9089578
:10120000E1E0660F771F881FBB1F62177307840713
:10121000BA0720F0621B730B840BBA0BEE1F88F722
:10122000E09508950E94960C88F09F5798F0B92F8A
:101230009927B751B0F0E1F0660F771F881F991F0B
:101240001AF0BA95C9F714C0B13091F00E94B00CF1
:10125000B1E008950C94B00C672F782F8827B85F01
:1012600039F0B93FCCF3869577956795B395D9F763
:101270003EF490958095709561957F4F8F4F9F4F6D
:1012800008950E94D50B08F48FEF08950E94D50BA6
:10129000880B990B0895CF93DF938230910510F45A
:1012A00082E090E0E0911902F0911A0220E030E033
:1012B000C0E0D0E0309711F14081518148175907C3
:1012C000C0F04817590761F482819381209719F083
:1012D0009B838A832BC090931A028093190226C0A5
:1012E0002115310519F04217530718F49A01BE0170
:1012F000DF01EF010280F381E02DDCCF2115310504
:1013000009F1281B390B2430310590F412968D9188
:101310009C9113976115710521F0FB0193838283E2
:1013200004C090931A0280931902FD01329644C0C2
:10133000FD01E20FF31F81939193225031092D9308
:101340003C933AC02091170230911802232B41F4AC
:101350002091060130910701309318022093170263
:1013600020910401309105012115310541F42DB77B
:101370003EB74091080150910901241B350BE091C3
:101380001702F0911802E217F307A0F42E1B3F0B8F
:101390002817390778F0AC014E5F5F4F24173507E7
:1013A00048F04E0F5F1F509318024093170281932D
:1013B000919302C0E0E0F0E0CF01DF91CF9108957A
:1013C0000F931F93CF93DF93009709F48CC0FC0118
:1013D0003297138212820091190210911A0201159C
:1013E000110581F420813181820F931F2091170212
:1013F000309118022817390779F5F0931802E09315
:10140000170271C0D80140E050E0AE17BF0750F49A
:1014100012962D913C911397AD012115310509F1DB
:10142000D901F3CF9D01DA01338322836081718179
:10143000860F971F8217930769F4EC012881398181
:10144000260F371F2E5F3F4F318320838A819B8178
:1014500093838283452B29F4F0931A02E0931902B7
:1014600042C01396FC93EE931297ED014991599166
:101470009E01240F351FE217F30771F480819181DB
:10148000840F951F029611969C938E93828193816F
:1014900013969C938E931297E0E0F0E0D801129699
:1014A0008D919C911397009719F0F8018C01F6CF5C
:1014B0008D919C9198012E5F3F4F820F931F209139
:1014C0001702309118022817390769F4309729F468
:1014D00010921A021092190202C013821282109303
:1014E000180200931702DF91CF911F910F91089579
:1014F000A0E0B0E0EEE7FAE00C94BB0CEC01009742
:1015000021F4CB010E944B09B8C0FC01E60FF71F84
:101510009C0122503109E217F30708F4ACC0D9014D
:101520000D911C91119706171707B0F005301105A2
:1015300008F49FC0C80104978617970708F499C05C
:1015400002501109061B170B019311936D937C93A5
:10155000CF010E94E0098DC05B01A01AB10A4C01C5
:10156000800E911EA0911902B0911A0240E050E045
:10157000E12CF12C109709F44AC0A815B905D1F552
:101580006D907C901197630182E0C80ED11CCA1443
:10159000DB0480F1A3014A195B096A0182E0C80EED
:1015A000D11C1296BC9012971396AC91B5E0CB1655
:1015B000D10440F0B282A38351834083D9016D935B
:1015C0007C930AC00E5F1F4FC301800F911FF9016A
:1015D00091838083EB2DFA2FE114F10431F0D701D0
:1015E0001396FC93EE93129744C0F0931A02E09383
:1015F00019023FC08D919C9111974817590708F423
:10160000AC017D0112960D90BC91A02DB3CF8091BD
:1016100017029091180288159905E1F446175707AB
:10162000C8F48091040190910501009741F48DB7B1
:101630009EB74091080150910901841B950BE81752
:10164000F907C8F4F0931802E0931702F9017183C7
:1016500060830FC0CB010E944B097C01009759F0B9
:10166000A801BE010E94470BCE010E94E009C701FC
:1016700004C0CE0102C080E090E0CDB7DEB7EEE05E
:101680000C94D70C81E090E0F8940C94EE0CFB01E4
:10169000DC0102C001900D9241505040D8F70895EE
:1016A000FB01DC0101900D920020E1F708951F93EA
:1016B000FC0199278827BC01E89411911032E9F3C5
:1016C000193010F01E30C8F31B3251F01D3249F4AE
:1016D000689406C00E947E0B610F711D811D911DD3
:1016E000119110531A30B0F33EF490958095709597
:1016F00061957F4F8F4F9F4F1F910895592F482F0E
:10170000372F262F660F771F881F991F660F771FA9
:10171000881F991F620F731F841F951F660F771F05
:10172000881F991F08950E94D50B08F481E0089541
:10173000E89409C097FB3EF490958095709561956B
:101740007F4F8F4F9F4F9923A9F0F92F96E9BB2721
:101750009395F695879577956795B795F111F8CF9D
:10176000FAF4BB0F11F460FF1BC06F5F7F4F8F4F08
:101770009F4F16C0882311F096E911C0772321F0FE
:101780009EE8872F762F05C0662371F096E8862F96
:1017900070E060E02AF09A95660F771F881FDAF7ED
:1017A000880F9695879597F90895990F0008550F1A
:1017B000AA0BE0E8FEEF16161706E807F907C0F0D7
:1017C00012161306E407F50798F0621B730B840BDF
:1017D000950B39F40A2661F0232B242B252B21F4B9
:1017E00008950A2609F4A140A6958FEF811D811D59
:1017F00008950E940C0C0C947D0C0E946F0C38F024
:101800000E94760C20F0952311F00C94660C0C9439
:101810006C0C11240C94B10C0E948E0C70F3959FEB
:10182000C1F3950F50E0551F629FF001729FBB27D7
:10183000F00DB11D639FAA27F00DB11DAA1F649F73
:101840006627B00DA11D661F829F2227B00DA11D26
:10185000621F739FB00DA11D621F839FA00D611DAC
:10186000221F749F3327A00D611D231F849F600DCD
:10187000211D822F762F6A2F11249F5750409AF0F6
:10188000F1F088234AF0EE0FFF1FBB1F661F771F82
:10189000881F91505040A9F79E3F510580F00C944D
:1018A000660C0C94B10C5F3FE4F3983ED4F386953C
:1018B00077956795B795F795E7959F5FC1F7FE2BED
:1018C000880F911D9695879597F9089597F99F67C9
:1018D00080E870E060E008959FEF80EC08950024B8
:1018E0000A941616170618060906089500240A9485
:1018F00012161306140605060895092E0394000C0B
:1019000011F4882352F0BB0F40F4BF2B11F460FF99
:1019100004C06F5F7F4F8F4F9F4F089557FD9058C2
:10192000440F551F59F05F3F71F04795880F97FBA3
:10193000991F61F09F3F79F087950895121613065D
:101940001406551FF2CF4695F1DF08C0161617068C
:101950001806991FF1CF86957105610508940895C1
:10196000E894BB2766277727CB0197F908952F9234
:101970003F924F925F926F927F928F929F92AF921F
:10198000BF92CF92DF92EF92FF920F931F93CF936C
:10199000DF93CDB7DEB7CA1BDB0B0FB6F894DEBF03
:1019A0000FBECDBF09942A88398848885F846E8429
:1019B0007D848C849B84AA84B984C884DF80EE8073
:1019C000FD800C811B81AA81B981CE0FD11D0FB67C
:1019D000F894DEBF0FBECDBFED01089510E0C5E65F
:1019E000D0E004C0FE010E942D082196C636D10722
:0619F000C9F7F894FFCFD7
:1019F6000000803F00001B02800000000000330151
:101A0600AF00FC00DA00EE007A016E616E00696ECE
:101A160066006F7666002E0073746F70000D0A0004
:101A2600090074696D6509636F6F72640973706587
:101A36006564096469720972756E09746172676515
:081A4600745370656564000033
:00000001FF
